{
  "contractName": "GX_DEXManagerReference",
  "abi": [
    {
      "inputs": [],
      "stateMutability": "nonpayable",
      "type": "constructor"
    },
    {
      "anonymous": false,
      "inputs": [
        {
          "indexed": true,
          "internalType": "address",
          "name": "adminAddress",
          "type": "address"
        }
      ],
      "name": "GX_AdminAdded",
      "type": "event"
    },
    {
      "anonymous": false,
      "inputs": [
        {
          "indexed": true,
          "internalType": "address",
          "name": "adminAddress",
          "type": "address"
        }
      ],
      "name": "GX_AdminRemoved",
      "type": "event"
    },
    {
      "anonymous": false,
      "inputs": [
        {
          "indexed": true,
          "internalType": "address",
          "name": "DEXManagerAddress",
          "type": "address"
        }
      ],
      "name": "GX_DEXManagerSet",
      "type": "event"
    },
    {
      "inputs": [],
      "name": "DEXManagerReference",
      "outputs": [
        {
          "internalType": "address",
          "name": "",
          "type": "address"
        }
      ],
      "stateMutability": "view",
      "type": "function"
    },
    {
      "inputs": [
        {
          "internalType": "address",
          "name": "_newAdmin",
          "type": "address"
        }
      ],
      "name": "addAdmin",
      "outputs": [],
      "stateMutability": "nonpayable",
      "type": "function"
    },
    {
      "inputs": [
        {
          "internalType": "address",
          "name": "_addressToCheck",
          "type": "address"
        }
      ],
      "name": "isAdmin",
      "outputs": [
        {
          "internalType": "bool",
          "name": "",
          "type": "bool"
        }
      ],
      "stateMutability": "view",
      "type": "function"
    },
    {
      "inputs": [
        {
          "internalType": "address",
          "name": "_adminToDelete",
          "type": "address"
        }
      ],
      "name": "removeAdmin",
      "outputs": [],
      "stateMutability": "nonpayable",
      "type": "function"
    },
    {
      "inputs": [
        {
          "internalType": "address",
          "name": "_DEXManagerAddress",
          "type": "address"
        }
      ],
      "name": "setDEXManager",
      "outputs": [],
      "stateMutability": "nonpayable",
      "type": "function"
    }
  ],
  "bytecode": "0x608060405234801561001057600080fd5b50336000908152602081905260409020805460ff1916600117905561039d8061003a6000396000f3fe608060405234801561001057600080fd5b50600436106100575760003560e01c80631785f53c1461005c57806324d7806c1461008457806367fd6d07146100be57806370480275146100e257806396f9189014610108575b600080fd5b6100826004803603602081101561007257600080fd5b50356001600160a01b031661012e565b005b6100aa6004803603602081101561009a57600080fd5b50356001600160a01b03166101ca565b604080519115158252519081900360200190f35b6100c66101e8565b604080516001600160a01b039092168252519081900360200190f35b610082600480360360208110156100f857600080fd5b50356001600160a01b03166101f7565b6100826004803603602081101561011e57600080fd5b50356001600160a01b0316610296565b3360009081526020819052604090205460ff1615156001146101815760405162461bcd60e51b81526004018080602001828103825260348152602001806103346034913960400191505060405180910390fd5b6001600160a01b038116600081815260208190526040808220805460ff19169055517f6a35edfb19dff31b968882a3f9eeef54e0ca71bb9af2db6e085f409715d3c5479190a250565b6001600160a01b031660009081526020819052604090205460ff1690565b6001546001600160a01b031681565b3360009081526020819052604090205460ff16151560011461024a5760405162461bcd60e51b81526004018080602001828103825260348152602001806103346034913960400191505060405180910390fd5b6001600160a01b038116600081815260208190526040808220805460ff19166001179055517fd7f0afc2242fe9a5f45af6dea542902933e36c643299a53b1057b13cf8bcad809190a250565b3360009081526020819052604090205460ff1615156001146102e95760405162461bcd60e51b81526004018080602001828103825260348152602001806103346034913960400191505060405180910390fd5b600180546001600160a01b0319166001600160a01b0383169081179091556040517f101456e9dc0c87e1ecf3aa5305adf4634567685f40b0097eb396fd6d55abdcf990600090a25056fe47616c617869733a204163636573732064656e6965643a206e6f7420616e2061646d696e206f662074686520636f6e7472616374a26469706673582212203a5c14ee37e69966023bb7c461345937dc7be58f30103033127c7a2a48b7ede764736f6c63430006050033",
  "immutableReferences": {},
  "source": "pragma solidity ^0.6.0;\n\nimport '../Governance/GX_GovernanceAdmin.sol';\n\n/// @author Solidity Services\n/// @title Galaxis: Registered DEX reference\n/// @notice Simple helper functionalities for exchange reference\ncontract GX_DEXManagerReference is GX_GovernanceAdmin {\n\n    /// @notice reference of the DEX Manager\n    address public DEXManagerReference;\n\n    /// EVENTS: user facing events\n    /// @notice event for setting the exchange reference\n    event GX_DEXManagerSet(address indexed DEXManagerAddress);\n\n    /// CONSTRUCTOR\n    \n    /// @notice functionality for known parites\n    /// @dev ...\n    constructor() public {\n    }\n\n    /// TRANSACTIONS\n\n    /// @notice setting the exchange reference\n    /// @dev ...\n    /// @param _DEXManagerAddress new reference\n    function setDEXManager(address _DEXManagerAddress) public onlyAdmin {\n        DEXManagerReference = _DEXManagerAddress;\n        emit GX_DEXManagerSet(_DEXManagerAddress);\n    }\n}",
  "sourcePath": "/home/dsz/git/galaxistest/galaxis/contracts/Composition/GX_DEXManagerReference.sol",
  "compiler": {
    "name": "solc",
    "version": "0.6.5+commit.f956cc89.Emscripten.clang"
  },
  "schemaVersion": "3.2.2-next.0",
  "updatedAt": "2020-08-13T15:10:44.426Z",
  "devdoc": {
    "author": "Solidity Services",
    "methods": {
      "addAdmin(address)": {
        "details": "...",
        "params": {
          "_newAdmin": "new admin of the contract"
        }
      },
      "constructor": {
        "details": "..."
      },
      "isAdmin(address)": {
        "details": "...",
        "params": {
          "_addressToCheck": "the address to be checked"
        }
      },
      "removeAdmin(address)": {
        "details": "...",
        "params": {
          "_adminToDelete": "removing the admin from the contract"
        }
      },
      "setDEXManager(address)": {
        "details": "...",
        "params": {
          "_DEXManagerAddress": "new reference"
        }
      }
    },
    "title": "Galaxis: Registered DEX reference"
  },
  "userdoc": {
    "methods": {
      "addAdmin(address)": {
        "notice": "TRANSACTIONSadding a new admin to the contract"
      },
      "constructor": "CONSTRUCTORfunctionality for known parites",
      "isAdmin(address)": {
        "notice": "VIEWSchecking if the address is admin"
      },
      "removeAdmin(address)": {
        "notice": "removing an admin from the contract"
      },
      "setDEXManager(address)": {
        "notice": "TRANSACTIONSsetting the exchange reference"
      }
    },
    "notice": "Simple helper functionalities for exchange reference"
  }
}