{
  "contractName": "GX_DEXManagerBase",
  "abi": [
    {
      "anonymous": false,
      "inputs": [
        {
          "indexed": true,
          "internalType": "address",
          "name": "adminAddress",
          "type": "address"
        }
      ],
      "name": "GX_AdminAdded",
      "type": "event"
    },
    {
      "anonymous": false,
      "inputs": [
        {
          "indexed": true,
          "internalType": "address",
          "name": "adminAddress",
          "type": "address"
        }
      ],
      "name": "GX_AdminRemoved",
      "type": "event"
    },
    {
      "anonymous": false,
      "inputs": [
        {
          "indexed": true,
          "internalType": "uint8",
          "name": "num",
          "type": "uint8"
        },
        {
          "indexed": false,
          "internalType": "enum GX_DEXRegistry.DEXType",
          "name": "dexType",
          "type": "uint8"
        },
        {
          "indexed": true,
          "internalType": "address",
          "name": "dexAddress",
          "type": "address"
        }
      ],
      "name": "GX_DEXAdded",
      "type": "event"
    },
    {
      "anonymous": false,
      "inputs": [
        {
          "indexed": true,
          "internalType": "uint8",
          "name": "num",
          "type": "uint8"
        }
      ],
      "name": "GX_DEXRemoved",
      "type": "event"
    },
    {
      "anonymous": false,
      "inputs": [
        {
          "indexed": true,
          "internalType": "address",
          "name": "partyAddress",
          "type": "address"
        }
      ],
      "name": "GX_PartyAdded",
      "type": "event"
    },
    {
      "anonymous": false,
      "inputs": [
        {
          "indexed": true,
          "internalType": "address",
          "name": "partyAddress",
          "type": "address"
        }
      ],
      "name": "GX_PartyRemoved",
      "type": "event"
    },
    {
      "anonymous": false,
      "inputs": [
        {
          "indexed": false,
          "internalType": "uint8",
          "name": "_dex",
          "type": "uint8"
        },
        {
          "indexed": false,
          "internalType": "address",
          "name": "_tknOffer",
          "type": "address"
        },
        {
          "indexed": false,
          "internalType": "address",
          "name": "_tknGet",
          "type": "address"
        },
        {
          "indexed": false,
          "internalType": "uint256",
          "name": "_amount",
          "type": "uint256"
        },
        {
          "indexed": false,
          "internalType": "uint256",
          "name": "_rate",
          "type": "uint256"
        }
      ],
      "name": "OrderPlaced",
      "type": "event"
    },
    {
      "inputs": [
        {
          "internalType": "address",
          "name": "_newAdmin",
          "type": "address"
        }
      ],
      "name": "addAdmin",
      "outputs": [],
      "stateMutability": "nonpayable",
      "type": "function"
    },
    {
      "inputs": [
        {
          "internalType": "uint8",
          "name": "_num",
          "type": "uint8"
        },
        {
          "internalType": "enum GX_DEXRegistry.DEXType",
          "name": "_dexType",
          "type": "uint8"
        },
        {
          "internalType": "address",
          "name": "_dexAddress",
          "type": "address"
        }
      ],
      "name": "addDEX",
      "outputs": [],
      "stateMutability": "nonpayable",
      "type": "function"
    },
    {
      "inputs": [
        {
          "internalType": "address",
          "name": "_newParty",
          "type": "address"
        }
      ],
      "name": "addParty",
      "outputs": [],
      "stateMutability": "nonpayable",
      "type": "function"
    },
    {
      "inputs": [
        {
          "internalType": "uint8",
          "name": "_nrToCheck",
          "type": "uint8"
        }
      ],
      "name": "getDEXInfo",
      "outputs": [
        {
          "internalType": "enum GX_DEXRegistry.DEXType",
          "name": "",
          "type": "uint8"
        },
        {
          "internalType": "address",
          "name": "",
          "type": "address"
        }
      ],
      "stateMutability": "view",
      "type": "function",
      "constant": true
    },
    {
      "inputs": [
        {
          "internalType": "address",
          "name": "_addressToCheck",
          "type": "address"
        }
      ],
      "name": "isAdmin",
      "outputs": [
        {
          "internalType": "bool",
          "name": "",
          "type": "bool"
        }
      ],
      "stateMutability": "view",
      "type": "function",
      "constant": true
    },
    {
      "inputs": [
        {
          "internalType": "address",
          "name": "_addressToCheck",
          "type": "address"
        }
      ],
      "name": "isParty",
      "outputs": [
        {
          "internalType": "bool",
          "name": "",
          "type": "bool"
        }
      ],
      "stateMutability": "view",
      "type": "function",
      "constant": true
    },
    {
      "inputs": [
        {
          "internalType": "address",
          "name": "_adminToDelete",
          "type": "address"
        }
      ],
      "name": "removeAdmin",
      "outputs": [],
      "stateMutability": "nonpayable",
      "type": "function"
    },
    {
      "inputs": [
        {
          "internalType": "uint8",
          "name": "_num",
          "type": "uint8"
        }
      ],
      "name": "removeDEX",
      "outputs": [],
      "stateMutability": "nonpayable",
      "type": "function"
    },
    {
      "inputs": [
        {
          "internalType": "address",
          "name": "_partyToDelete",
          "type": "address"
        }
      ],
      "name": "removeParty",
      "outputs": [],
      "stateMutability": "nonpayable",
      "type": "function"
    },
    {
      "inputs": [
        {
          "internalType": "uint8",
          "name": "_dex",
          "type": "uint8"
        },
        {
          "internalType": "address",
          "name": "_tknOffer",
          "type": "address"
        },
        {
          "internalType": "address",
          "name": "_tknGet",
          "type": "address"
        },
        {
          "internalType": "uint256",
          "name": "_amount",
          "type": "uint256"
        },
        {
          "internalType": "uint256",
          "name": "_rate",
          "type": "uint256"
        }
      ],
      "name": "placeOrder",
      "outputs": [],
      "stateMutability": "nonpayable",
      "type": "function"
    },
    {
      "inputs": [
        {
          "internalType": "uint256",
          "name": "_orderId",
          "type": "uint256"
        }
      ],
      "name": "cancelOrder",
      "outputs": [],
      "stateMutability": "nonpayable",
      "type": "function"
    },
    {
      "inputs": [
        {
          "internalType": "uint8",
          "name": "_dex",
          "type": "uint8"
        },
        {
          "internalType": "address",
          "name": "_tknOffer",
          "type": "address"
        },
        {
          "internalType": "address",
          "name": "_tknGet",
          "type": "address"
        },
        {
          "internalType": "uint256",
          "name": "_amount",
          "type": "uint256"
        }
      ],
      "name": "getChangeRate",
      "outputs": [
        {
          "internalType": "uint256",
          "name": "",
          "type": "uint256"
        }
      ],
      "stateMutability": "nonpayable",
      "type": "function"
    }
  ],
  "bytecode": "0x60806040908152336000908152602081905220805460ff191660011790556108958061002c6000396000f3fe608060405234801561001057600080fd5b50600436106100b45760003560e01c8063704802751161007157806370480275146101cf578063775fec62146101f55780639b5f292e1461023a5780639f19b1cb1461028d578063c1a42243146102c7578063fc78b2e8146102ed576100b4565b80631785f53c146100b957806318547152146100e157806324d7806c14610101578063288916eb1461013b578063373c3e761461018c578063514fcac7146101b2575b600080fd5b6100df600480360360208110156100cf57600080fd5b50356001600160a01b0316610313565b005b6100df600480360360208110156100f757600080fd5b503560ff166103af565b6101276004803603602081101561011757600080fd5b50356001600160a01b031661044b565b604080519115158252519081900360200190f35b61017a6004803603608081101561015157600080fd5b5060ff813516906001600160a01b03602082013581169160408101359091169060600135610469565b60408051918252519081900360200190f35b6100df600480360360208110156101a257600080fd5b50356001600160a01b0316610473565b6100df600480360360208110156101c857600080fd5b5035610515565b6100df600480360360208110156101e557600080fd5b50356001600160a01b0316610518565b6100df600480360360a081101561020b57600080fd5b5060ff813516906001600160a01b036020820135811691604081013590911690606081013590608001356105b7565b61025a6004803603602081101561025057600080fd5b503560ff16610618565b6040518083600281111561026a57fe5b60ff1681526001600160a01b039092166020830152506040805191829003019150f35b6100df600480360360608110156102a357600080fd5b50803560ff90811691602081013590911690604001356001600160a01b0316610642565b6100df600480360360208110156102dd57600080fd5b50356001600160a01b0316610771565b6101276004803603602081101561030357600080fd5b50356001600160a01b031661080d565b3360009081526020819052604090205460ff1615156001146103665760405162461bcd60e51b815260040180806020018281038252603481526020018061082c6034913960400191505060405180910390fd5b6001600160a01b038116600081815260208190526040808220805460ff19169055517f6a35edfb19dff31b968882a3f9eeef54e0ca71bb9af2db6e085f409715d3c5479190a250565b3360009081526020819052604090205460ff1615156001146104025760405162461bcd60e51b815260040180806020018281038252603481526020018061082c6034913960400191505060405180910390fd5b60ff811660008181526002602052604080822080546001600160a81b0319169055517fabb8cac8af599331750e1284d535d9920cec7b858a03251e27f5208591a9870e9190a250565b6001600160a01b031660009081526020819052604090205460ff1690565b6000949350505050565b3360009081526020819052604090205460ff1615156001146104c65760405162461bcd60e51b815260040180806020018281038252603481526020018061082c6034913960400191505060405180910390fd5b6001600160a01b0381166000818152600160208190526040808320805460ff1916909217909155517fa939b18300f53158576c00561d9810d163a1fd7971e0beb2deb3da9d6d6c5ae19190a250565b50565b3360009081526020819052604090205460ff16151560011461056b5760405162461bcd60e51b815260040180806020018281038252603481526020018061082c6034913960400191505060405180910390fd5b6001600160a01b038116600081815260208190526040808220805460ff19166001179055517fd7f0afc2242fe9a5f45af6dea542902933e36c643299a53b1057b13cf8bcad809190a250565b6040805160ff871681526001600160a01b038087166020830152851681830152606081018490526080810183905290517fa86848877ec87d996e71aa1c410df4a53ed959b6d90c4d85dae5ecb95b47fca89181900360a00190a15050505050565b60ff908116600090815260026020526040902054908116916101009091046001600160a01b031690565b3360009081526020819052604090205460ff1615156001146106955760405162461bcd60e51b815260040180806020018281038252603481526020018061082c6034913960400191505060405180910390fd5b60405180604001604052808360028111156106ac57fe5b81526001600160a01b03831660209182015260ff85166000908152600291829052604090208251815491929091839160ff199091169060019084908111156106f057fe5b0217905550602091909101518154610100600160a81b0319166101006001600160a01b0392831602179091556040519082169060ff8516907fb2adc6c11d1b970bf9414ad19866ff1fd17e3d64461e5e63265e6994264f72499085908082600281111561075957fe5b60ff16815260200191505060405180910390a3505050565b3360009081526020819052604090205460ff1615156001146107c45760405162461bcd60e51b815260040180806020018281038252603481526020018061082c6034913960400191505060405180910390fd5b6001600160a01b038116600081815260016020526040808220805460ff19169055517fdbe139b9dcaabbb09bc4b530bfb2f8d390bd0ac7cd6e9c87a80468cc8ca709df9190a250565b6001600160a01b031660009081526001602052604090205460ff169056fe47616c617869733a204163636573732064656e6965643a206e6f7420616e2061646d696e206f662074686520636f6e7472616374a2646970667358221220ed4466b03328fd56f694b2c48194bc86014362005ac70acf08adfa923e1fda1964736f6c63430006050033",
  "immutableReferences": {},
  "source": "pragma solidity ^0.6.0;\n\nimport '../Governance/GX_GovernanceAdmin.sol';\nimport '../Composition/GX_TrustedParties.sol';\nimport '../Composition/GX_DEXRegistry.sol';\n\nimport '../FundManager/GX_GeneralOrderInterface.sol';\n\n/// @author Solidity Services\n/// @title Galaxis: DEX manager base\n/// @notice Implementing an empty DEX Manager for hierarchy and tests\ncontract GX_DEXManagerBase is GX_GeneralOrderInterface, GX_TrustedParties, GX_DEXRegistry {\n\n    /// EVENTS\n    /// @notice indicating that the order is placed on the given DEX\n    event OrderPlaced(uint8 _dex, address _tknOffer, address _tknGet, uint _amount, uint _rate);\n\n\n    /// @notice placing order to an exchange\n    /// @dev ...\n    /// @param _dex dex exchange or adapter number\n    /// @param _tknOffer token to offer\n    /// @param _tknGet token to get\n    /// @param _amount amount to exchange\n    /// @param _rate rate for the expected exchnage\n    function placeOrder(uint8 _dex, address _tknOffer, address _tknGet, uint _amount, uint _rate)\n        public override virtual {\n\n        // empty function for test purposes\n        \n        emit OrderPlaced(_dex,_tknOffer,_tknGet,_amount,_rate);\n        \n        }\n    \n    /// @notice placing order to an exchange\n    /// @dev ...\n    /// @param _orderId cancelling the order id\n    function cancelOrder(uint256 _orderId) public override virtual {\n\n            // empty function for test purposes\n\n    }\n\n    /// @notice getting change rate for a given token change on an exchange\n    /// @dev ...\n    /// @param _dex dex number\n    /// @param _tknOffer token to offer\n    /// @param _tknGet token to get\n    /// @param _amount amount to echange\n    function getChangeRate(uint8 _dex, address _tknOffer, address _tknGet, uint _amount) public virtual returns (uint){\n\n        // empty function at this stage\n        return 0;\n    }\n\n\n}",
  "sourcePath": "/home/dsz/git/galaxistest/galaxis/contracts/DEXManager/GX_DEXManagerBase.sol",
  "compiler": {
    "name": "solc",
    "version": "0.6.5+commit.f956cc89.Emscripten.clang"
  },
  "schemaVersion": "3.2.2-next.0",
  "updatedAt": "2020-08-13T15:10:49.120Z",
  "networkType": "ethereum",
  "devdoc": {
    "author": "Solidity Services",
    "methods": {
      "addAdmin(address)": {
        "details": "...",
        "params": {
          "_newAdmin": "new admin of the contract"
        }
      },
      "addDEX(uint8,uint8,address)": {
        "details": "...",
        "params": {
          "_dexAddress": "address of the dex or dex adapter",
          "_dexType": "typer of the dex",
          "_num": "name and number of the exchange"
        }
      },
      "addParty(address)": {
        "details": "...",
        "params": {
          "_newParty": "new party of the contract"
        }
      },
      "cancelOrder(uint256)": {
        "details": "...",
        "params": {
          "_orderId": "cancelling the order id"
        }
      },
      "getChangeRate(uint8,address,address,uint256)": {
        "details": "...",
        "params": {
          "_amount": "amount to echange",
          "_dex": "dex number",
          "_tknGet": "token to get",
          "_tknOffer": "token to offer"
        }
      },
      "getDEXInfo(uint8)": {
        "details": "...",
        "params": {
          "_nrToCheck": "nr to check"
        }
      },
      "isAdmin(address)": {
        "details": "...",
        "params": {
          "_addressToCheck": "the address to be checked"
        }
      },
      "isParty(address)": {
        "details": "...",
        "params": {
          "_addressToCheck": "the address to be checked"
        }
      },
      "placeOrder(uint8,address,address,uint256,uint256)": {
        "details": "...",
        "params": {
          "_amount": "amount to exchange",
          "_dex": "dex exchange or adapter number",
          "_rate": "rate for the expected exchnage",
          "_tknGet": "token to get",
          "_tknOffer": "token to offer"
        }
      },
      "removeAdmin(address)": {
        "details": "...",
        "params": {
          "_adminToDelete": "removing the admin from the contract"
        }
      },
      "removeDEX(uint8)": {
        "details": "...",
        "params": {
          "_num": "name and number of the exchange"
        }
      },
      "removeParty(address)": {
        "details": "...",
        "params": {
          "_partyToDelete": "removing the party from the contract"
        }
      }
    },
    "title": "Galaxis: DEX manager base"
  },
  "userdoc": {
    "methods": {
      "addAdmin(address)": {
        "notice": "TRANSACTIONSadding a new admin to the contract"
      },
      "addDEX(uint8,uint8,address)": {
        "notice": "TRANSACTIONSadding exchange to the known exchanges"
      },
      "addParty(address)": {
        "notice": "TRANSACTIONSadding a new party"
      },
      "cancelOrder(uint256)": {
        "notice": "placing order to an exchange"
      },
      "getChangeRate(uint8,address,address,uint256)": {
        "notice": "getting change rate for a given token change on an exchange"
      },
      "getDEXInfo(uint8)": {
        "notice": "VIEWSchecking the address of the exchange"
      },
      "isAdmin(address)": {
        "notice": "VIEWSchecking if the address is admin"
      },
      "isParty(address)": {
        "notice": "VIEWSchecking if the address is a trusted party"
      },
      "placeOrder(uint8,address,address,uint256,uint256)": {
        "notice": "placing order to an exchange"
      },
      "removeAdmin(address)": {
        "notice": "removing an admin from the contract"
      },
      "removeDEX(uint8)": {
        "notice": "removing exchange or exchange adapter from the known exchanges"
      },
      "removeParty(address)": {
        "notice": "removing a party from the contract"
      }
    },
    "notice": "Implementing an empty DEX Manager for hierarchy and tests"
  }
}