{
  "contractName": "GX_DEXManager",
  "abi": [
    {
      "inputs": [],
      "stateMutability": "nonpayable",
      "type": "constructor"
    },
    {
      "anonymous": false,
      "inputs": [
        {
          "indexed": true,
          "internalType": "address",
          "name": "adminAddress",
          "type": "address"
        }
      ],
      "name": "GX_AdminAdded",
      "type": "event"
    },
    {
      "anonymous": false,
      "inputs": [
        {
          "indexed": true,
          "internalType": "address",
          "name": "adminAddress",
          "type": "address"
        }
      ],
      "name": "GX_AdminRemoved",
      "type": "event"
    },
    {
      "anonymous": false,
      "inputs": [
        {
          "indexed": true,
          "internalType": "uint8",
          "name": "num",
          "type": "uint8"
        },
        {
          "indexed": false,
          "internalType": "enum GX_DEXRegistry.DEXType",
          "name": "dexType",
          "type": "uint8"
        },
        {
          "indexed": true,
          "internalType": "address",
          "name": "dexAddress",
          "type": "address"
        }
      ],
      "name": "GX_DEXAdded",
      "type": "event"
    },
    {
      "anonymous": false,
      "inputs": [
        {
          "indexed": true,
          "internalType": "uint8",
          "name": "num",
          "type": "uint8"
        }
      ],
      "name": "GX_DEXRemoved",
      "type": "event"
    },
    {
      "anonymous": false,
      "inputs": [
        {
          "indexed": true,
          "internalType": "address",
          "name": "partyAddress",
          "type": "address"
        }
      ],
      "name": "GX_PartyAdded",
      "type": "event"
    },
    {
      "anonymous": false,
      "inputs": [
        {
          "indexed": true,
          "internalType": "address",
          "name": "partyAddress",
          "type": "address"
        }
      ],
      "name": "GX_PartyRemoved",
      "type": "event"
    },
    {
      "anonymous": false,
      "inputs": [
        {
          "indexed": false,
          "internalType": "uint8",
          "name": "_dex",
          "type": "uint8"
        },
        {
          "indexed": false,
          "internalType": "address",
          "name": "_tknOffer",
          "type": "address"
        },
        {
          "indexed": false,
          "internalType": "address",
          "name": "_tknGet",
          "type": "address"
        },
        {
          "indexed": false,
          "internalType": "uint256",
          "name": "_amount",
          "type": "uint256"
        },
        {
          "indexed": false,
          "internalType": "uint256",
          "name": "_rate",
          "type": "uint256"
        }
      ],
      "name": "OrderPlaced",
      "type": "event"
    },
    {
      "inputs": [
        {
          "internalType": "address",
          "name": "_newAdmin",
          "type": "address"
        }
      ],
      "name": "addAdmin",
      "outputs": [],
      "stateMutability": "nonpayable",
      "type": "function"
    },
    {
      "inputs": [
        {
          "internalType": "uint8",
          "name": "_num",
          "type": "uint8"
        },
        {
          "internalType": "enum GX_DEXRegistry.DEXType",
          "name": "_dexType",
          "type": "uint8"
        },
        {
          "internalType": "address",
          "name": "_dexAddress",
          "type": "address"
        }
      ],
      "name": "addDEX",
      "outputs": [],
      "stateMutability": "nonpayable",
      "type": "function"
    },
    {
      "inputs": [
        {
          "internalType": "address",
          "name": "_newParty",
          "type": "address"
        }
      ],
      "name": "addParty",
      "outputs": [],
      "stateMutability": "nonpayable",
      "type": "function"
    },
    {
      "inputs": [
        {
          "internalType": "uint256",
          "name": "daiAmount",
          "type": "uint256"
        }
      ],
      "name": "convertEthToDai",
      "outputs": [],
      "stateMutability": "payable",
      "type": "function",
      "payable": true
    },
    {
      "inputs": [
        {
          "internalType": "uint8",
          "name": "_nrToCheck",
          "type": "uint8"
        }
      ],
      "name": "getDEXInfo",
      "outputs": [
        {
          "internalType": "enum GX_DEXRegistry.DEXType",
          "name": "",
          "type": "uint8"
        },
        {
          "internalType": "address",
          "name": "",
          "type": "address"
        }
      ],
      "stateMutability": "view",
      "type": "function",
      "constant": true
    },
    {
      "inputs": [
        {
          "internalType": "address",
          "name": "tokenToSell",
          "type": "address"
        },
        {
          "internalType": "uint256",
          "name": "amountToSell",
          "type": "uint256"
        },
        {
          "internalType": "address",
          "name": "tokenToBuy",
          "type": "address"
        }
      ],
      "name": "getRate",
      "outputs": [
        {
          "internalType": "uint256",
          "name": "",
          "type": "uint256"
        }
      ],
      "stateMutability": "view",
      "type": "function",
      "constant": true
    },
    {
      "inputs": [
        {
          "internalType": "address",
          "name": "_addressToCheck",
          "type": "address"
        }
      ],
      "name": "isAdmin",
      "outputs": [
        {
          "internalType": "bool",
          "name": "",
          "type": "bool"
        }
      ],
      "stateMutability": "view",
      "type": "function",
      "constant": true
    },
    {
      "inputs": [
        {
          "internalType": "address",
          "name": "_addressToCheck",
          "type": "address"
        }
      ],
      "name": "isParty",
      "outputs": [
        {
          "internalType": "bool",
          "name": "",
          "type": "bool"
        }
      ],
      "stateMutability": "view",
      "type": "function",
      "constant": true
    },
    {
      "inputs": [
        {
          "internalType": "address",
          "name": "tokenToSell",
          "type": "address"
        },
        {
          "internalType": "uint256",
          "name": "amountToSell",
          "type": "uint256"
        },
        {
          "internalType": "address",
          "name": "tokenToBuy",
          "type": "address"
        },
        {
          "internalType": "uint256",
          "name": "rate",
          "type": "uint256"
        },
        {
          "internalType": "address",
          "name": "dexAddress",
          "type": "address"
        }
      ],
      "name": "makeOrderKyber",
      "outputs": [],
      "stateMutability": "payable",
      "type": "function",
      "payable": true
    },
    {
      "inputs": [
        {
          "internalType": "address",
          "name": "_adminToDelete",
          "type": "address"
        }
      ],
      "name": "removeAdmin",
      "outputs": [],
      "stateMutability": "nonpayable",
      "type": "function"
    },
    {
      "inputs": [
        {
          "internalType": "uint8",
          "name": "_num",
          "type": "uint8"
        }
      ],
      "name": "removeDEX",
      "outputs": [],
      "stateMutability": "nonpayable",
      "type": "function"
    },
    {
      "inputs": [
        {
          "internalType": "address",
          "name": "_partyToDelete",
          "type": "address"
        }
      ],
      "name": "removeParty",
      "outputs": [],
      "stateMutability": "nonpayable",
      "type": "function"
    },
    {
      "inputs": [
        {
          "internalType": "address",
          "name": "tokenToSell",
          "type": "address"
        },
        {
          "internalType": "uint256",
          "name": "amountToSell",
          "type": "uint256"
        },
        {
          "internalType": "address",
          "name": "tokenToBuy",
          "type": "address"
        },
        {
          "internalType": "address",
          "name": "dexAddress",
          "type": "address"
        }
      ],
      "name": "takeOrderKyber",
      "outputs": [],
      "stateMutability": "payable",
      "type": "function",
      "payable": true
    },
    {
      "inputs": [],
      "name": "uniswapRouter",
      "outputs": [
        {
          "internalType": "contract IUniswapV2Router02",
          "name": "",
          "type": "address"
        }
      ],
      "stateMutability": "view",
      "type": "function",
      "constant": true
    },
    {
      "inputs": [
        {
          "internalType": "uint8",
          "name": "_dex",
          "type": "uint8"
        },
        {
          "internalType": "address",
          "name": "_tknOffer",
          "type": "address"
        },
        {
          "internalType": "address",
          "name": "_tknGet",
          "type": "address"
        },
        {
          "internalType": "uint256",
          "name": "_amount",
          "type": "uint256"
        },
        {
          "internalType": "uint256",
          "name": "_rate",
          "type": "uint256"
        }
      ],
      "name": "placeOrder",
      "outputs": [],
      "stateMutability": "nonpayable",
      "type": "function"
    },
    {
      "inputs": [
        {
          "internalType": "uint256",
          "name": "_orderId",
          "type": "uint256"
        }
      ],
      "name": "cancelOrder",
      "outputs": [],
      "stateMutability": "nonpayable",
      "type": "function"
    },
    {
      "inputs": [
        {
          "internalType": "uint8",
          "name": "_dex",
          "type": "uint8"
        },
        {
          "internalType": "address",
          "name": "_tknOffer",
          "type": "address"
        },
        {
          "internalType": "address",
          "name": "_tknGet",
          "type": "address"
        },
        {
          "internalType": "uint256",
          "name": "_amount",
          "type": "uint256"
        }
      ],
      "name": "getChangeRate",
      "outputs": [
        {
          "internalType": "uint256",
          "name": "",
          "type": "uint256"
        }
      ],
      "stateMutability": "nonpayable",
      "type": "function"
    }
  ],
  "bytecode": "0x6080604052600480546001600160a01b031916734f96fe3b7a6cf9725f59d353f723c1bdb64ca6aa17905534801561003657600080fd5b50336000908152602081905260409020805460ff19166001179055600380546001600160a01b031916737a250d5630b4cf539739df2c5dacb4c659f2488d1790556116d9806100866000396000f3fe6080604052600436106100fe5760003560e01c8063775fec6211610095578063e036104b11610064578063e036104b146103f7578063e8dcd6201461043a578063f965448d14610476578063fc78b2e8146104ba578063ff22723a146104ed576100fe565b8063775fec62146102cb5780639b5f292e1461031d5780639f19b1cb1461037d578063c1a42243146103c4576100fe565b8063373c3e76116100d1578063373c3e761461020a578063514fcac71461023d5780637048027514610267578063735de9f71461029a576100fe565b80631785f53c14610103578063185471521461013857806324d7806c14610165578063288916eb146101ac575b600080fd5b34801561010f57600080fd5b506101366004803603602081101561012657600080fd5b50356001600160a01b031661050a565b005b34801561014457600080fd5b506101366004803603602081101561015b57600080fd5b503560ff166105a6565b34801561017157600080fd5b506101986004803603602081101561018857600080fd5b50356001600160a01b0316610642565b604080519115158252519081900360200190f35b3480156101b857600080fd5b506101f8600480360360808110156101cf57600080fd5b5060ff813516906001600160a01b03602082013581169160408101359091169060600135610660565b60408051918252519081900360200190f35b34801561021657600080fd5b506101366004803603602081101561022d57600080fd5b50356001600160a01b03166107ba565b34801561024957600080fd5b506101366004803603602081101561026057600080fd5b503561085c565b34801561027357600080fd5b506101366004803603602081101561028a57600080fd5b50356001600160a01b031661085f565b3480156102a657600080fd5b506102af6108fe565b604080516001600160a01b039092168252519081900360200190f35b3480156102d757600080fd5b50610136600480360360a08110156102ee57600080fd5b5060ff813516906001600160a01b0360208201358116916040810135909116906060810135906080013561090d565b34801561032957600080fd5b5061034a6004803603602081101561034057600080fd5b503560ff16610a53565b6040518083600281111561035a57fe5b60ff1681526001600160a01b039092166020830152506040805191829003019150f35b34801561038957600080fd5b50610136600480360360608110156103a057600080fd5b50803560ff90811691602081013590911690604001356001600160a01b0316610a7d565b3480156103d057600080fd5b50610136600480360360208110156103e757600080fd5b50356001600160a01b0316610bac565b34801561040357600080fd5b506101f86004803603606081101561041a57600080fd5b506001600160a01b03813581169160208101359160409091013516610c48565b6101366004803603608081101561045057600080fd5b506001600160a01b03813581169160208101359160408201358116916060013516610c51565b610136600480360360a081101561048c57600080fd5b506001600160a01b038135811691602081013591604082013581169160608101359160809091013516610e32565b3480156104c657600080fd5b50610198600480360360208110156104dd57600080fd5b50356001600160a01b0316611011565b6101366004803603602081101561050357600080fd5b503561102f565b3360009081526020819052604090205460ff16151560011461055d5760405162461bcd60e51b81526004018080602001828103825260348152602001806116706034913960400191505060405180910390fd5b6001600160a01b038116600081815260208190526040808220805460ff19169055517f6a35edfb19dff31b968882a3f9eeef54e0ca71bb9af2db6e085f409715d3c5479190a250565b3360009081526020819052604090205460ff1615156001146105f95760405162461bcd60e51b81526004018080602001828103825260348152602001806116706034913960400191505060405180910390fd5b60ff811660008181526002602052604080822080546001600160a81b0319169055517fabb8cac8af599331750e1284d535d9920cec7b858a03251e27f5208591a9870e9190a250565b6001600160a01b031660009081526020819052604090205460ff1690565b60ff841660009081526002602052604081205461010090046001600160a01b03166106cc576040805162461bcd60e51b815260206004820152601760248201527611d85b185e1a5cce8811195e081a5cc81b9bdd081cd95d604a1b604482015290519081900360640190fd5b60ff858116600090815260026020819052604090912054909116818111156106f057fe5b14156106fe575060006107b2565b600060ff8087166000908152600260208190526040909120549091169081111561072457fe5b1415610732575060006107b2565b60ff858116600090815260026020819052604090912054600192169081111561075757fe5b1415610765575060006107b2565b6040805162461bcd60e51b815260206004820152601e60248201527f47616c617869733a20756e6b6f6e776e2065786368616e676520747970650000604482015290519081900360640190fd5b949350505050565b3360009081526020819052604090205460ff16151560011461080d5760405162461bcd60e51b81526004018080602001828103825260348152602001806116706034913960400191505060405180910390fd5b6001600160a01b0381166000818152600160208190526040808320805460ff1916909217909155517fa939b18300f53158576c00561d9810d163a1fd7971e0beb2deb3da9d6d6c5ae19190a250565b50565b3360009081526020819052604090205460ff1615156001146108b25760405162461bcd60e51b81526004018080602001828103825260348152602001806116706034913960400191505060405180910390fd5b6001600160a01b038116600081815260208190526040808220805460ff19166001179055517fd7f0afc2242fe9a5f45af6dea542902933e36c643299a53b1057b13cf8bcad809190a250565b6003546001600160a01b031681565b60ff851660009081526002602052604090205461010090046001600160a01b0316610979576040805162461bcd60e51b815260206004820152601760248201527611d85b185e1a5cce8811195e081a5cc81b9bdd081cd95d604a1b604482015290519081900360640190fd5b60ff8581166000908152600260208190526040909120549091168181111561099d57fe5b14156109b5576109b084848433306111fa565b610a3f565b600060ff808716600090815260026020819052604090912054909116908111156109db57fe5b1415610a135760ff85166000908152600260205260409020546109b090859084908690859061010090046001600160a01b0316610e32565b60ff8581166000908152600260208190526040909120546001921690811115610a3857fe5b1415610765575b610a4c85858585856114a5565b5050505050565b60ff908116600090815260026020526040902054908116916101009091046001600160a01b031690565b3360009081526020819052604090205460ff161515600114610ad05760405162461bcd60e51b81526004018080602001828103825260348152602001806116706034913960400191505060405180910390fd5b6040518060400160405280836002811115610ae757fe5b81526001600160a01b03831660209182015260ff85166000908152600291829052604090208251815491929091839160ff19909116906001908490811115610b2b57fe5b0217905550602091909101518154610100600160a81b0319166101006001600160a01b0392831602179091556040519082169060ff8516907fb2adc6c11d1b970bf9414ad19866ff1fd17e3d64461e5e63265e6994264f724990859080826002811115610b9457fe5b60ff16815260200191505060405180910390a3505050565b3360009081526020819052604090205460ff161515600114610bff5760405162461bcd60e51b81526004018080602001828103825260348152602001806116706034913960400191505060405180910390fd5b6001600160a01b038116600081815260016020526040808220805460ff19169055517fdbe139b9dcaabbb09bc4b530bfb2f8d390bd0ac7cd6e9c87a80468cc8ca709df9190a250565b60009392505050565b6001600160a01b038416610ce55760408051633d15022b60e11b81526001600160a01b03848116600483015260006024830152915191831691637a2a0456918691604480830192602092919082900301818588803b158015610cb257600080fd5b505af1158015610cc6573d6000803e3d6000fd5b50505050506040513d6020811015610cdd57600080fd5b50610e2c9050565b6001600160a01b038216610d8657806001600160a01b0316633bba21dc858560006040518463ffffffff1660e01b815260040180846001600160a01b03166001600160a01b031681526020018381526020018281526020019350505050602060405180830381600087803b158015610d5c57600080fd5b505af1158015610d70573d6000803e3d6000fd5b505050506040513d6020811015610cdd57600080fd5b6040805163cb3c28c760e01b81526001600160a01b03868116600483015260248201869052848116604483015233606483015260006084830181905260a4830181905260c4830181905292519084169263cb3c28c79260e480820193602093909283900390910190829087803b158015610dff57600080fd5b505af1158015610e13573d6000803e3d6000fd5b505050506040513d6020811015610e2957600080fd5b50505b50505050565b6001600160a01b038516610ed357806001600160a01b0316637a2a04568585856040518463ffffffff1660e01b815260040180836001600160a01b03166001600160a01b03168152602001828152602001925050506020604051808303818588803b158015610ea057600080fd5b505af1158015610eb4573d6000803e3d6000fd5b50505050506040513d6020811015610ecb57600080fd5b50610a4c9050565b6001600160a01b038316610f655760408051630eee887760e21b81526001600160a01b0387811660048301526024820187905260448201859052915191831691633bba21dc916064808201926020929091908290030181600087803b158015610f3b57600080fd5b505af1158015610f4f573d6000803e3d6000fd5b505050506040513d6020811015610ecb57600080fd5b6040805163cb3c28c760e01b81526001600160a01b03878116600483015260248201879052858116604483015233606483015260006084830181905260a4830186905260c4830181905292519084169263cb3c28c79260e480820193602093909283900390910190829087803b158015610fde57600080fd5b505af1158015610ff2573d6000803e3d6000fd5b505050506040513d602081101561100857600080fd5b50505050505050565b6001600160a01b031660009081526001602052604090205460ff1690565b600354600f4201906001600160a01b031663fb3bdb41348461104f611506565b30866040518663ffffffff1660e01b81526004018085815260200180602001846001600160a01b03166001600160a01b03168152602001838152602001828103825285818151815260200191508051906020019060200280838360005b838110156110c45781810151838201526020016110ac565b50505050905001955050505050506000604051808303818588803b1580156110eb57600080fd5b505af11580156110ff573d6000803e3d6000fd5b50505050506040513d6000823e601f3d908101601f19168201604052602081101561112957600080fd5b810190808051604051939291908464010000000082111561114957600080fd5b90830190602082018581111561115e57600080fd5b825186602082028301116401000000008211171561117b57600080fd5b82525081516020918201928201910280838360005b838110156111a8578181015183820152602001611190565b50505050919091016040819052339550479450925060009150829050818185875af1925050503d8060008114610a4c576040519150601f19603f3d011682016040523d82523d6000602084013e610a4c565b600354600f4201906001600160a01b03166338ed173985600061121d8a8a6115ef565b87866040518663ffffffff1660e01b81526004018086815260200185815260200180602001846001600160a01b03166001600160a01b03168152602001838152602001828103825285818151815260200191508051906020019060200280838360005b83811015611298578181015183820152602001611280565b505050509050019650505050505050600060405180830381600087803b1580156112c157600080fd5b505af11580156112d5573d6000803e3d6000fd5b505050506040513d6000823e601f3d908101601f1916820160405260208110156112fe57600080fd5b810190808051604051939291908464010000000082111561131e57600080fd5b90830190602082018581111561133357600080fd5b825186602082028301116401000000008211171561135057600080fd5b82525081516020918201928201910280838360005b8381101561137d578181015183820152602001611365565b50505050919091016040818152636eb1769f60e11b82526001600160a01b038a81166004840152898116602484015290518d975060009650908716945063dd62ed3e935060448083019350602092829003018186803b1580156113df57600080fd5b505afa1580156113f3573d6000803e3d6000fd5b505050506040513d602081101561140957600080fd5b50519050801561149b57604080516323b872dd60e01b81526001600160a01b0386811660048301528781166024830152604482018490529151918416916323b872dd916064808201926020929091908290030181600087803b15801561146e57600080fd5b505af1158015611482573d6000803e3d6000fd5b505050506040513d602081101561149857600080fd5b50505b5050505050505050565b6040805160ff871681526001600160a01b038087166020830152851681830152606081018490526080810183905290517fa86848877ec87d996e71aa1c410df4a53ed959b6d90c4d85dae5ecb95b47fca89181900360a00190a15050505050565b6040805160028082526060808301845292839291906020830190803683375050600354604080516315ab88c960e31b815290519394506001600160a01b039091169263ad5c464892506004808301926020929190829003018186803b15801561156e57600080fd5b505afa158015611582573d6000803e3d6000fd5b505050506040513d602081101561159857600080fd5b5051815182906000906115a757fe5b6001600160a01b0392831660209182029290920101526004548251911690829060019081106115d257fe5b6001600160a01b0390921660209283029190910190910152905090565b604080516002808252606080830184529283929190602083019080368337019050509050838160008151811061162157fe5b60200260200101906001600160a01b031690816001600160a01b031681525050828160018151811061164f57fe5b6001600160a01b039092166020928302919091019091015290509291505056fe47616c617869733a204163636573732064656e6965643a206e6f7420616e2061646d696e206f662074686520636f6e7472616374a26469706673582212205a8c3c7c5fb853192cb74deddbb049fa5162e3227e717e79cb6d76c3ae9d8a0264736f6c63430006050033",
  "immutableReferences": {},
  "source": "pragma solidity ^0.6.0;\n\nimport './GX_DEXManagerBase.sol';\nimport '../Composition/GX_TrustedParties.sol';\nimport '../Composition/GX_DEXRegistry.sol';\n\nimport '../FundManager/GX_GeneralOrderInterface.sol';\n\nimport '../DexAdapters/GX_UniswapAdapter.sol';\nimport '../DexAdapters/GX_ZeroXAdapter.sol';\nimport '../DexAdapters/GX_KyberAdapter.sol';\n\nimport \"@openzeppelin/contracts/token/ERC20/IERC20.sol\";\n\n/// @author Solidity Services\n/// @title Galaxis: DEX manager\n/// @notice Services for the decentralized exchanges\ncontract GX_DEXManager is GX_DEXManagerBase, GX_UniswapAdapter, GX_ZeroXAdapter, GX_KyberAdapter {\n\n    /// STATE VARIABLES\n\n    /// CONSTRUCTOR\n    constructor() public {\n    }\n\n    /// MODIFIERS\n\n    /// TRANSACTIONS\n\n    /// @notice placing order to an exchange\n    /// @dev ...\n    /// @param _dex dex exchange or adapter number\n    /// @param _tknOffer token to offer\n    /// @param _tknGet token to get\n    /// @param _amount amount to exchange\n    /// @param _rate expected rate of the exchange\n    function placeOrder(uint8 _dex, address _tknOffer, address _tknGet, uint _amount, uint _rate)\n        public override {\n\n        require(dexs[_dex].dexAddress != address(0), \"Galaxis: Dex is not set\");\n\n        if(dexs[_dex].dexType == DEXType.Uniswap) {\n\n             swapTokensUniswap(_tknOffer, _tknGet, _amount, msg.sender, address(this));\n\n        }\n        else if (dexs[_dex].dexType == DEXType.Kyber) {\n\n            makeOrderKyber(_tknOffer, _amount, _tknGet, _rate, dexs[_dex].dexAddress);\n\n        }\n        else if (dexs[_dex].dexType == DEXType.ZeroX) {\n\n        } else {\n            revert(\"Galaxis: unkonwn exchange type\");\n        } \n\n        // calling super for emitting the event\n        super.placeOrder(_dex, _tknOffer, _tknGet, _amount, _rate);\n    }\n\n    /// @notice placing order to an exchange\n    /// @dev ...\n    /// @param _orderId cancelling the order id\n    function cancelOrder(uint256 _orderId) public override {\n\n    }\n\n        /// @notice getting change rate for a given token change on an exchange\n    /// @dev ...\n    /// @param _dex dex number\n    /// @param _tknOffer token to offer\n    /// @param _tknGet token to get\n    /// @param _amount amount to echange\n    function getChangeRate(uint8 _dex, address _tknOffer, address _tknGet, uint _amount) public override virtual returns (uint){\n\n        require(dexs[_dex].dexAddress != address(0), \"Galaxis: Dex is not set\");\n\n        if(dexs[_dex].dexType == DEXType.Uniswap) {\n\n            return 0;\n        }\n        else if (dexs[_dex].dexType == DEXType.Kyber) {\n\n            return 0;\n        }\n        else if (dexs[_dex].dexType == DEXType.ZeroX) {\n\n            return 0;\n        } else {\n            revert(\"Galaxis: unkonwn exchange type\");\n        } \n    }\n\n\n}\n",
  "sourcePath": "/home/dsz/git/galaxistest/galaxis/contracts/DEXManager/GX_DEXManager.sol",
  "compiler": {
    "name": "solc",
    "version": "0.6.5+commit.f956cc89.Emscripten.clang"
  },
  "schemaVersion": "3.2.2-next.0",
  "updatedAt": "2020-08-13T15:10:47.020Z",
  "networkType": "ethereum",
  "devdoc": {
    "author": "Solidity Services",
    "methods": {
      "addAdmin(address)": {
        "details": "...",
        "params": {
          "_newAdmin": "new admin of the contract"
        }
      },
      "addDEX(uint8,uint8,address)": {
        "details": "...",
        "params": {
          "_dexAddress": "address of the dex or dex adapter",
          "_dexType": "typer of the dex",
          "_num": "name and number of the exchange"
        }
      },
      "addParty(address)": {
        "details": "...",
        "params": {
          "_newParty": "new party of the contract"
        }
      },
      "cancelOrder(uint256)": {
        "details": "...",
        "params": {
          "_orderId": "cancelling the order id"
        }
      },
      "getChangeRate(uint8,address,address,uint256)": {
        "details": "...",
        "params": {
          "_amount": "amount to echange",
          "_dex": "dex number",
          "_tknGet": "token to get",
          "_tknOffer": "token to offer"
        }
      },
      "getDEXInfo(uint8)": {
        "details": "...",
        "params": {
          "_nrToCheck": "nr to check"
        }
      },
      "isAdmin(address)": {
        "details": "...",
        "params": {
          "_addressToCheck": "the address to be checked"
        }
      },
      "isParty(address)": {
        "details": "...",
        "params": {
          "_addressToCheck": "the address to be checked"
        }
      },
      "placeOrder(uint8,address,address,uint256,uint256)": {
        "details": "...",
        "params": {
          "_amount": "amount to exchange",
          "_dex": "dex exchange or adapter number",
          "_rate": "expected rate of the exchange",
          "_tknGet": "token to get",
          "_tknOffer": "token to offer"
        }
      },
      "removeAdmin(address)": {
        "details": "...",
        "params": {
          "_adminToDelete": "removing the admin from the contract"
        }
      },
      "removeDEX(uint8)": {
        "details": "...",
        "params": {
          "_num": "name and number of the exchange"
        }
      },
      "removeParty(address)": {
        "details": "...",
        "params": {
          "_partyToDelete": "removing the party from the contract"
        }
      }
    },
    "title": "Galaxis: DEX manager"
  },
  "userdoc": {
    "methods": {
      "addAdmin(address)": {
        "notice": "TRANSACTIONSadding a new admin to the contract"
      },
      "addDEX(uint8,uint8,address)": {
        "notice": "TRANSACTIONSadding exchange to the known exchanges"
      },
      "addParty(address)": {
        "notice": "TRANSACTIONSadding a new party"
      },
      "cancelOrder(uint256)": {
        "notice": "placing order to an exchange"
      },
      "constructor": "STATE VARIABLES CONSTRUCTOR",
      "getChangeRate(uint8,address,address,uint256)": {
        "notice": "getting change rate for a given token change on an exchange"
      },
      "getDEXInfo(uint8)": {
        "notice": "VIEWSchecking the address of the exchange"
      },
      "isAdmin(address)": {
        "notice": "VIEWSchecking if the address is admin"
      },
      "isParty(address)": {
        "notice": "VIEWSchecking if the address is a trusted party"
      },
      "placeOrder(uint8,address,address,uint256,uint256)": {
        "notice": "MODIFIERS TRANSACTIONSplacing order to an exchange"
      },
      "removeAdmin(address)": {
        "notice": "removing an admin from the contract"
      },
      "removeDEX(uint8)": {
        "notice": "removing exchange or exchange adapter from the known exchanges"
      },
      "removeParty(address)": {
        "notice": "removing a party from the contract"
      }
    },
    "notice": "Services for the decentralized exchanges"
  }
}