{
  "contractName": "GX_FundManager",
  "abi": [
    {
      "inputs": [
        {
          "internalType": "string",
          "name": "_name",
          "type": "string"
        },
        {
          "internalType": "string",
          "name": "_details",
          "type": "string"
        }
      ],
      "stateMutability": "nonpayable",
      "type": "constructor"
    },
    {
      "anonymous": false,
      "inputs": [
        {
          "indexed": true,
          "internalType": "address",
          "name": "adminAddress",
          "type": "address"
        }
      ],
      "name": "GX_AdminAdded",
      "type": "event"
    },
    {
      "anonymous": false,
      "inputs": [
        {
          "indexed": true,
          "internalType": "address",
          "name": "adminAddress",
          "type": "address"
        }
      ],
      "name": "GX_AdminRemoved",
      "type": "event"
    },
    {
      "anonymous": false,
      "inputs": [
        {
          "indexed": true,
          "internalType": "address",
          "name": "DEXManagerAddress",
          "type": "address"
        }
      ],
      "name": "GX_DEXManagerSet",
      "type": "event"
    },
    {
      "anonymous": false,
      "inputs": [
        {
          "indexed": true,
          "internalType": "address",
          "name": "tknAddress",
          "type": "address"
        },
        {
          "indexed": true,
          "internalType": "address",
          "name": "investor",
          "type": "address"
        },
        {
          "indexed": false,
          "internalType": "uint256",
          "name": "amount",
          "type": "uint256"
        }
      ],
      "name": "GX_Deposit",
      "type": "event"
    },
    {
      "anonymous": false,
      "inputs": [
        {
          "indexed": true,
          "internalType": "uint256",
          "name": "withdrawStart",
          "type": "uint256"
        },
        {
          "indexed": false,
          "internalType": "uint256",
          "name": "withdrawEnd",
          "type": "uint256"
        }
      ],
      "name": "GX_FundClosed",
      "type": "event"
    },
    {
      "anonymous": false,
      "inputs": [
        {
          "indexed": true,
          "internalType": "uint256",
          "name": "investStart",
          "type": "uint256"
        },
        {
          "indexed": true,
          "internalType": "uint256",
          "name": "investEnd",
          "type": "uint256"
        },
        {
          "indexed": false,
          "internalType": "uint256",
          "name": "investMin",
          "type": "uint256"
        },
        {
          "indexed": false,
          "internalType": "uint256",
          "name": "investMax",
          "type": "uint256"
        },
        {
          "indexed": true,
          "internalType": "uint256",
          "name": "withdrawStart",
          "type": "uint256"
        },
        {
          "indexed": false,
          "internalType": "uint256",
          "name": "withdrawEnd",
          "type": "uint256"
        },
        {
          "indexed": false,
          "internalType": "uint256",
          "name": "traderMarge",
          "type": "uint256"
        }
      ],
      "name": "GX_FundRulesChanged",
      "type": "event"
    },
    {
      "anonymous": false,
      "inputs": [
        {
          "indexed": true,
          "internalType": "address",
          "name": "investorAddress",
          "type": "address"
        }
      ],
      "name": "GX_InvestorAdded",
      "type": "event"
    },
    {
      "anonymous": false,
      "inputs": [
        {
          "indexed": true,
          "internalType": "address",
          "name": "investorAddress",
          "type": "address"
        }
      ],
      "name": "GX_InvestorRemoved",
      "type": "event"
    },
    {
      "anonymous": false,
      "inputs": [
        {
          "indexed": false,
          "internalType": "bool",
          "name": "isLocked",
          "type": "bool"
        }
      ],
      "name": "GX_LockChanged",
      "type": "event"
    },
    {
      "anonymous": false,
      "inputs": [
        {
          "indexed": true,
          "internalType": "address",
          "name": "sharesAddress",
          "type": "address"
        }
      ],
      "name": "GX_SharesSet",
      "type": "event"
    },
    {
      "anonymous": false,
      "inputs": [
        {
          "indexed": true,
          "internalType": "address",
          "name": "tokenAddress",
          "type": "address"
        }
      ],
      "name": "GX_TokenBlacklisted",
      "type": "event"
    },
    {
      "anonymous": false,
      "inputs": [
        {
          "indexed": true,
          "internalType": "address",
          "name": "tokenAddress",
          "type": "address"
        },
        {
          "indexed": false,
          "internalType": "uint8",
          "name": "_changeRate",
          "type": "uint8"
        }
      ],
      "name": "GX_TokenWhitelisted",
      "type": "event"
    },
    {
      "anonymous": false,
      "inputs": [
        {
          "indexed": true,
          "internalType": "address",
          "name": "tarderAddress",
          "type": "address"
        }
      ],
      "name": "GX_TraderAdded",
      "type": "event"
    },
    {
      "anonymous": false,
      "inputs": [
        {
          "indexed": true,
          "internalType": "address",
          "name": "traderAddress",
          "type": "address"
        }
      ],
      "name": "GX_TraderRemoved",
      "type": "event"
    },
    {
      "anonymous": false,
      "inputs": [
        {
          "indexed": true,
          "internalType": "address",
          "name": "tknAddress",
          "type": "address"
        },
        {
          "indexed": true,
          "internalType": "address",
          "name": "to",
          "type": "address"
        },
        {
          "indexed": false,
          "internalType": "uint256",
          "name": "amount",
          "type": "uint256"
        }
      ],
      "name": "GX_Withdraw",
      "type": "event"
    },
    {
      "stateMutability": "nonpayable",
      "type": "fallback"
    },
    {
      "inputs": [],
      "name": "DEXManagerReference",
      "outputs": [
        {
          "internalType": "address",
          "name": "",
          "type": "address"
        }
      ],
      "stateMutability": "view",
      "type": "function",
      "constant": true
    },
    {
      "inputs": [],
      "name": "SharesReference",
      "outputs": [
        {
          "internalType": "address",
          "name": "",
          "type": "address"
        }
      ],
      "stateMutability": "view",
      "type": "function",
      "constant": true
    },
    {
      "inputs": [
        {
          "internalType": "address",
          "name": "_newAdmin",
          "type": "address"
        }
      ],
      "name": "addAdmin",
      "outputs": [],
      "stateMutability": "nonpayable",
      "type": "function"
    },
    {
      "inputs": [
        {
          "internalType": "address",
          "name": "_newInvestor",
          "type": "address"
        }
      ],
      "name": "addInvestor",
      "outputs": [],
      "stateMutability": "nonpayable",
      "type": "function"
    },
    {
      "inputs": [
        {
          "internalType": "address",
          "name": "_newTrader",
          "type": "address"
        }
      ],
      "name": "addTrader",
      "outputs": [],
      "stateMutability": "nonpayable",
      "type": "function"
    },
    {
      "inputs": [
        {
          "internalType": "address",
          "name": "_tokenAddress",
          "type": "address"
        }
      ],
      "name": "blacklistToken",
      "outputs": [],
      "stateMutability": "nonpayable",
      "type": "function"
    },
    {
      "inputs": [
        {
          "internalType": "uint256",
          "name": "_investStart",
          "type": "uint256"
        },
        {
          "internalType": "uint256",
          "name": "_investEnd",
          "type": "uint256"
        },
        {
          "internalType": "uint256",
          "name": "_investMin",
          "type": "uint256"
        },
        {
          "internalType": "uint256",
          "name": "_investMax",
          "type": "uint256"
        },
        {
          "internalType": "uint256",
          "name": "_withdrawStart",
          "type": "uint256"
        },
        {
          "internalType": "uint256",
          "name": "_withdrawEnd",
          "type": "uint256"
        },
        {
          "internalType": "uint256",
          "name": "_traderMarge",
          "type": "uint256"
        }
      ],
      "name": "changeRules",
      "outputs": [],
      "stateMutability": "nonpayable",
      "type": "function"
    },
    {
      "inputs": [
        {
          "internalType": "uint256[]",
          "name": "_rules",
          "type": "uint256[]"
        }
      ],
      "name": "changeRulesArray",
      "outputs": [],
      "stateMutability": "nonpayable",
      "type": "function"
    },
    {
      "inputs": [
        {
          "internalType": "uint256",
          "name": "_withdrawEnd",
          "type": "uint256"
        }
      ],
      "name": "closeFund",
      "outputs": [],
      "stateMutability": "nonpayable",
      "type": "function"
    },
    {
      "inputs": [],
      "name": "details",
      "outputs": [
        {
          "internalType": "string",
          "name": "",
          "type": "string"
        }
      ],
      "stateMutability": "view",
      "type": "function",
      "constant": true
    },
    {
      "inputs": [],
      "name": "getBalanceEthTreasury",
      "outputs": [
        {
          "internalType": "uint256",
          "name": "",
          "type": "uint256"
        }
      ],
      "stateMutability": "view",
      "type": "function",
      "constant": true
    },
    {
      "inputs": [
        {
          "internalType": "address",
          "name": "_tknAddress",
          "type": "address"
        }
      ],
      "name": "getBalanceTokenTreasury",
      "outputs": [
        {
          "internalType": "uint256",
          "name": "",
          "type": "uint256"
        }
      ],
      "stateMutability": "view",
      "type": "function",
      "constant": true
    },
    {
      "inputs": [
        {
          "internalType": "address",
          "name": "_tokenAddress",
          "type": "address"
        }
      ],
      "name": "getChangeRate",
      "outputs": [
        {
          "internalType": "uint8",
          "name": "",
          "type": "uint8"
        }
      ],
      "stateMutability": "view",
      "type": "function",
      "constant": true
    },
    {
      "inputs": [],
      "name": "investEnd",
      "outputs": [
        {
          "internalType": "uint256",
          "name": "",
          "type": "uint256"
        }
      ],
      "stateMutability": "view",
      "type": "function",
      "constant": true
    },
    {
      "inputs": [],
      "name": "investMax",
      "outputs": [
        {
          "internalType": "uint256",
          "name": "",
          "type": "uint256"
        }
      ],
      "stateMutability": "view",
      "type": "function",
      "constant": true
    },
    {
      "inputs": [],
      "name": "investMin",
      "outputs": [
        {
          "internalType": "uint256",
          "name": "",
          "type": "uint256"
        }
      ],
      "stateMutability": "view",
      "type": "function",
      "constant": true
    },
    {
      "inputs": [],
      "name": "investStart",
      "outputs": [
        {
          "internalType": "uint256",
          "name": "",
          "type": "uint256"
        }
      ],
      "stateMutability": "view",
      "type": "function",
      "constant": true
    },
    {
      "inputs": [
        {
          "internalType": "address",
          "name": "_addressToCheck",
          "type": "address"
        }
      ],
      "name": "isAdmin",
      "outputs": [
        {
          "internalType": "bool",
          "name": "",
          "type": "bool"
        }
      ],
      "stateMutability": "view",
      "type": "function",
      "constant": true
    },
    {
      "inputs": [
        {
          "internalType": "address",
          "name": "_tknDeposit",
          "type": "address"
        },
        {
          "internalType": "uint256",
          "name": "_amount",
          "type": "uint256"
        }
      ],
      "name": "isAllowedDeposit",
      "outputs": [
        {
          "internalType": "bool",
          "name": "",
          "type": "bool"
        }
      ],
      "stateMutability": "view",
      "type": "function",
      "constant": true
    },
    {
      "inputs": [],
      "name": "isAllowedPlaceOrder",
      "outputs": [
        {
          "internalType": "bool",
          "name": "",
          "type": "bool"
        }
      ],
      "stateMutability": "view",
      "type": "function",
      "constant": true
    },
    {
      "inputs": [
        {
          "internalType": "address",
          "name": "_tknDeposit",
          "type": "address"
        },
        {
          "internalType": "uint256",
          "name": "_amount",
          "type": "uint256"
        }
      ],
      "name": "isAllowedWithdraw",
      "outputs": [
        {
          "internalType": "bool",
          "name": "",
          "type": "bool"
        }
      ],
      "stateMutability": "view",
      "type": "function",
      "constant": true
    },
    {
      "inputs": [
        {
          "internalType": "address",
          "name": "_addressToCheck",
          "type": "address"
        }
      ],
      "name": "isInvestor",
      "outputs": [
        {
          "internalType": "bool",
          "name": "",
          "type": "bool"
        }
      ],
      "stateMutability": "view",
      "type": "function",
      "constant": true
    },
    {
      "inputs": [],
      "name": "isLocked",
      "outputs": [
        {
          "internalType": "bool",
          "name": "",
          "type": "bool"
        }
      ],
      "stateMutability": "view",
      "type": "function",
      "constant": true
    },
    {
      "inputs": [
        {
          "internalType": "address",
          "name": "_addressToCheck",
          "type": "address"
        }
      ],
      "name": "isTrader",
      "outputs": [
        {
          "internalType": "bool",
          "name": "",
          "type": "bool"
        }
      ],
      "stateMutability": "view",
      "type": "function",
      "constant": true
    },
    {
      "inputs": [
        {
          "internalType": "address",
          "name": "_tokenAddress",
          "type": "address"
        }
      ],
      "name": "isWhitelisted",
      "outputs": [
        {
          "internalType": "bool",
          "name": "",
          "type": "bool"
        }
      ],
      "stateMutability": "view",
      "type": "function",
      "constant": true
    },
    {
      "inputs": [],
      "name": "name",
      "outputs": [
        {
          "internalType": "string",
          "name": "",
          "type": "string"
        }
      ],
      "stateMutability": "view",
      "type": "function",
      "constant": true
    },
    {
      "inputs": [
        {
          "internalType": "address",
          "name": "_adminToDelete",
          "type": "address"
        }
      ],
      "name": "removeAdmin",
      "outputs": [],
      "stateMutability": "nonpayable",
      "type": "function"
    },
    {
      "inputs": [
        {
          "internalType": "address",
          "name": "_investorToDelete",
          "type": "address"
        }
      ],
      "name": "removeInvestor",
      "outputs": [],
      "stateMutability": "nonpayable",
      "type": "function"
    },
    {
      "inputs": [
        {
          "internalType": "address",
          "name": "_traderToDelete",
          "type": "address"
        }
      ],
      "name": "removeTrader",
      "outputs": [],
      "stateMutability": "nonpayable",
      "type": "function"
    },
    {
      "inputs": [
        {
          "internalType": "address",
          "name": "_DEXManagerAddress",
          "type": "address"
        }
      ],
      "name": "setDEXManager",
      "outputs": [],
      "stateMutability": "nonpayable",
      "type": "function"
    },
    {
      "inputs": [
        {
          "internalType": "bool",
          "name": "_newLockValue",
          "type": "bool"
        }
      ],
      "name": "setLock",
      "outputs": [],
      "stateMutability": "nonpayable",
      "type": "function"
    },
    {
      "inputs": [
        {
          "internalType": "address",
          "name": "_SharesAddress",
          "type": "address"
        }
      ],
      "name": "setShares",
      "outputs": [],
      "stateMutability": "nonpayable",
      "type": "function"
    },
    {
      "inputs": [],
      "name": "traderMarge",
      "outputs": [
        {
          "internalType": "uint256",
          "name": "",
          "type": "uint256"
        }
      ],
      "stateMutability": "view",
      "type": "function",
      "constant": true
    },
    {
      "inputs": [
        {
          "internalType": "address",
          "name": "_tokenAddress",
          "type": "address"
        },
        {
          "internalType": "uint8",
          "name": "_changeRate",
          "type": "uint8"
        }
      ],
      "name": "whitelistToken",
      "outputs": [],
      "stateMutability": "nonpayable",
      "type": "function"
    },
    {
      "inputs": [],
      "name": "withdrawEnd",
      "outputs": [
        {
          "internalType": "uint256",
          "name": "",
          "type": "uint256"
        }
      ],
      "stateMutability": "view",
      "type": "function",
      "constant": true
    },
    {
      "inputs": [],
      "name": "withdrawStart",
      "outputs": [
        {
          "internalType": "uint256",
          "name": "",
          "type": "uint256"
        }
      ],
      "stateMutability": "view",
      "type": "function",
      "constant": true
    },
    {
      "inputs": [
        {
          "internalType": "address",
          "name": "_tknAddress",
          "type": "address"
        },
        {
          "internalType": "address",
          "name": "_depositorAccount",
          "type": "address"
        },
        {
          "internalType": "uint256",
          "name": "_amount",
          "type": "uint256"
        }
      ],
      "name": "deposit",
      "outputs": [],
      "stateMutability": "nonpayable",
      "type": "function"
    },
    {
      "inputs": [
        {
          "internalType": "address",
          "name": "_tknAddress",
          "type": "address"
        },
        {
          "internalType": "address",
          "name": "_depositorAccount",
          "type": "address"
        },
        {
          "internalType": "uint256",
          "name": "_amount",
          "type": "uint256"
        }
      ],
      "name": "withdraw",
      "outputs": [],
      "stateMutability": "nonpayable",
      "type": "function"
    },
    {
      "inputs": [
        {
          "internalType": "uint8",
          "name": "_dex",
          "type": "uint8"
        },
        {
          "internalType": "address",
          "name": "_tknOffer",
          "type": "address"
        },
        {
          "internalType": "address",
          "name": "_tknGet",
          "type": "address"
        },
        {
          "internalType": "uint256",
          "name": "_amount",
          "type": "uint256"
        },
        {
          "internalType": "uint256",
          "name": "_rate",
          "type": "uint256"
        }
      ],
      "name": "placeOrder",
      "outputs": [],
      "stateMutability": "nonpayable",
      "type": "function"
    },
    {
      "inputs": [
        {
          "internalType": "uint256",
          "name": "_orderId",
          "type": "uint256"
        }
      ],
      "name": "cancelOrder",
      "outputs": [],
      "stateMutability": "nonpayable",
      "type": "function"
    },
    {
      "inputs": [],
      "name": "killFund",
      "outputs": [],
      "stateMutability": "nonpayable",
      "type": "function"
    }
  ],
  "bytecode": "0x60806040523480156200001157600080fd5b506040516200277738038062002777833981810160405260408110156200003757600080fd5b81019080805160405193929190846401000000008211156200005857600080fd5b9083019060208201858111156200006e57600080fd5b82516401000000008111828201881017156200008957600080fd5b82525081516020918201929091019080838360005b83811015620000b85781810151838201526020016200009e565b50505050905090810190601f168015620000e65780820380516001836020036101000a031916815260200191505b50604052602001805160405193929190846401000000008211156200010a57600080fd5b9083019060208201858111156200012057600080fd5b82516401000000008111828201881017156200013b57600080fd5b82525081516020918201929091019080838360005b838110156200016a57818101518382015260200162000150565b50505050905090810190601f168015620001985780820380516001836020036101000a031916815260200191505b5060409081523360009081526020818152919020805460ff191660011790558551620001ce9450600e93509086019150620001ed565b508051620001e490600f906020840190620001ed565b50505062000292565b828054600181600116156101000203166002900490600052602060002090601f016020900481019282601f106200023057805160ff191683800117855562000260565b8280016001018555821562000260579182015b828111156200026057825182559160200191906001019062000243565b506200026e92915062000272565b5090565b6200028f91905b808211156200026e576000815560010162000279565b90565b6124d580620002a26000396000f3fe608060405234801561001057600080fd5b50600436106102535760003560e01c80635d428e0811610146578063a367d99a116100c3578063cee2a9cf11610087578063cee2a9cf14610794578063d6edbc0f146107ba578063d9caed12146107c2578063d9e3eaa0146107f8578063e125455914610834578063e641bde11461085a57610253565b8063a367d99a146106d1578063a4e2d634146106d9578063aee2f8e0146106e1578063c74af6a5146106e9578063c86cdce2146106f157610253565b8063704802751161010a57806370480275146106025780637143ddab14610628578063775fec62146106305780638340f5491461067557806396f91890146106ab57610253565b80635d428e081461056c578063609a49701461059257806360b6cf93146105af578063619d5194146105db57806367fd6d07146105fa57610253565b80633af32abf116101d457806348499ff51161019857806348499ff5146104ce578063514fcac7146104fd5780635212d4d21461051a578063565974d31461053e578063570a023d1461054657610253565b80633af32abf146104285780634039ad0d1461044e578063408962d71461047457806342714978146104a0578063456905c8146104c657610253565b80631785f53c1161021b5780631785f53c146103b057806318996fd3146103d657806324d7806c146103de5780632b63c4a914610418578063353619091461042057610253565b8063066512941461028a57806306fdde03146102c257806307040ea61461033f5780630a1f194f146103495780630f5d8b1a1461036f575b60405162461bcd60e51b815260040180806020018281038252602281526020018061247e6022913960400191505060405180910390fd5b6102b0600480360360208110156102a057600080fd5b50356001600160a01b0316610880565b60408051918252519081900360200190f35b6102ca6108fe565b6040805160208082528351818301528351919283929083019185019080838360005b838110156103045781810151838201526020016102ec565b50505050905090810190601f1680156103315780820380516001836020036101000a031916815260200191505b509250505060405180910390f35b61034761098c565b005b6103476004803603602081101561035f57600080fd5b50356001600160a01b0316610a24565b610347600480360360e081101561038557600080fd5b5080359060208101359060408101359060608101359060808101359060a08101359060c00135610ac0565b610347600480360360208110156103c657600080fd5b50356001600160a01b0316610b8d565b6102b0610c29565b610404600480360360208110156103f457600080fd5b50356001600160a01b0316610c2f565b604080519115158252519081900360200190f35b6102b0610c4d565b6102b0610c53565b6104046004803603602081101561043e57600080fd5b50356001600160a01b0316610c59565b6104046004803603602081101561046457600080fd5b50356001600160a01b0316610c7c565b6104046004803603604081101561048a57600080fd5b506001600160a01b038135169060200135610c9a565b610347600480360360208110156104b657600080fd5b50356001600160a01b0316610deb565b6102b0610e87565b610347600480360360408110156104e457600080fd5b5080356001600160a01b0316906020013560ff16610e8d565b6103476004803603602081101561051357600080fd5b5035610f6f565b610522610ff9565b604080516001600160a01b039092168252519081900360200190f35b6102ca611008565b6103476004803603602081101561055c57600080fd5b50356001600160a01b0316611063565b6103476004803603602081101561058257600080fd5b50356001600160a01b0316611148565b610347600480360360208110156105a857600080fd5b50356111e7565b610404600480360360408110156105c557600080fd5b506001600160a01b03813516906020013561127b565b610347600480360360208110156105f157600080fd5b503515156113d4565b61052261146e565b6103476004803603602081101561061857600080fd5b50356001600160a01b031661147d565b6102b061151c565b610347600480360360a081101561064657600080fd5b5060ff813516906001600160a01b03602082013581169160408101359091169060608101359060800135611522565b6103476004803603606081101561068b57600080fd5b506001600160a01b038135811691602081013590911690604001356116a7565b610347600480360360208110156106c157600080fd5b50356001600160a01b0316611985565b6102b0611a22565b610404611a28565b6102b0611a31565b610404611a35565b6103476004803603602081101561070757600080fd5b81019060208101813564010000000081111561072257600080fd5b82018360208201111561073457600080fd5b8035906020019184602083028401116401000000008311171561075657600080fd5b919080806020026020016040519081016040528093929190818152602001838360200280828437600092019190915250929550611a47945050505050565b610404600480360360208110156107aa57600080fd5b50356001600160a01b0316611c38565b6102b0611c56565b610347600480360360608110156107d857600080fd5b506001600160a01b03813581169160208101359091169060400135611c5c565b61081e6004803603602081101561080e57600080fd5b50356001600160a01b0316611ec8565b6040805160ff9092168252519081900360200190f35b6103476004803603602081101561084a57600080fd5b50356001600160a01b0316611ee6565b6103476004803603602081101561087057600080fd5b50356001600160a01b0316611f83565b604080516370a0823160e01b8152306004820152905160009183916001600160a01b038316916370a08231916024808301926020929190829003018186803b1580156108cb57600080fd5b505afa1580156108df573d6000803e3d6000fd5b505050506040513d60208110156108f557600080fd5b50519392505050565b600e805460408051602060026001851615610100026000190190941693909304601f810184900484028201840190925281815292918301828280156109845780601f1061095957610100808354040283529160200191610984565b820191906000526020600020905b81548152906001019060200180831161096757829003601f168201915b505050505081565b3360009081526020819052604090205460ff1615156001146109df5760405162461bcd60e51b81526004018080602001828103825260348152602001806124226034913960400191505060405180910390fd5b60025460ff16610a205760405162461bcd60e51b81526004018080602001828103825260288152602001806123536028913960400191505060405180910390fd5b6000ff5b3360009081526020819052604090205460ff161515600114610a775760405162461bcd60e51b81526004018080602001828103825260348152602001806124226034913960400191505060405180910390fd5b6001600160a01b0381166000818152600c6020526040808220805460ff19169055517f125c1e69722a1f81cb8c84041dfcf0b7dcda809498ceb22b0a003a25719ff0a29190a250565b3360009081526020819052604090205460ff161515600114610b135760405162461bcd60e51b81526004018080602001828103825260348152602001806124226034913960400191505060405180910390fd5b60038790556004869055600585905560068490556007839055600882905560098190556040805186815260208101869052808201849052606081018390529051849188918a917f29c0b838679b891ac361179b94271be3e8411db2fddcf405584aac6ced8f0d5d919081900360800190a450505050505050565b3360009081526020819052604090205460ff161515600114610be05760405162461bcd60e51b81526004018080602001828103825260348152602001806124226034913960400191505060405180910390fd5b6001600160a01b038116600081815260208190526040808220805460ff19169055517f6a35edfb19dff31b968882a3f9eeef54e0ca71bb9af2db6e085f409715d3c5479190a250565b60055481565b6001600160a01b031660009081526020819052604090205460ff1690565b60045481565b60075481565b6001600160a01b0316600090815260016020526040902054610100900460ff1690565b6001600160a01b03166000908152600c602052604090205460ff1690565b6000436007541115610ceb576040805162461bcd60e51b8152602060048201526015602482015274576974686472617720697320746f6f206561726c7960581b604482015290519081900360640190fd5b436008541015610d39576040805162461bcd60e51b8152602060048201526014602482015273576974686472617720697320746f6f206c61746560601b604482015290519081900360640190fd5b816005541115610d88576040805162461bcd60e51b815260206004820152601560248201527415da5d1a191c985dc81a5cc81d1bdbc81cdb585b1b605a1b604482015290519081900360640190fd5b816006541015610dd5576040805162461bcd60e51b8152602060048201526013602482015272576974686472617720697320746f6f2062696760681b604482015290519081900360640190fd5b610ddf8383612022565b50600190505b92915050565b3360009081526020819052604090205460ff161515600114610e3e5760405162461bcd60e51b81526004018080602001828103825260348152602001806124226034913960400191505060405180910390fd5b6001600160a01b0381166000818152600b6020526040808220805460ff19169055517fcd738a4cd4be2dbc4fb823ce1fe9e8f5ed0f59e52585d010b921f2a0d8aa91f59190a250565b60095481565b3360009081526020819052604090205460ff161515600114610ee05760405162461bcd60e51b81526004018080602001828103825260348152602001806124226034913960400191505060405180910390fd5b60408051808201825260ff808416808352600160208085018281526001600160a01b03891660008181529383529287902095518654915115156101000261ff00199190961660ff199092169190911716939093179093558351908152925191927fac0f2ecc83cf8e558ff37d73aa2c5512b98284793ee01338bde3c5413c4a4f3c929081900390910190a25050565b336000908152600c602052604090205460ff161515600114610fc25760405162461bcd60e51b81526004018080602001828103825260348152602001806122bc6034913960400191505060405180910390fd5b60405162461bcd60e51b81526004018080602001828103825260288152602001806124566028913960400191505060405180910390fd5b600d546001600160a01b031681565b600f805460408051602060026001851615610100026000190190941693909304601f810184900484028201840190925281815292918301828280156109845780601f1061095957610100808354040283529160200191610984565b3360009081526020819052604090205460ff1615156001146110b65760405162461bcd60e51b81526004018080602001828103825260348152602001806124226034913960400191505060405180910390fd5b600d546001600160a01b0316156110fe5760405162461bcd60e51b815260040180806020018281038252602e81526020018061237b602e913960400191505060405180910390fd5b600d80546001600160a01b0319166001600160a01b0383169081179091556040517f0b93a95d542a8b160e57395efb1d1fc97d35d02e8490fdcd59a458631f7f137c90600090a250565b3360009081526020819052604090205460ff16151560011461119b5760405162461bcd60e51b81526004018080602001828103825260348152602001806124226034913960400191505060405180910390fd5b6001600160a01b0381166000818152600c6020526040808220805460ff19166001179055517fa9bb5f0420fe64668db4e81d54bad8406be59942fe85b2e79bac99153cfcd4749190a250565b3360009081526020819052604090205460ff16151560011461123a5760405162461bcd60e51b81526004018080602001828103825260348152602001806124226034913960400191505060405180910390fd5b43600781905560088290556040805183815290517f97a660e3b48b89986dcce60fd510e56fd0fdda96a4ef9809e379a1e7f38e6d229181900360200190a250565b60004360035411156112d4576040805162461bcd60e51b815260206004820152601760248201527f496e766573746d656e7420697320746f6f206561726c79000000000000000000604482015290519081900360640190fd5b436004541015611324576040805162461bcd60e51b8152602060048201526016602482015275496e766573746d656e7420697320746f6f206c61746560501b604482015290519081900360640190fd5b81600554111561137b576040805162461bcd60e51b815260206004820152601760248201527f496e766573746d656e7420697320746f6f20736d616c6c000000000000000000604482015290519081900360640190fd5b8160065410156113ca576040805162461bcd60e51b8152602060048201526015602482015274496e766573746d656e7420697320746f6f2062696760581b604482015290519081900360640190fd5b610ddf8383612088565b3360009081526020819052604090205460ff1615156001146114275760405162461bcd60e51b81526004018080602001828103825260348152602001806124226034913960400191505060405180910390fd5b6002805482151560ff19909116811790915560408051918252517fe62bdb61323f62d0f836f645b27bab637d5c91cac0de59ffc61ccd02c6ac80559181900360200190a150565b600a546001600160a01b031681565b3360009081526020819052604090205460ff1615156001146114d05760405162461bcd60e51b81526004018080602001828103825260348152602001806124226034913960400191505060405180910390fd5b6001600160a01b038116600081815260208190526040808220805460ff19166001179055517fd7f0afc2242fe9a5f45af6dea542902933e36c643299a53b1057b13cf8bcad809190a250565b60065481565b336000908152600c602052604090205460ff1615156001146115755760405162461bcd60e51b81526004018080602001828103825260348152602001806122bc6034913960400191505060405180910390fd5b61157d611a35565b6115b85760405162461bcd60e51b81526004018080602001828103825260248152602001806123a96024913960400191505060405180910390fd5b816115c285610880565b10156115ff5760405162461bcd60e51b81526004018080602001828103825260288152602001806123fa6028913960400191505060405180910390fd5b600a546116179085906001600160a01b0316846120e7565b600a5460408051633baff63160e11b815260ff881660048201526001600160a01b0387811660248301528681166044830152606482018690526084820185905291519190921691829163775fec629160a48082019260009290919082900301818387803b15801561168757600080fd5b505af115801561169b573d6000803e3d6000fd5b50505050505050505050565b336000908152600b602052604090205460ff1615156001146116fa5760405162461bcd60e51b815260040180806020018281038252603781526020018061231c6037913960400191505060405180910390fd5b611704838261127b565b611755576040805162461bcd60e51b815260206004820152601f60248201527f47616c617869733a206e6f7420616c6c6f77656420746f206465706f73697400604482015290519081900360640190fd5b60408051636eb1769f60e11b81526001600160a01b0384811660048301523060248301529151859284929084169163dd62ed3e91604480820192602092909190829003018186803b1580156117a957600080fd5b505afa1580156117bd573d6000803e3d6000fd5b505050506040513d60208110156117d357600080fd5b50511015611828576040805162461bcd60e51b815260206004820152601f60248201527f47616c617869733a206465706f736974206973206e6f7420616c6c6f77656400604482015290519081900360640190fd5b604080516323b872dd60e01b81526001600160a01b038581166004830152306024830152604482018590529151918316916323b872dd916064808201926020929091908290030181600087803b15801561188157600080fd5b505af1158015611895573d6000803e3d6000fd5b505050506040513d60208110156118ab57600080fd5b506000905060646118bb86611ec8565b60ff168402816118c757fe5b600d54604080516340c10f1960e01b81526001600160a01b0389811660048301529490930460248401819052905190945092169182916340c10f1991604480830192600092919082900301818387803b15801561192357600080fd5b505af1158015611937573d6000803e3d6000fd5b50506040805187815290516001600160a01b03808a1694508a1692507f3cddd180357d92f4979ab1b68037b2552053aeab663eae8986d16a38193136109181900360200190a3505050505050565b3360009081526020819052604090205460ff1615156001146119d85760405162461bcd60e51b81526004018080602001828103825260348152602001806124226034913960400191505060405180910390fd5b600a80546001600160a01b0319166001600160a01b0383169081179091556040517f101456e9dc0c87e1ecf3aa5305adf4634567685f40b0097eb396fd6d55abdcf990600090a250565b60035481565b60025460ff1681565b4790565b6000611a3f61216c565b506000905090565b3360009081526020819052604090205460ff161515600114611a9a5760405162461bcd60e51b81526004018080602001828103825260348152602001806124226034913960400191505060405180910390fd5b80600081518110611aa757fe5b602002602001015160038190555080600181518110611ac257fe5b602002602001015160048190555080600281518110611add57fe5b602002602001015160058190555080600381518110611af857fe5b602002602001015160068190555080600481518110611b1357fe5b602002602001015160078190555080600581518110611b2e57fe5b602002602001015160088190555080600681518110611b4957fe5b602002602001015160098190555080600481518110611b6457fe5b602002602001015181600181518110611b7957fe5b602002602001015182600081518110611b8e57fe5b60200260200101517f29c0b838679b891ac361179b94271be3e8411db2fddcf405584aac6ced8f0d5d84600281518110611bc457fe5b602002602001015185600381518110611bd957fe5b602002602001015186600581518110611bee57fe5b602002602001015187600681518110611c0357fe5b60200260200101516040518085815260200184815260200183815260200182815260200194505050505060405180910390a450565b6001600160a01b03166000908152600b602052604090205460ff1690565b60085481565b336000908152600b602052604090205460ff161515600114611caf5760405162461bcd60e51b815260040180806020018281038252603781526020018061231c6037913960400191505060405180910390fd5b611cb98382610c9a565b611d0a576040805162461bcd60e51b815260206004820181905260248201527f47616c617869733a206e6f7420616c6c6f77656420746f207769746864726177604482015290519081900360640190fd5b600d5460408051636eb1769f60e11b81526001600160a01b038581166004830152306024830152915191909216918391839163dd62ed3e916044808301926020929190829003018186803b158015611d6157600080fd5b505afa158015611d75573d6000803e3d6000fd5b505050506040513d6020811015611d8b57600080fd5b50511015611de0576040805162461bcd60e51b815260206004820181905260248201527f47616c617869733a207769746864726177206973206e6f7420616c6c6f776564604482015290519081900360640190fd5b6000611deb85611ec8565b60ff168360640281611df957fe5b049050611e078585836121cd565b816001600160a01b0316639dc29fac85856040518363ffffffff1660e01b815260040180836001600160a01b03166001600160a01b0316815260200182815260200192505050600060405180830381600087803b158015611e6757600080fd5b505af1158015611e7b573d6000803e3d6000fd5b50506040805186815290516001600160a01b038089169450891692507f85f9f540cd0852bca4478c431cf7245d46bb58d394eee8dafdb69de9d27c75769181900360200190a35050505050565b6001600160a01b031660009081526001602052604090205460ff1690565b3360009081526020819052604090205460ff161515600114611f395760405162461bcd60e51b81526004018080602001828103825260348152602001806124226034913960400191505060405180910390fd5b6001600160a01b038116600081815260016020526040808220805461ff0019169055517fb2425ed5c48af46b6ca1a64069d798ec183c079c7ffbd3150715248c929a33599190a250565b3360009081526020819052604090205460ff161515600114611fd65760405162461bcd60e51b81526004018080602001828103825260348152602001806124226034913960400191505060405180910390fd5b6001600160a01b0381166000818152600b6020526040808220805460ff19166001179055517f7f5d333d4d2a107179a1da732b237e5efb7adea85c231017ee785779e98411669190a250565b60025460009060ff1615612077576040805162461bcd60e51b815260206004820152601760248201527611d85b185e1a5cce88119d5b99081a5cc81b1bd8dad959604a1b604482015290519081900360640190fd5b6120818383612220565b5092915050565b60025460009060ff16156120dd576040805162461bcd60e51b815260206004820152601760248201527611d85b185e1a5cce88119d5b99081a5cc81b1bd8dad959604a1b604482015290519081900360640190fd5b612081838361226b565b6040805163095ea7b360e01b81526001600160a01b038481166004830152602482018490529151859283169163095ea7b39160448083019260209291908290030181600087803b15801561213a57600080fd5b505af115801561214e573d6000803e3d6000fd5b505050506040513d602081101561216457600080fd5b505050505050565b60025460009060ff16156121c1576040805162461bcd60e51b815260206004820152601760248201527611d85b185e1a5cce88119d5b99081a5cc81b1bd8dad959604a1b604482015290519081900360640190fd5b6121c96122b6565b5090565b6040805163a9059cbb60e01b81526001600160a01b038481166004830152602482018490529151859283169163a9059cbb9160448083019260209291908290030181600087803b15801561213a57600080fd5b600061222b83610c59565b1515600114610de55760405162461bcd60e51b815260040180806020018281038252602d8152602001806123cd602d913960400191505060405180910390fd5b600061227683610c59565b1515600114610de55760405162461bcd60e51b815260040180806020018281038252602c8152602001806122f0602c913960400191505060405180910390fd5b60019056fe47616c617869733a204163636573732064656e6965643a206e6f74206120747261646572206f662074686520636f6e747261637447616c617869733a20546f6b656e20746f206465706f736974206973206e6f742077686974656c697374656447616c617869733a204163636573732064656e6965643a206e6f7420616e20696e766573746f72206f662074686520636f6e747261637447616c617869733a206f6e6c79206c6f636b65642066756e64732063616e20626520636c6f73656447616c617869733a20536861726573207265666572656e63652063616e20626520736574206f6e6c79206f6e636547616c617869733a206e6f7420616c6c6f77656420746f20706c61636572206f7264657247616c617869733a20546f6b656e20746f207769746864726177206973206e6f742077686974656c697374656447616c617869733a206e6f7420656e6f75676820746f6b656e20746f20706c616365206f7264657247616c617869733a204163636573732064656e6965643a206e6f7420616e2061646d696e206f662074686520636f6e747261637447616c617869733a2063616e63656c206f72646572206973206e6f7420696d706c656d656e74656447616c617869733a2046616c6c6261636b206973206e6f7420737570706f72746564a264697066735822122040dca8cf5e1b696e82a9de868adbd6e410f77094d956a23dd527b861a431df1364736f6c63430006050033",
  "immutableReferences": {},
  "source": "pragma solidity ^0.6.0;\n\nimport '../Treasury/TreasuryInterface.sol';\n\nimport '../FundRules/GX_SimpleCloseEndRules.sol';\nimport './GX_FundManagerBaseInterface.sol';\nimport '../Composition/GX_DEXManagerReference.sol';\nimport '../Composition/GX_SharesReference.sol';\nimport '../Tokens/GX_PortfolioTKNInterface.sol';\nimport '../Governance/GX_GovernanceInvestor.sol';\nimport '../Governance/GX_GovernanceTrader.sol';\nimport '../Treasury/GX_Treasury.sol';\n\nimport \"@openzeppelin/contracts/math/SafeMath.sol\";\nimport \"@openzeppelin/contracts/token/ERC20/IERC20.sol\";\n\n/// @author Solidity Services\n/// @title Galaxis: Fund manager contract\n/// @notice Single entry point for fund management\ncontract GX_FundManager is GX_SimpleCloseEndRules, GX_FundManagerBaseInterface, GX_DEXManagerReference, GX_GovernanceInvestor, GX_GovernanceTrader, GX_SharesReference, GX_Treasury {\n    using SafeMath for uint256;\n\n    /// STATE VARIABLES : core right system and contract composition\n\n    /// @notice name of the fund in the blockchain\n    string public name;\n    /// @notice details of the fund in the blockchain\n    string public details;\n\n    /// EVENTS: user facing events\n    /// @notice event for making an investment\n    event GX_Deposit(address indexed tknAddress, address indexed investor, uint amount);\n    /// @notice event for withdrawing\n    event GX_Withdraw(address indexed tknAddress, address indexed to, uint amount);\n\n    /// CONSTRUCTORS\n\n    /// @notice creating a Fund Manager\n    /// @dev ...\n    constructor(string memory _name, string memory _details) public {\n        name = _name;\n        details = _details;\n    }\n\n    /// TRANSACTIONS\n\n    /// @notice Fund manager deposit token fund\n    function deposit(address _tknAddress, address _depositorAccount, uint _amount) public override onlyInvestor {\n        require(super.isAllowedDeposit(_tknAddress, _amount), \"Galaxis: not allowed to deposit\");\n\n        // allowed the amount of token to deposit\n        IERC20 depositToken = IERC20(_tknAddress);\n        require(depositToken.allowance(_depositorAccount, address(this)) >= _amount,\"Galaxis: deposit is not allowed\");\n\n        // transfer to treasury\n        depositToken.transferFrom(_depositorAccount, address(this), _amount);\n\n        // compute shares to issue based on the changing rate\n        uint sharesToIssue = (_amount * getChangeRate(_tknAddress)) / 100; \n\n        // issue shares\n        GX_PortfolioTKNInterface shares = GX_PortfolioTKNInterface(SharesReference);\n        shares.mint(_depositorAccount, sharesToIssue);\n\n        // raise event\n        emit GX_Deposit(_tknAddress, _depositorAccount, _amount);\n    }\n\n    /// @notice withdraw token fund from the fund manager\n    /// @dev ...\n    /// @param _tknAddress token address of the withdraw amount\n    /// @param _depositorAccount to the depositor account\n    /// @param _amount the amount to withdraw\n    function withdraw(address _tknAddress, address _depositorAccount, uint _amount) public override onlyInvestor {\n        require(super.isAllowedWithdraw(_tknAddress, _amount), \"Galaxis: not allowed to withdraw\");\n\n        // allowed the amount of token to burn as portfolio\n        GX_PortfolioTKNInterface shares = GX_PortfolioTKNInterface(SharesReference);\n        require(shares.allowance(_depositorAccount, address(this)) >= _amount,\"Galaxis: withdraw is not allowed\");\n\n        // calculate withdraw amount based on reverse change rate and traderMarge\n        uint amountToTransfer = ((_amount * 100 ) / getChangeRate(_tknAddress));\n\n        // transfer from treasury\n        transferTokenTreasury(_tknAddress,_depositorAccount,amountToTransfer);\n\n        // burn shares\n        shares.burn(_depositorAccount, _amount);\n\n        // raise event\n        emit GX_Withdraw(_tknAddress, _depositorAccount, _amount);\n    }\n\n    /// @notice placing order to an exchange\n    /// @dev ...\n    /// @param _dex dex exchange or adapter number\n    /// @param _tknOffer token to offer\n    /// @param _tknGet token to get\n    /// @param _amount amount to exchange\n    /// @param _rate rate of the expected change\n   function placeOrder(uint8 _dex, address _tknOffer, address _tknGet, uint _amount, uint _rate) public override onlyTrader {\n        require(super.isAllowedPlaceOrder(), \"Galaxis: not allowed to placer order\");\n\n        // have enough token\n        require((getBalanceTokenTreasury(_tknOffer) >= _amount), \"Galaxis: not enough token to place order\");\n\n        //give DEX manager access to the token\n        approveTokenTreasury(_tknOffer, DEXManagerReference, _amount);\n\n        // delegate call to the DEX manager\n        GX_GeneralOrderInterface dexManager = GX_GeneralOrderInterface(DEXManagerReference);\n        dexManager.placeOrder(_dex, _tknOffer,_tknGet,_amount, _rate);\n   }\n\n    /// @notice placing order to an exchange\n    /// @dev ...\n    /// @param _orderId cancelling the order id\n   function cancelOrder(uint256 _orderId) public override onlyTrader {\n\n        revert(\"Galaxis: cancel order is not implemented\");\n\n        // delegate call to the DEX manager\n        // GX_GeneralOrderInterface dexManager = GX_GeneralOrderInterface(DEXManagerReference);\n        // dexManager.cancelOrder(_orderId);\n   }\n\n    /// @notice killing the fund contract\n    /// @dev ...\n    function killFund() public onlyAdmin {\n        require((isLocked), \"Galaxis: only locked funds can be closed\");\n\n        // selfdestruct\n        selfdestruct(address(0));\n    }\n\n    /// @notice Fallback function: not supported\n    /// @dev ...\n    fallback() external {\n        revert(\"Galaxis: Fallback is not supported\");\n    }\n    \n    /// VIEWS\n\n    /// UTILS\n\n\n}",
  "sourcePath": "/home/dsz/git/galaxistest/galaxis/contracts/FundManager/GX_FundManager.sol",
  "compiler": {
    "name": "solc",
    "version": "0.6.5+commit.f956cc89.Emscripten.clang"
  },
  "schemaVersion": "3.2.2-next.0",
  "updatedAt": "2020-08-13T15:10:49.114Z",
  "networkType": "ethereum",
  "devdoc": {
    "author": "Solidity Services",
    "methods": {
      "addAdmin(address)": {
        "details": "...",
        "params": {
          "_newAdmin": "new admin of the contract"
        }
      },
      "addInvestor(address)": {
        "details": "...",
        "params": {
          "_newInvestor": "new investor of the contract"
        }
      },
      "addTrader(address)": {
        "details": "...",
        "params": {
          "_newTrader": "new trader of the contract"
        }
      },
      "blacklistToken(address)": {
        "details": "...",
        "params": {
          "_tokenAddress": "tokenaddress to blacklist"
        }
      },
      "cancelOrder(uint256)": {
        "details": "...",
        "params": {
          "_orderId": "cancelling the order id"
        }
      },
      "changeRules(uint256,uint256,uint256,uint256,uint256,uint256,uint256)": {
        "details": "...",
        "params": {
          "_investEnd": "new investment end",
          "_investMax": "new investment maximum",
          "_investMin": "new investment minimum",
          "_investStart": "new investment start",
          "_withdrawEnd": "new withdraw end",
          "_withdrawStart": "new withdraw start"
        }
      },
      "changeRulesArray(uint256[])": {
        "details": "...",
        "params": {
          "_rules": "rules to set"
        }
      },
      "closeFund(uint256)": {
        "details": "...",
        "params": {
          "_withdrawEnd": "new withdraw end"
        }
      },
      "constructor": {
        "details": "..."
      },
      "getBalanceEthTreasury()": {
        "details": "..."
      },
      "getBalanceTokenTreasury(address)": {
        "details": "..."
      },
      "getChangeRate(address)": {
        "details": "...",
        "params": {
          "_tokenAddress": "the address to be checked"
        }
      },
      "isAdmin(address)": {
        "details": "...",
        "params": {
          "_addressToCheck": "the address to be checked"
        }
      },
      "isAllowedDeposit(address,uint256)": {
        "details": "..."
      },
      "isAllowedPlaceOrder()": {
        "details": "..."
      },
      "isAllowedWithdraw(address,uint256)": {
        "details": "..."
      },
      "isInvestor(address)": {
        "details": "...",
        "params": {
          "_addressToCheck": "the address to be checked"
        }
      },
      "isTrader(address)": {
        "details": "...",
        "params": {
          "_addressToCheck": "the address to be checked"
        }
      },
      "isWhitelisted(address)": {
        "details": "...",
        "params": {
          "_tokenAddress": "the address to be checked"
        }
      },
      "killFund()": {
        "details": "..."
      },
      "placeOrder(uint8,address,address,uint256,uint256)": {
        "details": "...",
        "params": {
          "_amount": "amount to exchange",
          "_dex": "dex exchange or adapter number",
          "_rate": "rate of the expected change",
          "_tknGet": "token to get",
          "_tknOffer": "token to offer"
        }
      },
      "removeAdmin(address)": {
        "details": "...",
        "params": {
          "_adminToDelete": "removing the admin from the contract"
        }
      },
      "removeInvestor(address)": {
        "details": "...",
        "params": {
          "_investorToDelete": "removing the investor from the contract"
        }
      },
      "removeTrader(address)": {
        "details": "...",
        "params": {
          "_traderToDelete": "removing the trader from the contract"
        }
      },
      "setDEXManager(address)": {
        "details": "...",
        "params": {
          "_DEXManagerAddress": "new reference"
        }
      },
      "setLock(bool)": {
        "details": "...",
        "params": {
          "_newLockValue": "new lock value"
        }
      },
      "setShares(address)": {
        "details": "...",
        "params": {
          "_SharesAddress": "new reference"
        }
      },
      "whitelistToken(address,uint8)": {
        "details": "...",
        "params": {
          "_changeRate": "token change rate",
          "_tokenAddress": "token to whitelist"
        }
      },
      "withdraw(address,address,uint256)": {
        "details": "...",
        "params": {
          "_amount": "the amount to withdraw",
          "_depositorAccount": "to the depositor account",
          "_tknAddress": "token address of the withdraw amount"
        }
      }
    },
    "title": "Galaxis: Fund manager contract"
  },
  "userdoc": {
    "methods": {
      "addAdmin(address)": {
        "notice": "TRANSACTIONSadding a new admin to the contract"
      },
      "addInvestor(address)": {
        "notice": "TRANSACTIONSadding a new investor to the contract"
      },
      "addTrader(address)": {
        "notice": "TRANSACTIONSadding a new trader to the contract"
      },
      "blacklistToken(address)": {
        "notice": "blacklisting a token"
      },
      "cancelOrder(uint256)": {
        "notice": "placing order to an exchange"
      },
      "changeRules(uint256,uint256,uint256,uint256,uint256,uint256,uint256)": {
        "notice": "CONSTRUCTORS MODIFIERS TRANSACTIONSchanging the rules"
      },
      "changeRulesArray(uint256[])": {
        "notice": "changing the rules"
      },
      "closeFund(uint256)": {
        "notice": "closing the fund: withdraw can start"
      },
      "constructor": "CONSTRUCTORScreating a Fund Manager",
      "deposit(address,address,uint256)": {
        "notice": "TRANSACTIONSFund manager deposit token fund"
      },
      "getBalanceEthTreasury()": {
        "notice": "VIEWSgetting balance of the treasury"
      },
      "getBalanceTokenTreasury(address)": {
        "notice": "getting token balance of the treasury contract"
      },
      "getChangeRate(address)": {
        "notice": "getting change rate for a token"
      },
      "isAdmin(address)": {
        "notice": "VIEWSchecking if the address is admin"
      },
      "isAllowedDeposit(address,uint256)": {
        "notice": "VIEWSis it allowed to invest"
      },
      "isAllowedPlaceOrder()": {
        "notice": "is it allowed to trade"
      },
      "isAllowedWithdraw(address,uint256)": {
        "notice": "is it allowed to withdraw"
      },
      "isInvestor(address)": {
        "notice": "VIEWSchecking if the address is an investor"
      },
      "isTrader(address)": {
        "notice": "VIEWSchecking if the address is a trader"
      },
      "isWhitelisted(address)": {
        "notice": "VIEWSchecking if the token is whitelisted"
      },
      "killFund()": {
        "notice": "killing the fund contract"
      },
      "placeOrder(uint8,address,address,uint256,uint256)": {
        "notice": "placing order to an exchange"
      },
      "removeAdmin(address)": {
        "notice": "removing an admin from the contract"
      },
      "removeInvestor(address)": {
        "notice": "removing an investor from the contract"
      },
      "removeTrader(address)": {
        "notice": "removing a trader from the contract"
      },
      "setDEXManager(address)": {
        "notice": "TRANSACTIONSsetting the exchange reference"
      },
      "setLock(bool)": {
        "notice": "TRANSACTIONSlocking or unlocking the fund"
      },
      "setShares(address)": {
        "notice": "TRANSACTIONSsetting the shares reference"
      },
      "whitelistToken(address,uint8)": {
        "notice": "CONSTRUCTOR TRANSACTIONSwhitelisting a new token"
      },
      "withdraw(address,address,uint256)": {
        "notice": "withdraw token fund from the fund manager"
      }
    },
    "notice": "Single entry point for fund management"
  }
}