{
  "contractName": "GX_FundFactory",
  "abi": [
    {
      "anonymous": false,
      "inputs": [
        {
          "indexed": true,
          "internalType": "address",
          "name": "adminAddress",
          "type": "address"
        }
      ],
      "name": "GX_AdminAdded",
      "type": "event"
    },
    {
      "anonymous": false,
      "inputs": [
        {
          "indexed": true,
          "internalType": "address",
          "name": "adminAddress",
          "type": "address"
        }
      ],
      "name": "GX_AdminRemoved",
      "type": "event"
    },
    {
      "anonymous": false,
      "inputs": [
        {
          "indexed": true,
          "internalType": "address",
          "name": "dexManagerAddress",
          "type": "address"
        },
        {
          "indexed": false,
          "internalType": "uint256",
          "name": "serialNum",
          "type": "uint256"
        }
      ],
      "name": "GX_DEXManagerCreated",
      "type": "event"
    },
    {
      "anonymous": false,
      "inputs": [
        {
          "indexed": true,
          "internalType": "address",
          "name": "fundManagerAddress",
          "type": "address"
        },
        {
          "indexed": false,
          "internalType": "string",
          "name": "name",
          "type": "string"
        },
        {
          "indexed": false,
          "internalType": "uint256",
          "name": "serialNum",
          "type": "uint256"
        }
      ],
      "name": "GX_FundManagerCreated",
      "type": "event"
    },
    {
      "anonymous": false,
      "inputs": [
        {
          "indexed": true,
          "internalType": "address",
          "name": "sharesTKNAddress",
          "type": "address"
        },
        {
          "indexed": false,
          "internalType": "uint256",
          "name": "serialNum",
          "type": "uint256"
        }
      ],
      "name": "GX_SharesTKNCreated",
      "type": "event"
    },
    {
      "inputs": [
        {
          "internalType": "address",
          "name": "_newAdmin",
          "type": "address"
        }
      ],
      "name": "addAdmin",
      "outputs": [],
      "stateMutability": "nonpayable",
      "type": "function"
    },
    {
      "inputs": [
        {
          "internalType": "address",
          "name": "_addressToCheck",
          "type": "address"
        }
      ],
      "name": "isAdmin",
      "outputs": [
        {
          "internalType": "bool",
          "name": "",
          "type": "bool"
        }
      ],
      "stateMutability": "view",
      "type": "function",
      "constant": true
    },
    {
      "inputs": [
        {
          "internalType": "address",
          "name": "_adminToDelete",
          "type": "address"
        }
      ],
      "name": "removeAdmin",
      "outputs": [],
      "stateMutability": "nonpayable",
      "type": "function"
    },
    {
      "inputs": [
        {
          "internalType": "string[]",
          "name": "_names",
          "type": "string[]"
        },
        {
          "internalType": "uint256[]",
          "name": "_investmentDetails",
          "type": "uint256[]"
        },
        {
          "internalType": "address[]",
          "name": "_adminAddresses",
          "type": "address[]"
        },
        {
          "internalType": "address[]",
          "name": "_traderAddresses",
          "type": "address[]"
        },
        {
          "internalType": "address[]",
          "name": "_investorAddresses",
          "type": "address[]"
        },
        {
          "internalType": "uint8",
          "name": "_decimals",
          "type": "uint8"
        },
        {
          "internalType": "address",
          "name": "dexManagerAddress",
          "type": "address"
        },
        {
          "internalType": "uint256",
          "name": "_serialNum",
          "type": "uint256"
        }
      ],
      "name": "createFUND",
      "outputs": [
        {
          "internalType": "address",
          "name": "",
          "type": "address"
        }
      ],
      "stateMutability": "nonpayable",
      "type": "function"
    }
  ],
  "bytecode": "0x60806040908152336000908152602081905220805460ff191660011790556144988061002c6000396000f3fe60806040523480156200001157600080fd5b5060043610620000525760003560e01c80631785f53c14620000575780631e99163a146200007057806324d7806c146200009f5780637048027514620000c5575b600080fd5b6200006e6200006836600462000894565b620000dc565b005b6200008762000081366004620008b9565b62000165565b60405162000096919062000a14565b60405180910390f35b620000b6620000b036600462000894565b620005f9565b60405162000096919062000a6e565b6200006e620000d636600462000894565b62000617565b3360009081526020819052604090205460ff1615156001146200011c5760405162461bcd60e51b8152600401620001139062000b1d565b60405180910390fd5b6001600160a01b038116600081815260208190526040808220805460ff19169055517f6a35edfb19dff31b968882a3f9eeef54e0ca71bb9af2db6e085f409715d3c5479190a250565b3360009081526020819052604081205460ff1615156001146200019c5760405162461bcd60e51b8152600401620001139062000b1d565b600089600081518110620001ac57fe5b60200260200101518a600181518110620001c257fe5b6020026020010151604051620001d8906200069a565b620001e592919062000a79565b604051809103906000f08015801562000202573d6000803e3d6000fd5b506040516364366e7160e11b81529091506001600160a01b0382169063c86cdce29062000234908c9060040162000a28565b600060405180830381600087803b1580156200024f57600080fd5b505af115801562000264573d6000803e3d6000fd5b506000925050505b8851811015620002f957816001600160a01b031663704802758a83815181106200029257fe5b60200260200101516040518263ffffffff1660e01b8152600401620002b8919062000a14565b600060405180830381600087803b158015620002d357600080fd5b505af1158015620002e8573d6000803e3d6000fd5b5050600190920191506200026c9050565b50604051637048027560e01b81526001600160a01b038216906370480275906200032890339060040162000a14565b600060405180830381600087803b1580156200034357600080fd5b505af115801562000358573d6000803e3d6000fd5b5050604051637048027560e01b81526001600160a01b0384169250637048027591506200038a90329060040162000a14565b600060405180830381600087803b158015620003a557600080fd5b505af1158015620003ba573d6000803e3d6000fd5b506000925050505b87518110156200044f57816001600160a01b0316635d428e08898381518110620003e857fe5b60200260200101516040518263ffffffff1660e01b81526004016200040e919062000a14565b600060405180830381600087803b1580156200042957600080fd5b505af11580156200043e573d6000803e3d6000fd5b505060019092019150620003c29050565b5060005b8651811015620004e057816001600160a01b031663e641bde18883815181106200047957fe5b60200260200101516040518263ffffffff1660e01b81526004016200049f919062000a14565b600060405180830381600087803b158015620004ba57600080fd5b505af1158015620004cf573d6000803e3d6000fd5b505060019092019150620004539050565b50806001600160a01b03167fc413b0cdcbde87df9d745cdde11a28d918a193f7fc0b2a4255a045e317098c438b6000815181106200051a57fe5b6020026020010151856040516200053392919062000af9565b60405180910390a260008a6002815181106200054b57fe5b60200260200101518b6003815181106200056157fe5b602002602001015187846040516200057990620006a8565b62000588949392919062000aab565b604051809103906000f080158015620005a5573d6000803e3d6000fd5b509050806001600160a01b03167fb9b7ad8e89ff558b598eeb28e17116c48515c5f7a705b9ac6ef69880496effaa85604051620005e3919062000b71565b60405180910390a2509998505050505050505050565b6001600160a01b031660009081526020819052604090205460ff1690565b3360009081526020819052604090205460ff1615156001146200064e5760405162461bcd60e51b8152600401620001139062000b1d565b6001600160a01b038116600081815260208190526040808220805460ff19166001179055517fd7f0afc2242fe9a5f45af6dea542902933e36c643299a53b1057b13cf8bcad809190a250565b6127778062000bc483390190565b611128806200333b83390190565b80356001600160a01b0381168114620006ce57600080fd5b92915050565b600082601f830112620006e5578081fd5b8135620006fc620006f68262000ba2565b62000b7a565b8181529150602080830190848101818402860182018710156200071e57600080fd5b60005b848110156200074957620007368883620006b6565b8452928201929082019060010162000721565b505050505092915050565b6000601f838184011262000766578182fd5b823562000777620006f68262000ba2565b818152925060208084019085810160005b8481101562000811578135880189603f820112620007a557600080fd5b8381013567ffffffffffffffff811115620007bf57600080fd5b620007d2818901601f1916860162000b7a565b81815260408c81848601011115620007e957600080fd5b8281850188840137506000918101860191909152855250928201929082019060010162000788565b50505050505092915050565b600082601f8301126200082e578081fd5b81356200083f620006f68262000ba2565b8181529150602080830190848101818402860182018710156200086157600080fd5b60005b84811015620007495781358452928201929082019060010162000864565b803560ff81168114620006ce57600080fd5b600060208284031215620008a6578081fd5b620008b28383620006b6565b9392505050565b600080600080600080600080610100898b031215620008d6578384fd5b883567ffffffffffffffff80821115620008ee578586fd5b620008fc8c838d0162000754565b995060208b013591508082111562000912578586fd5b620009208c838d016200081d565b985060408b013591508082111562000936578586fd5b620009448c838d01620006d4565b975060608b01359150808211156200095a578586fd5b620009688c838d01620006d4565b965060808b01359150808211156200097e578586fd5b506200098d8b828c01620006d4565b9450506200099f8a60a08b0162000882565b9250620009b08a60c08b01620006b6565b915060e089013590509295985092959890939650565b60008151808452815b81811015620009ed57602081850181015186830182015201620009cf565b81811115620009ff5782602083870101525b50601f01601f19169290920160200192915050565b6001600160a01b0391909116815260200190565b6020808252825182820181905260009190848201906040850190845b8181101562000a625783518352928401929184019160010162000a44565b50909695505050505050565b901515815260200190565b60006040825262000a8e6040830185620009c6565b828103602084015262000aa28185620009c6565b95945050505050565b60006080825262000ac06080830187620009c6565b828103602084015262000ad48187620009c6565b60ff95909516604084015250506001600160a01b039190911660609091015292915050565b60006040825262000b0e6040830185620009c6565b90508260208301529392505050565b60208082526034908201527f47616c617869733a204163636573732064656e6965643a206e6f7420616e2061604082015273191b5a5b881bd9881d1a194818dbdb9d1c9858dd60621b606082015260800190565b90815260200190565b60405181810167ffffffffffffffff8111828210171562000b9a57600080fd5b604052919050565b600067ffffffffffffffff82111562000bb9578081fd5b506020908102019056fe60806040523480156200001157600080fd5b506040516200277738038062002777833981810160405260408110156200003757600080fd5b81019080805160405193929190846401000000008211156200005857600080fd5b9083019060208201858111156200006e57600080fd5b82516401000000008111828201881017156200008957600080fd5b82525081516020918201929091019080838360005b83811015620000b85781810151838201526020016200009e565b50505050905090810190601f168015620000e65780820380516001836020036101000a031916815260200191505b50604052602001805160405193929190846401000000008211156200010a57600080fd5b9083019060208201858111156200012057600080fd5b82516401000000008111828201881017156200013b57600080fd5b82525081516020918201929091019080838360005b838110156200016a57818101518382015260200162000150565b50505050905090810190601f168015620001985780820380516001836020036101000a031916815260200191505b5060409081523360009081526020818152919020805460ff191660011790558551620001ce9450600e93509086019150620001ed565b508051620001e490600f906020840190620001ed565b50505062000292565b828054600181600116156101000203166002900490600052602060002090601f016020900481019282601f106200023057805160ff191683800117855562000260565b8280016001018555821562000260579182015b828111156200026057825182559160200191906001019062000243565b506200026e92915062000272565b5090565b6200028f91905b808211156200026e576000815560010162000279565b90565b6124d580620002a26000396000f3fe608060405234801561001057600080fd5b50600436106102535760003560e01c80635d428e0811610146578063a367d99a116100c3578063cee2a9cf11610087578063cee2a9cf14610794578063d6edbc0f146107ba578063d9caed12146107c2578063d9e3eaa0146107f8578063e125455914610834578063e641bde11461085a57610253565b8063a367d99a146106d1578063a4e2d634146106d9578063aee2f8e0146106e1578063c74af6a5146106e9578063c86cdce2146106f157610253565b8063704802751161010a57806370480275146106025780637143ddab14610628578063775fec62146106305780638340f5491461067557806396f91890146106ab57610253565b80635d428e081461056c578063609a49701461059257806360b6cf93146105af578063619d5194146105db57806367fd6d07146105fa57610253565b80633af32abf116101d457806348499ff51161019857806348499ff5146104ce578063514fcac7146104fd5780635212d4d21461051a578063565974d31461053e578063570a023d1461054657610253565b80633af32abf146104285780634039ad0d1461044e578063408962d71461047457806342714978146104a0578063456905c8146104c657610253565b80631785f53c1161021b5780631785f53c146103b057806318996fd3146103d657806324d7806c146103de5780632b63c4a914610418578063353619091461042057610253565b8063066512941461028a57806306fdde03146102c257806307040ea61461033f5780630a1f194f146103495780630f5d8b1a1461036f575b60405162461bcd60e51b815260040180806020018281038252602281526020018061247e6022913960400191505060405180910390fd5b6102b0600480360360208110156102a057600080fd5b50356001600160a01b0316610880565b60408051918252519081900360200190f35b6102ca6108fe565b6040805160208082528351818301528351919283929083019185019080838360005b838110156103045781810151838201526020016102ec565b50505050905090810190601f1680156103315780820380516001836020036101000a031916815260200191505b509250505060405180910390f35b61034761098c565b005b6103476004803603602081101561035f57600080fd5b50356001600160a01b0316610a24565b610347600480360360e081101561038557600080fd5b5080359060208101359060408101359060608101359060808101359060a08101359060c00135610ac0565b610347600480360360208110156103c657600080fd5b50356001600160a01b0316610b8d565b6102b0610c29565b610404600480360360208110156103f457600080fd5b50356001600160a01b0316610c2f565b604080519115158252519081900360200190f35b6102b0610c4d565b6102b0610c53565b6104046004803603602081101561043e57600080fd5b50356001600160a01b0316610c59565b6104046004803603602081101561046457600080fd5b50356001600160a01b0316610c7c565b6104046004803603604081101561048a57600080fd5b506001600160a01b038135169060200135610c9a565b610347600480360360208110156104b657600080fd5b50356001600160a01b0316610deb565b6102b0610e87565b610347600480360360408110156104e457600080fd5b5080356001600160a01b0316906020013560ff16610e8d565b6103476004803603602081101561051357600080fd5b5035610f6f565b610522610ff9565b604080516001600160a01b039092168252519081900360200190f35b6102ca611008565b6103476004803603602081101561055c57600080fd5b50356001600160a01b0316611063565b6103476004803603602081101561058257600080fd5b50356001600160a01b0316611148565b610347600480360360208110156105a857600080fd5b50356111e7565b610404600480360360408110156105c557600080fd5b506001600160a01b03813516906020013561127b565b610347600480360360208110156105f157600080fd5b503515156113d4565b61052261146e565b6103476004803603602081101561061857600080fd5b50356001600160a01b031661147d565b6102b061151c565b610347600480360360a081101561064657600080fd5b5060ff813516906001600160a01b03602082013581169160408101359091169060608101359060800135611522565b6103476004803603606081101561068b57600080fd5b506001600160a01b038135811691602081013590911690604001356116a7565b610347600480360360208110156106c157600080fd5b50356001600160a01b0316611985565b6102b0611a22565b610404611a28565b6102b0611a31565b610404611a35565b6103476004803603602081101561070757600080fd5b81019060208101813564010000000081111561072257600080fd5b82018360208201111561073457600080fd5b8035906020019184602083028401116401000000008311171561075657600080fd5b919080806020026020016040519081016040528093929190818152602001838360200280828437600092019190915250929550611a47945050505050565b610404600480360360208110156107aa57600080fd5b50356001600160a01b0316611c38565b6102b0611c56565b610347600480360360608110156107d857600080fd5b506001600160a01b03813581169160208101359091169060400135611c5c565b61081e6004803603602081101561080e57600080fd5b50356001600160a01b0316611ec8565b6040805160ff9092168252519081900360200190f35b6103476004803603602081101561084a57600080fd5b50356001600160a01b0316611ee6565b6103476004803603602081101561087057600080fd5b50356001600160a01b0316611f83565b604080516370a0823160e01b8152306004820152905160009183916001600160a01b038316916370a08231916024808301926020929190829003018186803b1580156108cb57600080fd5b505afa1580156108df573d6000803e3d6000fd5b505050506040513d60208110156108f557600080fd5b50519392505050565b600e805460408051602060026001851615610100026000190190941693909304601f810184900484028201840190925281815292918301828280156109845780601f1061095957610100808354040283529160200191610984565b820191906000526020600020905b81548152906001019060200180831161096757829003601f168201915b505050505081565b3360009081526020819052604090205460ff1615156001146109df5760405162461bcd60e51b81526004018080602001828103825260348152602001806124226034913960400191505060405180910390fd5b60025460ff16610a205760405162461bcd60e51b81526004018080602001828103825260288152602001806123536028913960400191505060405180910390fd5b6000ff5b3360009081526020819052604090205460ff161515600114610a775760405162461bcd60e51b81526004018080602001828103825260348152602001806124226034913960400191505060405180910390fd5b6001600160a01b0381166000818152600c6020526040808220805460ff19169055517f125c1e69722a1f81cb8c84041dfcf0b7dcda809498ceb22b0a003a25719ff0a29190a250565b3360009081526020819052604090205460ff161515600114610b135760405162461bcd60e51b81526004018080602001828103825260348152602001806124226034913960400191505060405180910390fd5b60038790556004869055600585905560068490556007839055600882905560098190556040805186815260208101869052808201849052606081018390529051849188918a917f29c0b838679b891ac361179b94271be3e8411db2fddcf405584aac6ced8f0d5d919081900360800190a450505050505050565b3360009081526020819052604090205460ff161515600114610be05760405162461bcd60e51b81526004018080602001828103825260348152602001806124226034913960400191505060405180910390fd5b6001600160a01b038116600081815260208190526040808220805460ff19169055517f6a35edfb19dff31b968882a3f9eeef54e0ca71bb9af2db6e085f409715d3c5479190a250565b60055481565b6001600160a01b031660009081526020819052604090205460ff1690565b60045481565b60075481565b6001600160a01b0316600090815260016020526040902054610100900460ff1690565b6001600160a01b03166000908152600c602052604090205460ff1690565b6000436007541115610ceb576040805162461bcd60e51b8152602060048201526015602482015274576974686472617720697320746f6f206561726c7960581b604482015290519081900360640190fd5b436008541015610d39576040805162461bcd60e51b8152602060048201526014602482015273576974686472617720697320746f6f206c61746560601b604482015290519081900360640190fd5b816005541115610d88576040805162461bcd60e51b815260206004820152601560248201527415da5d1a191c985dc81a5cc81d1bdbc81cdb585b1b605a1b604482015290519081900360640190fd5b816006541015610dd5576040805162461bcd60e51b8152602060048201526013602482015272576974686472617720697320746f6f2062696760681b604482015290519081900360640190fd5b610ddf8383612022565b50600190505b92915050565b3360009081526020819052604090205460ff161515600114610e3e5760405162461bcd60e51b81526004018080602001828103825260348152602001806124226034913960400191505060405180910390fd5b6001600160a01b0381166000818152600b6020526040808220805460ff19169055517fcd738a4cd4be2dbc4fb823ce1fe9e8f5ed0f59e52585d010b921f2a0d8aa91f59190a250565b60095481565b3360009081526020819052604090205460ff161515600114610ee05760405162461bcd60e51b81526004018080602001828103825260348152602001806124226034913960400191505060405180910390fd5b60408051808201825260ff808416808352600160208085018281526001600160a01b03891660008181529383529287902095518654915115156101000261ff00199190961660ff199092169190911716939093179093558351908152925191927fac0f2ecc83cf8e558ff37d73aa2c5512b98284793ee01338bde3c5413c4a4f3c929081900390910190a25050565b336000908152600c602052604090205460ff161515600114610fc25760405162461bcd60e51b81526004018080602001828103825260348152602001806122bc6034913960400191505060405180910390fd5b60405162461bcd60e51b81526004018080602001828103825260288152602001806124566028913960400191505060405180910390fd5b600d546001600160a01b031681565b600f805460408051602060026001851615610100026000190190941693909304601f810184900484028201840190925281815292918301828280156109845780601f1061095957610100808354040283529160200191610984565b3360009081526020819052604090205460ff1615156001146110b65760405162461bcd60e51b81526004018080602001828103825260348152602001806124226034913960400191505060405180910390fd5b600d546001600160a01b0316156110fe5760405162461bcd60e51b815260040180806020018281038252602e81526020018061237b602e913960400191505060405180910390fd5b600d80546001600160a01b0319166001600160a01b0383169081179091556040517f0b93a95d542a8b160e57395efb1d1fc97d35d02e8490fdcd59a458631f7f137c90600090a250565b3360009081526020819052604090205460ff16151560011461119b5760405162461bcd60e51b81526004018080602001828103825260348152602001806124226034913960400191505060405180910390fd5b6001600160a01b0381166000818152600c6020526040808220805460ff19166001179055517fa9bb5f0420fe64668db4e81d54bad8406be59942fe85b2e79bac99153cfcd4749190a250565b3360009081526020819052604090205460ff16151560011461123a5760405162461bcd60e51b81526004018080602001828103825260348152602001806124226034913960400191505060405180910390fd5b43600781905560088290556040805183815290517f97a660e3b48b89986dcce60fd510e56fd0fdda96a4ef9809e379a1e7f38e6d229181900360200190a250565b60004360035411156112d4576040805162461bcd60e51b815260206004820152601760248201527f496e766573746d656e7420697320746f6f206561726c79000000000000000000604482015290519081900360640190fd5b436004541015611324576040805162461bcd60e51b8152602060048201526016602482015275496e766573746d656e7420697320746f6f206c61746560501b604482015290519081900360640190fd5b81600554111561137b576040805162461bcd60e51b815260206004820152601760248201527f496e766573746d656e7420697320746f6f20736d616c6c000000000000000000604482015290519081900360640190fd5b8160065410156113ca576040805162461bcd60e51b8152602060048201526015602482015274496e766573746d656e7420697320746f6f2062696760581b604482015290519081900360640190fd5b610ddf8383612088565b3360009081526020819052604090205460ff1615156001146114275760405162461bcd60e51b81526004018080602001828103825260348152602001806124226034913960400191505060405180910390fd5b6002805482151560ff19909116811790915560408051918252517fe62bdb61323f62d0f836f645b27bab637d5c91cac0de59ffc61ccd02c6ac80559181900360200190a150565b600a546001600160a01b031681565b3360009081526020819052604090205460ff1615156001146114d05760405162461bcd60e51b81526004018080602001828103825260348152602001806124226034913960400191505060405180910390fd5b6001600160a01b038116600081815260208190526040808220805460ff19166001179055517fd7f0afc2242fe9a5f45af6dea542902933e36c643299a53b1057b13cf8bcad809190a250565b60065481565b336000908152600c602052604090205460ff1615156001146115755760405162461bcd60e51b81526004018080602001828103825260348152602001806122bc6034913960400191505060405180910390fd5b61157d611a35565b6115b85760405162461bcd60e51b81526004018080602001828103825260248152602001806123a96024913960400191505060405180910390fd5b816115c285610880565b10156115ff5760405162461bcd60e51b81526004018080602001828103825260288152602001806123fa6028913960400191505060405180910390fd5b600a546116179085906001600160a01b0316846120e7565b600a5460408051633baff63160e11b815260ff881660048201526001600160a01b0387811660248301528681166044830152606482018690526084820185905291519190921691829163775fec629160a48082019260009290919082900301818387803b15801561168757600080fd5b505af115801561169b573d6000803e3d6000fd5b50505050505050505050565b336000908152600b602052604090205460ff1615156001146116fa5760405162461bcd60e51b815260040180806020018281038252603781526020018061231c6037913960400191505060405180910390fd5b611704838261127b565b611755576040805162461bcd60e51b815260206004820152601f60248201527f47616c617869733a206e6f7420616c6c6f77656420746f206465706f73697400604482015290519081900360640190fd5b60408051636eb1769f60e11b81526001600160a01b0384811660048301523060248301529151859284929084169163dd62ed3e91604480820192602092909190829003018186803b1580156117a957600080fd5b505afa1580156117bd573d6000803e3d6000fd5b505050506040513d60208110156117d357600080fd5b50511015611828576040805162461bcd60e51b815260206004820152601f60248201527f47616c617869733a206465706f736974206973206e6f7420616c6c6f77656400604482015290519081900360640190fd5b604080516323b872dd60e01b81526001600160a01b038581166004830152306024830152604482018590529151918316916323b872dd916064808201926020929091908290030181600087803b15801561188157600080fd5b505af1158015611895573d6000803e3d6000fd5b505050506040513d60208110156118ab57600080fd5b506000905060646118bb86611ec8565b60ff168402816118c757fe5b600d54604080516340c10f1960e01b81526001600160a01b0389811660048301529490930460248401819052905190945092169182916340c10f1991604480830192600092919082900301818387803b15801561192357600080fd5b505af1158015611937573d6000803e3d6000fd5b50506040805187815290516001600160a01b03808a1694508a1692507f3cddd180357d92f4979ab1b68037b2552053aeab663eae8986d16a38193136109181900360200190a3505050505050565b3360009081526020819052604090205460ff1615156001146119d85760405162461bcd60e51b81526004018080602001828103825260348152602001806124226034913960400191505060405180910390fd5b600a80546001600160a01b0319166001600160a01b0383169081179091556040517f101456e9dc0c87e1ecf3aa5305adf4634567685f40b0097eb396fd6d55abdcf990600090a250565b60035481565b60025460ff1681565b4790565b6000611a3f61216c565b506000905090565b3360009081526020819052604090205460ff161515600114611a9a5760405162461bcd60e51b81526004018080602001828103825260348152602001806124226034913960400191505060405180910390fd5b80600081518110611aa757fe5b602002602001015160038190555080600181518110611ac257fe5b602002602001015160048190555080600281518110611add57fe5b602002602001015160058190555080600381518110611af857fe5b602002602001015160068190555080600481518110611b1357fe5b602002602001015160078190555080600581518110611b2e57fe5b602002602001015160088190555080600681518110611b4957fe5b602002602001015160098190555080600481518110611b6457fe5b602002602001015181600181518110611b7957fe5b602002602001015182600081518110611b8e57fe5b60200260200101517f29c0b838679b891ac361179b94271be3e8411db2fddcf405584aac6ced8f0d5d84600281518110611bc457fe5b602002602001015185600381518110611bd957fe5b602002602001015186600581518110611bee57fe5b602002602001015187600681518110611c0357fe5b60200260200101516040518085815260200184815260200183815260200182815260200194505050505060405180910390a450565b6001600160a01b03166000908152600b602052604090205460ff1690565b60085481565b336000908152600b602052604090205460ff161515600114611caf5760405162461bcd60e51b815260040180806020018281038252603781526020018061231c6037913960400191505060405180910390fd5b611cb98382610c9a565b611d0a576040805162461bcd60e51b815260206004820181905260248201527f47616c617869733a206e6f7420616c6c6f77656420746f207769746864726177604482015290519081900360640190fd5b600d5460408051636eb1769f60e11b81526001600160a01b038581166004830152306024830152915191909216918391839163dd62ed3e916044808301926020929190829003018186803b158015611d6157600080fd5b505afa158015611d75573d6000803e3d6000fd5b505050506040513d6020811015611d8b57600080fd5b50511015611de0576040805162461bcd60e51b815260206004820181905260248201527f47616c617869733a207769746864726177206973206e6f7420616c6c6f776564604482015290519081900360640190fd5b6000611deb85611ec8565b60ff168360640281611df957fe5b049050611e078585836121cd565b816001600160a01b0316639dc29fac85856040518363ffffffff1660e01b815260040180836001600160a01b03166001600160a01b0316815260200182815260200192505050600060405180830381600087803b158015611e6757600080fd5b505af1158015611e7b573d6000803e3d6000fd5b50506040805186815290516001600160a01b038089169450891692507f85f9f540cd0852bca4478c431cf7245d46bb58d394eee8dafdb69de9d27c75769181900360200190a35050505050565b6001600160a01b031660009081526001602052604090205460ff1690565b3360009081526020819052604090205460ff161515600114611f395760405162461bcd60e51b81526004018080602001828103825260348152602001806124226034913960400191505060405180910390fd5b6001600160a01b038116600081815260016020526040808220805461ff0019169055517fb2425ed5c48af46b6ca1a64069d798ec183c079c7ffbd3150715248c929a33599190a250565b3360009081526020819052604090205460ff161515600114611fd65760405162461bcd60e51b81526004018080602001828103825260348152602001806124226034913960400191505060405180910390fd5b6001600160a01b0381166000818152600b6020526040808220805460ff19166001179055517f7f5d333d4d2a107179a1da732b237e5efb7adea85c231017ee785779e98411669190a250565b60025460009060ff1615612077576040805162461bcd60e51b815260206004820152601760248201527611d85b185e1a5cce88119d5b99081a5cc81b1bd8dad959604a1b604482015290519081900360640190fd5b6120818383612220565b5092915050565b60025460009060ff16156120dd576040805162461bcd60e51b815260206004820152601760248201527611d85b185e1a5cce88119d5b99081a5cc81b1bd8dad959604a1b604482015290519081900360640190fd5b612081838361226b565b6040805163095ea7b360e01b81526001600160a01b038481166004830152602482018490529151859283169163095ea7b39160448083019260209291908290030181600087803b15801561213a57600080fd5b505af115801561214e573d6000803e3d6000fd5b505050506040513d602081101561216457600080fd5b505050505050565b60025460009060ff16156121c1576040805162461bcd60e51b815260206004820152601760248201527611d85b185e1a5cce88119d5b99081a5cc81b1bd8dad959604a1b604482015290519081900360640190fd5b6121c96122b6565b5090565b6040805163a9059cbb60e01b81526001600160a01b038481166004830152602482018490529151859283169163a9059cbb9160448083019260209291908290030181600087803b15801561213a57600080fd5b600061222b83610c59565b1515600114610de55760405162461bcd60e51b815260040180806020018281038252602d8152602001806123cd602d913960400191505060405180910390fd5b600061227683610c59565b1515600114610de55760405162461bcd60e51b815260040180806020018281038252602c8152602001806122f0602c913960400191505060405180910390fd5b60019056fe47616c617869733a204163636573732064656e6965643a206e6f74206120747261646572206f662074686520636f6e747261637447616c617869733a20546f6b656e20746f206465706f736974206973206e6f742077686974656c697374656447616c617869733a204163636573732064656e6965643a206e6f7420616e20696e766573746f72206f662074686520636f6e747261637447616c617869733a206f6e6c79206c6f636b65642066756e64732063616e20626520636c6f73656447616c617869733a20536861726573207265666572656e63652063616e20626520736574206f6e6c79206f6e636547616c617869733a206e6f7420616c6c6f77656420746f20706c61636572206f7264657247616c617869733a20546f6b656e20746f207769746864726177206973206e6f742077686974656c697374656447616c617869733a206e6f7420656e6f75676820746f6b656e20746f20706c616365206f7264657247616c617869733a204163636573732064656e6965643a206e6f7420616e2061646d696e206f662074686520636f6e747261637447616c617869733a2063616e63656c206f72646572206973206e6f7420696d706c656d656e74656447616c617869733a2046616c6c6261636b206973206e6f7420737570706f72746564a264697066735822122040dca8cf5e1b696e82a9de868adbd6e410f77094d956a23dd527b861a431df1364736f6c6343000605003360806040523480156200001157600080fd5b506040516200112838038062001128833981810160405260808110156200003757600080fd5b81019080805160405193929190846401000000008211156200005857600080fd5b9083019060208201858111156200006e57600080fd5b82516401000000008111828201881017156200008957600080fd5b82525081516020918201929091019080838360005b83811015620000b85781810151838201526020016200009e565b50505050905090810190601f168015620000e65780820380516001836020036101000a031916815260200191505b50604052602001805160405193929190846401000000008211156200010a57600080fd5b9083019060208201858111156200012057600080fd5b82516401000000008111828201881017156200013b57600080fd5b82525081516020918201929091019080838360005b838110156200016a57818101518382015260200162000150565b50505050905090810190601f168015620001985780820380516001836020036101000a031916815260200191505b506040908152602082810151929091015186519294509250829186918691620001c8916003919085019062000246565b508051620001de90600490602084019062000246565b5050600580546001600160a01b0390931661010002610100600160a81b031960ff1990941660121793909316929092179091555062000226826001600160e01b036200023016565b50505050620002eb565b6005805460ff191660ff92909216919091179055565b828054600181600116156101000203166002900490600052602060002090601f016020900481019282601f106200028957805160ff1916838001178555620002b9565b82800160010185558215620002b9579182015b82811115620002b95782518255916020019190600101906200029c565b50620002c7929150620002cb565b5090565b620002e891905b80821115620002c75760008155600101620002d2565b90565b610e2d80620002fb6000396000f3fe608060405234801561001057600080fd5b50600436106100cf5760003560e01c806340c10f191161008c5780639dc29fac116100665780639dc29fac14610287578063a457c2d7146102b3578063a9059cbb146102df578063dd62ed3e1461030b576100cf565b806340c10f191461022b57806370a082311461025957806395d89b411461027f576100cf565b806306fdde03146100d4578063095ea7b31461015157806318160ddd1461019157806323b872dd146101ab578063313ce567146101e157806339509351146101ff575b600080fd5b6100dc610339565b6040805160208082528351818301528351919283929083019185019080838360005b838110156101165781810151838201526020016100fe565b50505050905090810190601f1680156101435780820380516001836020036101000a031916815260200191505b509250505060405180910390f35b61017d6004803603604081101561016757600080fd5b506001600160a01b0381351690602001356103cf565b604080519115158252519081900360200190f35b6101996103ec565b60408051918252519081900360200190f35b61017d600480360360608110156101c157600080fd5b506001600160a01b038135811691602081013590911690604001356103f2565b6101e961047f565b6040805160ff9092168252519081900360200190f35b61017d6004803603604081101561021557600080fd5b506001600160a01b038135169060200135610488565b6102576004803603604081101561024157600080fd5b506001600160a01b0381351690602001356104dc565b005b6101996004803603602081101561026f57600080fd5b50356001600160a01b0316610548565b6100dc610563565b6102576004803603604081101561029d57600080fd5b506001600160a01b0381351690602001356105c4565b61017d600480360360408110156102c957600080fd5b506001600160a01b03813516906020013561062c565b61017d600480360360408110156102f557600080fd5b506001600160a01b03813516906020013561069a565b6101996004803603604081101561032157600080fd5b506001600160a01b03813581169160200135166106ae565b60038054604080516020601f60026000196101006001881615020190951694909404938401819004810282018101909252828152606093909290918301828280156103c55780601f1061039a576101008083540402835291602001916103c5565b820191906000526020600020905b8154815290600101906020018083116103a857829003601f168201915b5050505050905090565b60006103e36103dc6106d9565b84846106dd565b50600192915050565b60025490565b60006103ff8484846107c9565b6104758461040b6106d9565b61047085604051806060016040528060288152602001610d0d602891396001600160a01b038a166000908152600160205260408120906104496106d9565b6001600160a01b03168152602081019190915260400160002054919063ffffffff61093016565b6106dd565b5060019392505050565b60055460ff1690565b60006103e36104956106d9565b8461047085600160006104a66106d9565b6001600160a01b03908116825260208083019390935260409182016000908120918c16815292529020549063ffffffff6109c716565b60055461010090046001600160a01b0316331480156104ff57506104ff33610a28565b61053a5760405162461bcd60e51b8152600401808060200182810382526034815260200180610d9f6034913960400191505060405180910390fd5b6105448282610a34565b5050565b6001600160a01b031660009081526020819052604090205490565b60048054604080516020601f60026000196101006001881615020190951694909404938401819004810282018101909252828152606093909290918301828280156103c55780601f1061039a576101008083540402835291602001916103c5565b60055461010090046001600160a01b0316331480156105e757506105e733610a28565b6106225760405162461bcd60e51b8152600401808060200182810382526034815260200180610d9f6034913960400191505060405180910390fd5b6105448282610b30565b60006103e36106396106d9565b8461047085604051806060016040528060258152602001610dd360259139600160006106636106d9565b6001600160a01b03908116825260208083019390935260409182016000908120918d1681529252902054919063ffffffff61093016565b60006103e36106a76106d9565b84846107c9565b6001600160a01b03918216600090815260016020908152604080832093909416825291909152205490565b3390565b6001600160a01b0383166107225760405162461bcd60e51b8152600401808060200182810382526024815260200180610d7b6024913960400191505060405180910390fd5b6001600160a01b0382166107675760405162461bcd60e51b8152600401808060200182810382526022815260200180610cc56022913960400191505060405180910390fd5b6001600160a01b03808416600081815260016020908152604080832094871680845294825291829020859055815185815291517f8c5be1e5ebec7d5bd14f71427d1e84f3dd0314c0f7b2291e5b200ac8c7c3b9259281900390910190a3505050565b6001600160a01b03831661080e5760405162461bcd60e51b8152600401808060200182810382526025815260200180610d566025913960400191505060405180910390fd5b6001600160a01b0382166108535760405162461bcd60e51b8152600401808060200182810382526023815260200180610c806023913960400191505060405180910390fd5b61085e838383610c38565b6108a181604051806060016040528060268152602001610ce7602691396001600160a01b038616600090815260208190526040902054919063ffffffff61093016565b6001600160a01b0380851660009081526020819052604080822093909355908416815220546108d6908263ffffffff6109c716565b6001600160a01b038084166000818152602081815260409182902094909455805185815290519193928716927fddf252ad1be2c89b69c2b068fc378daa952ba7f163c4a11628f55a4df523b3ef92918290030190a3505050565b600081848411156109bf5760405162461bcd60e51b81526004018080602001828103825283818151815260200191508051906020019080838360005b8381101561098457818101518382015260200161096c565b50505050905090810190601f1680156109b15780820380516001836020036101000a031916815260200191505b509250505060405180910390fd5b505050900390565b600082820183811015610a21576040805162461bcd60e51b815260206004820152601b60248201527f536166654d6174683a206164646974696f6e206f766572666c6f770000000000604482015290519081900360640190fd5b9392505050565b3b63ffffffff16151590565b6001600160a01b038216610a8f576040805162461bcd60e51b815260206004820152601f60248201527f45524332303a206d696e7420746f20746865207a65726f206164647265737300604482015290519081900360640190fd5b610a9b60008383610c38565b600254610aae908263ffffffff6109c716565b6002556001600160a01b038216600090815260208190526040902054610ada908263ffffffff6109c716565b6001600160a01b0383166000818152602081815260408083209490945583518581529351929391927fddf252ad1be2c89b69c2b068fc378daa952ba7f163c4a11628f55a4df523b3ef9281900390910190a35050565b6001600160a01b038216610b755760405162461bcd60e51b8152600401808060200182810382526021815260200180610d356021913960400191505060405180910390fd5b610b8182600083610c38565b610bc481604051806060016040528060228152602001610ca3602291396001600160a01b038516600090815260208190526040902054919063ffffffff61093016565b6001600160a01b038316600090815260208190526040902055600254610bf0908263ffffffff610c3d16565b6002556040805182815290516000916001600160a01b038516917fddf252ad1be2c89b69c2b068fc378daa952ba7f163c4a11628f55a4df523b3ef9181900360200190a35050565b505050565b6000610a2183836040518060400160405280601e81526020017f536166654d6174683a207375627472616374696f6e206f766572666c6f77000081525061093056fe45524332303a207472616e7366657220746f20746865207a65726f206164647265737345524332303a206275726e20616d6f756e7420657863656564732062616c616e636545524332303a20617070726f766520746f20746865207a65726f206164647265737345524332303a207472616e7366657220616d6f756e7420657863656564732062616c616e636545524332303a207472616e7366657220616d6f756e74206578636565647320616c6c6f77616e636545524332303a206275726e2066726f6d20746865207a65726f206164647265737345524332303a207472616e736665722066726f6d20746865207a65726f206164647265737345524332303a20617070726f76652066726f6d20746865207a65726f206164647265737347616c617869733a2049742063616e2062652063616c6c6564206f6e6c792066726f6d207468652046756e64204d616e6167657245524332303a2064656372656173656420616c6c6f77616e63652062656c6f77207a65726fa264697066735822122033b688f500bd19b4aee69f4ba32ff2b11cf8aec29f248ba0487adfd01352475d64736f6c63430006050033a264697066735822122065d3534c0562e7ef07fd64d07851f861acfb2b365dfb6b90fc87b6332914f7e364736f6c63430006050033",
  "immutableReferences": {},
  "source": "pragma solidity ^0.6.0;\npragma experimental ABIEncoderV2;\n\n\nimport '../Governance/GX_GovernanceAdmin.sol';\nimport '../Tokens/GX_SharesTKN.sol';\nimport '../FundManager/GX_FundManager.sol';\nimport '../DEXManager/GX_DEXManager.sol';\n\n/// @author Solidity Services\n/// @title Galaxis: Fund factory implementation\n/// @notice Fund factory for setting up tokens in one transaction\ncontract GX_FundFactory is GX_GovernanceAdmin {\n\n    /// STRUCTS\n\n    /// VARIABLES\n\n    /// EVENTS\n    /// @notice event for dex manager creation\n    event GX_FundManagerCreated(address indexed fundManagerAddress, string name, uint serialNum);\n    /// @notice event for dex manager creation\n    event GX_DEXManagerCreated(address indexed dexManagerAddress, uint serialNum);\n    /// @notice event for dex manager creation\n    event GX_SharesTKNCreated(address indexed sharesTKNAddress, uint serialNum);\n\n\n    /// CONSTRUCTOR\n\n    /// MODIFIERS\n\n    /// TRANSACTIONS\n\n    /// @notice creating FUND manager\n    /// @dev ...\n    /// @param _names name information \n        /// 0 - fund name, \n        /// 1 - fund details, \n        /// 2 - token name, \n        /// 3 - token description\n    /// @param _investmentDetails investment details information\n    /// @param _adminAddresses admin addresses \n    /// @param _traderAddresses trader addresses\n    /// @param _investorAddresses investor addresses\n    function createFUND (\n        string[] memory _names,\n        uint[] memory _investmentDetails,\n        address[] memory _adminAddresses,\n        address[] memory _traderAddresses,\n        address[] memory _investorAddresses,\n        uint8 _decimals,\n        address dexManagerAddress,\n        uint _serialNum\n    ) public onlyAdmin returns (address) {\n        // create fund manager\n        GX_FundManager fundManager = new GX_FundManager(_names[0], _names[1]);\n\n        // setup rules\n        fundManager.changeRulesArray(_investmentDetails);\n\n        // adding admins to the Fund manager\n        for (uint i=0; i < _adminAddresses.length; i++) {\n            fundManager.addAdmin(_adminAddresses[i]);\n        }\n\n        // patch for deployment\n        fundManager.addAdmin(msg.sender);\n        fundManager.addAdmin(tx.origin);\n\n        // adding traders to the Fund manager\n        for (uint j=0; j < _traderAddresses.length; j++) {\n            fundManager.addTrader(_traderAddresses[j]);\n        }\n\n        // adding investors to the Fund manager\n        for (uint k=0; k < _investorAddresses.length; k++) {\n            fundManager.addInvestor(_investorAddresses[k]);\n        }\n\n        // raise event\n        emit GX_FundManagerCreated(address(fundManager),_names[0], _serialNum);\n\n        // create shares token\n        GX_SharesTKN shares = new GX_SharesTKN(\n            _names[2],\n            _names[3],\n            _decimals,\n            address(fundManager)\n        );\n\n        // raise event if there was a new creation\n        emit GX_SharesTKNCreated(address(shares), _serialNum);\n        // return address\n        return address(fundManager);\n    }\n\n}",
  "sourcePath": "/home/dsz/git/galaxistest/galaxis/contracts/FundFactory/GX_FundFactory.sol",
  "compiler": {
    "name": "solc",
    "version": "0.6.5+commit.f956cc89.Emscripten.clang"
  },
  "schemaVersion": "3.2.2-next.0",
  "updatedAt": "2020-08-13T15:10:49.126Z",
  "networkType": "ethereum",
  "devdoc": {
    "author": "Solidity Services",
    "methods": {
      "addAdmin(address)": {
        "details": "...",
        "params": {
          "_newAdmin": "new admin of the contract"
        }
      },
      "createFUND(string[],uint256[],address[],address[],address[],uint8,address,uint256)": {
        "details": "...",
        "params": {
          "_adminAddresses": "admin addresses ",
          "_investmentDetails": "investment details information",
          "_investorAddresses": "investor addresses",
          "_names": "name information  0 - fund name,  1 - fund details,  2 - token name,  3 - token description",
          "_traderAddresses": "trader addresses"
        }
      },
      "isAdmin(address)": {
        "details": "...",
        "params": {
          "_addressToCheck": "the address to be checked"
        }
      },
      "removeAdmin(address)": {
        "details": "...",
        "params": {
          "_adminToDelete": "removing the admin from the contract"
        }
      }
    },
    "title": "Galaxis: Fund factory implementation"
  },
  "userdoc": {
    "methods": {
      "addAdmin(address)": {
        "notice": "TRANSACTIONSadding a new admin to the contract"
      },
      "createFUND(string[],uint256[],address[],address[],address[],uint8,address,uint256)": {
        "notice": "CONSTRUCTOR MODIFIERS TRANSACTIONScreating FUND manager"
      },
      "isAdmin(address)": {
        "notice": "VIEWSchecking if the address is admin"
      },
      "removeAdmin(address)": {
        "notice": "removing an admin from the contract"
      }
    },
    "notice": "Fund factory for setting up tokens in one transaction"
  }
}