{
  "contractName": "GX_GovernanceAdmin",
  "abi": [
    {
      "inputs": [],
      "stateMutability": "nonpayable",
      "type": "constructor"
    },
    {
      "anonymous": false,
      "inputs": [
        {
          "indexed": true,
          "internalType": "address",
          "name": "adminAddress",
          "type": "address"
        }
      ],
      "name": "GX_AdminAdded",
      "type": "event"
    },
    {
      "anonymous": false,
      "inputs": [
        {
          "indexed": true,
          "internalType": "address",
          "name": "adminAddress",
          "type": "address"
        }
      ],
      "name": "GX_AdminRemoved",
      "type": "event"
    },
    {
      "inputs": [
        {
          "internalType": "address",
          "name": "_newAdmin",
          "type": "address"
        }
      ],
      "name": "addAdmin",
      "outputs": [],
      "stateMutability": "nonpayable",
      "type": "function"
    },
    {
      "inputs": [
        {
          "internalType": "address",
          "name": "_adminToDelete",
          "type": "address"
        }
      ],
      "name": "removeAdmin",
      "outputs": [],
      "stateMutability": "nonpayable",
      "type": "function"
    },
    {
      "inputs": [
        {
          "internalType": "address",
          "name": "_addressToCheck",
          "type": "address"
        }
      ],
      "name": "isAdmin",
      "outputs": [
        {
          "internalType": "bool",
          "name": "",
          "type": "bool"
        }
      ],
      "stateMutability": "view",
      "type": "function"
    }
  ],
  "bytecode": "0x608060405234801561001057600080fd5b50336000908152602081905260409020805460ff191660011790556102918061003a6000396000f3fe608060405234801561001057600080fd5b50600436106100415760003560e01c80631785f53c1461004657806324d7806c1461006e57806370480275146100a8575b600080fd5b61006c6004803603602081101561005c57600080fd5b50356001600160a01b03166100ce565b005b6100946004803603602081101561008457600080fd5b50356001600160a01b031661016a565b604080519115158252519081900360200190f35b61006c600480360360208110156100be57600080fd5b50356001600160a01b0316610188565b3360009081526020819052604090205460ff1615156001146101215760405162461bcd60e51b81526004018080602001828103825260348152602001806102286034913960400191505060405180910390fd5b6001600160a01b038116600081815260208190526040808220805460ff19169055517f6a35edfb19dff31b968882a3f9eeef54e0ca71bb9af2db6e085f409715d3c5479190a250565b6001600160a01b031660009081526020819052604090205460ff1690565b3360009081526020819052604090205460ff1615156001146101db5760405162461bcd60e51b81526004018080602001828103825260348152602001806102286034913960400191505060405180910390fd5b6001600160a01b038116600081815260208190526040808220805460ff19166001179055517fd7f0afc2242fe9a5f45af6dea542902933e36c643299a53b1057b13cf8bcad809190a25056fe47616c617869733a204163636573732064656e6965643a206e6f7420616e2061646d696e206f662074686520636f6e7472616374a26469706673582212203235e6e7336f980a44ec80738a26c27b9e196de1846f7040e0e977aab2ac9b4f64736f6c63430006050033",
  "immutableReferences": {},
  "source": "pragma solidity ^0.6.0;\n\n/// @author Solidity Services\n/// @title Galaxis: Governance implementation\n/// @notice Simple Governance admin ancestor class\ncontract GX_GovernanceAdmin {\n\n    /// @notice admins\n    mapping (address => bool) admins;\n\n    /// EVENTS: user facing events\n    /// @notice event for adding an admin\n    event GX_AdminAdded(address indexed adminAddress);\n    /// @notice event for removing admin\n    event GX_AdminRemoved(address indexed adminAddress);\n\n\n    /// CONSTRUCTOR\n    \n    /// @notice creating a simple governance contract and initializing the creator as admin\n    /// @dev ...\n    constructor() public {\n        admins[msg.sender] = true;\n    }\n\n    /// MODIFIERS\n    /// @notice only admin can execute\n    modifier onlyAdmin() {\n        require(admins[msg.sender] == true, \"Galaxis: Access denied: not an admin of the contract\");\n        _;\n    }\n\n    /// TRANSACTIONS\n\n    /// @notice adding a new admin to the contract\n    /// @dev ...\n    /// @param _newAdmin new admin of the contract\n    function addAdmin(address _newAdmin) public onlyAdmin {\n        admins[_newAdmin] = true;\n        emit GX_AdminAdded(_newAdmin);\n    }\n\n    /// @notice removing an admin from the contract\n    /// @dev ...\n    /// @param _adminToDelete removing the admin from the contract\n    function removeAdmin(address _adminToDelete) public onlyAdmin {\n        admins[_adminToDelete] = false;\n        emit GX_AdminRemoved(_adminToDelete);\n    }\n\n    /// VIEWS\n\n    /// @notice checking if the address is admin\n    /// @dev ...\n    /// @param _addressToCheck the address to be checked\n    function isAdmin(address _addressToCheck) public view returns (bool) {\n        return admins[_addressToCheck];\n    }\n\n}",
  "sourcePath": "/home/dsz/git/galaxistest/galaxis/contracts/Governance/GX_GovernanceAdmin.sol",
  "compiler": {
    "name": "solc",
    "version": "0.6.5+commit.f956cc89.Emscripten.clang"
  },
  "schemaVersion": "3.2.2-next.0",
  "updatedAt": "2020-08-13T15:10:44.451Z",
  "devdoc": {
    "author": "Solidity Services",
    "methods": {
      "addAdmin(address)": {
        "details": "...",
        "params": {
          "_newAdmin": "new admin of the contract"
        }
      },
      "constructor": {
        "details": "..."
      },
      "isAdmin(address)": {
        "details": "...",
        "params": {
          "_addressToCheck": "the address to be checked"
        }
      },
      "removeAdmin(address)": {
        "details": "...",
        "params": {
          "_adminToDelete": "removing the admin from the contract"
        }
      }
    },
    "title": "Galaxis: Governance implementation"
  },
  "userdoc": {
    "methods": {
      "addAdmin(address)": {
        "notice": "TRANSACTIONSadding a new admin to the contract"
      },
      "constructor": "CONSTRUCTORcreating a simple governance contract and initializing the creator as admin",
      "isAdmin(address)": {
        "notice": "VIEWSchecking if the address is admin"
      },
      "removeAdmin(address)": {
        "notice": "removing an admin from the contract"
      }
    },
    "notice": "Simple Governance admin ancestor class"
  }
}