{
  "contractName": "GX_GovernanceTrader",
  "abi": [
    {
      "inputs": [],
      "stateMutability": "nonpayable",
      "type": "constructor"
    },
    {
      "anonymous": false,
      "inputs": [
        {
          "indexed": true,
          "internalType": "address",
          "name": "adminAddress",
          "type": "address"
        }
      ],
      "name": "GX_AdminAdded",
      "type": "event"
    },
    {
      "anonymous": false,
      "inputs": [
        {
          "indexed": true,
          "internalType": "address",
          "name": "adminAddress",
          "type": "address"
        }
      ],
      "name": "GX_AdminRemoved",
      "type": "event"
    },
    {
      "anonymous": false,
      "inputs": [
        {
          "indexed": true,
          "internalType": "address",
          "name": "tarderAddress",
          "type": "address"
        }
      ],
      "name": "GX_TraderAdded",
      "type": "event"
    },
    {
      "anonymous": false,
      "inputs": [
        {
          "indexed": true,
          "internalType": "address",
          "name": "traderAddress",
          "type": "address"
        }
      ],
      "name": "GX_TraderRemoved",
      "type": "event"
    },
    {
      "inputs": [
        {
          "internalType": "address",
          "name": "_newAdmin",
          "type": "address"
        }
      ],
      "name": "addAdmin",
      "outputs": [],
      "stateMutability": "nonpayable",
      "type": "function"
    },
    {
      "inputs": [
        {
          "internalType": "address",
          "name": "_addressToCheck",
          "type": "address"
        }
      ],
      "name": "isAdmin",
      "outputs": [
        {
          "internalType": "bool",
          "name": "",
          "type": "bool"
        }
      ],
      "stateMutability": "view",
      "type": "function"
    },
    {
      "inputs": [
        {
          "internalType": "address",
          "name": "_adminToDelete",
          "type": "address"
        }
      ],
      "name": "removeAdmin",
      "outputs": [],
      "stateMutability": "nonpayable",
      "type": "function"
    },
    {
      "inputs": [
        {
          "internalType": "address",
          "name": "_newTrader",
          "type": "address"
        }
      ],
      "name": "addTrader",
      "outputs": [],
      "stateMutability": "nonpayable",
      "type": "function"
    },
    {
      "inputs": [
        {
          "internalType": "address",
          "name": "_traderToDelete",
          "type": "address"
        }
      ],
      "name": "removeTrader",
      "outputs": [],
      "stateMutability": "nonpayable",
      "type": "function"
    },
    {
      "inputs": [
        {
          "internalType": "address",
          "name": "_addressToCheck",
          "type": "address"
        }
      ],
      "name": "isTrader",
      "outputs": [
        {
          "internalType": "bool",
          "name": "",
          "type": "bool"
        }
      ],
      "stateMutability": "view",
      "type": "function"
    }
  ],
  "bytecode": "0x608060405234801561001057600080fd5b50336000908152602081905260409020805460ff191660011790556104808061003a6000396000f3fe608060405234801561001057600080fd5b50600436106100625760003560e01c80630a1f194f146100675780631785f53c1461008f57806324d7806c146100b55780634039ad0d146100ef5780635d428e0814610115578063704802751461013b575b600080fd5b61008d6004803603602081101561007d57600080fd5b50356001600160a01b0316610161565b005b61008d600480360360208110156100a557600080fd5b50356001600160a01b03166101fd565b6100db600480360360208110156100cb57600080fd5b50356001600160a01b0316610299565b604080519115158252519081900360200190f35b6100db6004803603602081101561010557600080fd5b50356001600160a01b03166102b7565b61008d6004803603602081101561012b57600080fd5b50356001600160a01b03166102d5565b61008d6004803603602081101561015157600080fd5b50356001600160a01b0316610377565b3360009081526020819052604090205460ff1615156001146101b45760405162461bcd60e51b81526004018080602001828103825260348152602001806104176034913960400191505060405180910390fd5b6001600160a01b038116600081815260016020526040808220805460ff19169055517f125c1e69722a1f81cb8c84041dfcf0b7dcda809498ceb22b0a003a25719ff0a29190a250565b3360009081526020819052604090205460ff1615156001146102505760405162461bcd60e51b81526004018080602001828103825260348152602001806104176034913960400191505060405180910390fd5b6001600160a01b038116600081815260208190526040808220805460ff19169055517f6a35edfb19dff31b968882a3f9eeef54e0ca71bb9af2db6e085f409715d3c5479190a250565b6001600160a01b031660009081526020819052604090205460ff1690565b6001600160a01b031660009081526001602052604090205460ff1690565b3360009081526020819052604090205460ff1615156001146103285760405162461bcd60e51b81526004018080602001828103825260348152602001806104176034913960400191505060405180910390fd5b6001600160a01b0381166000818152600160208190526040808320805460ff1916909217909155517fa9bb5f0420fe64668db4e81d54bad8406be59942fe85b2e79bac99153cfcd4749190a250565b3360009081526020819052604090205460ff1615156001146103ca5760405162461bcd60e51b81526004018080602001828103825260348152602001806104176034913960400191505060405180910390fd5b6001600160a01b038116600081815260208190526040808220805460ff19166001179055517fd7f0afc2242fe9a5f45af6dea542902933e36c643299a53b1057b13cf8bcad809190a25056fe47616c617869733a204163636573732064656e6965643a206e6f7420616e2061646d696e206f662074686520636f6e7472616374a2646970667358221220fac79cf87298e7f2a42668139f05c2a5ee5ffbfc18269e56a10624539b84894c64736f6c63430006050033",
  "immutableReferences": {},
  "source": "pragma solidity ^0.6.0;\n\nimport './GX_GovernanceAdmin.sol';\n\n/// @author Solidity Services\n/// @title Galaxis: Governance implementation\n/// @notice Simple Governance investor ancestor class\ncontract GX_GovernanceTrader is GX_GovernanceAdmin {\n\n    /// @notice traders\n    mapping (address => bool) traders;\n\n    /// EVENTS: user facing events\n    /// @notice event for adding a trader\n    event GX_TraderAdded(address indexed tarderAddress);\n    /// @notice event for removing a trader\n    event GX_TraderRemoved(address indexed traderAddress);\n\n\n    /// CONSTRUCTOR\n    \n    /// @notice creating a simple governance contract for traders\n    /// @dev ...\n    constructor() public {\n    }\n\n    /// MODIFIERS\n    /// @notice only Trader\n    modifier onlyTrader() {\n        require(traders[msg.sender] == true, \"Galaxis: Access denied: not a trader of the contract\");\n        _;\n    }\n\n    /// TRANSACTIONS\n\n    /// @notice adding a new trader to the contract\n    /// @dev ...\n    /// @param _newTrader new trader of the contract\n    function addTrader(address _newTrader) public onlyAdmin {\n        traders[_newTrader] = true;\n        emit GX_TraderAdded(_newTrader);\n    }\n\n    /// @notice removing a trader from the contract\n    /// @dev ...\n    /// @param _traderToDelete removing the trader from the contract\n    function removeTrader(address _traderToDelete) public onlyAdmin {\n        traders[_traderToDelete] = false;\n        emit GX_TraderRemoved(_traderToDelete);\n    }\n\n    /// VIEWS\n\n    /// @notice checking if the address is a trader\n    /// @dev ...\n    /// @param _addressToCheck the address to be checked\n    function isTrader(address _addressToCheck) public view returns (bool) {\n        return traders[_addressToCheck];\n    }\n\n}",
  "sourcePath": "/home/dsz/git/galaxistest/galaxis/contracts/Governance/GX_GovernanceTrader.sol",
  "compiler": {
    "name": "solc",
    "version": "0.6.5+commit.f956cc89.Emscripten.clang"
  },
  "schemaVersion": "3.2.2-next.0",
  "updatedAt": "2020-08-13T15:10:44.452Z",
  "devdoc": {
    "author": "Solidity Services",
    "methods": {
      "addAdmin(address)": {
        "details": "...",
        "params": {
          "_newAdmin": "new admin of the contract"
        }
      },
      "addTrader(address)": {
        "details": "...",
        "params": {
          "_newTrader": "new trader of the contract"
        }
      },
      "constructor": {
        "details": "..."
      },
      "isAdmin(address)": {
        "details": "...",
        "params": {
          "_addressToCheck": "the address to be checked"
        }
      },
      "isTrader(address)": {
        "details": "...",
        "params": {
          "_addressToCheck": "the address to be checked"
        }
      },
      "removeAdmin(address)": {
        "details": "...",
        "params": {
          "_adminToDelete": "removing the admin from the contract"
        }
      },
      "removeTrader(address)": {
        "details": "...",
        "params": {
          "_traderToDelete": "removing the trader from the contract"
        }
      }
    },
    "title": "Galaxis: Governance implementation"
  },
  "userdoc": {
    "methods": {
      "addAdmin(address)": {
        "notice": "TRANSACTIONSadding a new admin to the contract"
      },
      "addTrader(address)": {
        "notice": "TRANSACTIONSadding a new trader to the contract"
      },
      "constructor": "CONSTRUCTORcreating a simple governance contract for traders",
      "isAdmin(address)": {
        "notice": "VIEWSchecking if the address is admin"
      },
      "isTrader(address)": {
        "notice": "VIEWSchecking if the address is a trader"
      },
      "removeAdmin(address)": {
        "notice": "removing an admin from the contract"
      },
      "removeTrader(address)": {
        "notice": "removing a trader from the contract"
      }
    },
    "notice": "Simple Governance investor ancestor class"
  }
}