{
  "contractName": "GX_Lock",
  "abi": [
    {
      "inputs": [],
      "stateMutability": "nonpayable",
      "type": "constructor"
    },
    {
      "anonymous": false,
      "inputs": [
        {
          "indexed": true,
          "internalType": "address",
          "name": "adminAddress",
          "type": "address"
        }
      ],
      "name": "GX_AdminAdded",
      "type": "event"
    },
    {
      "anonymous": false,
      "inputs": [
        {
          "indexed": true,
          "internalType": "address",
          "name": "adminAddress",
          "type": "address"
        }
      ],
      "name": "GX_AdminRemoved",
      "type": "event"
    },
    {
      "anonymous": false,
      "inputs": [
        {
          "indexed": false,
          "internalType": "bool",
          "name": "isLocked",
          "type": "bool"
        }
      ],
      "name": "GX_LockChanged",
      "type": "event"
    },
    {
      "anonymous": false,
      "inputs": [
        {
          "indexed": true,
          "internalType": "address",
          "name": "tokenAddress",
          "type": "address"
        }
      ],
      "name": "GX_TokenBlacklisted",
      "type": "event"
    },
    {
      "anonymous": false,
      "inputs": [
        {
          "indexed": true,
          "internalType": "address",
          "name": "tokenAddress",
          "type": "address"
        },
        {
          "indexed": false,
          "internalType": "uint8",
          "name": "_changeRate",
          "type": "uint8"
        }
      ],
      "name": "GX_TokenWhitelisted",
      "type": "event"
    },
    {
      "inputs": [
        {
          "internalType": "address",
          "name": "_newAdmin",
          "type": "address"
        }
      ],
      "name": "addAdmin",
      "outputs": [],
      "stateMutability": "nonpayable",
      "type": "function"
    },
    {
      "inputs": [
        {
          "internalType": "address",
          "name": "_tokenAddress",
          "type": "address"
        }
      ],
      "name": "blacklistToken",
      "outputs": [],
      "stateMutability": "nonpayable",
      "type": "function"
    },
    {
      "inputs": [
        {
          "internalType": "address",
          "name": "_tokenAddress",
          "type": "address"
        }
      ],
      "name": "getChangeRate",
      "outputs": [
        {
          "internalType": "uint8",
          "name": "",
          "type": "uint8"
        }
      ],
      "stateMutability": "view",
      "type": "function"
    },
    {
      "inputs": [
        {
          "internalType": "address",
          "name": "_addressToCheck",
          "type": "address"
        }
      ],
      "name": "isAdmin",
      "outputs": [
        {
          "internalType": "bool",
          "name": "",
          "type": "bool"
        }
      ],
      "stateMutability": "view",
      "type": "function"
    },
    {
      "inputs": [],
      "name": "isLocked",
      "outputs": [
        {
          "internalType": "bool",
          "name": "",
          "type": "bool"
        }
      ],
      "stateMutability": "view",
      "type": "function"
    },
    {
      "inputs": [
        {
          "internalType": "address",
          "name": "_tokenAddress",
          "type": "address"
        }
      ],
      "name": "isWhitelisted",
      "outputs": [
        {
          "internalType": "bool",
          "name": "",
          "type": "bool"
        }
      ],
      "stateMutability": "view",
      "type": "function"
    },
    {
      "inputs": [
        {
          "internalType": "address",
          "name": "_adminToDelete",
          "type": "address"
        }
      ],
      "name": "removeAdmin",
      "outputs": [],
      "stateMutability": "nonpayable",
      "type": "function"
    },
    {
      "inputs": [
        {
          "internalType": "address",
          "name": "_tokenAddress",
          "type": "address"
        },
        {
          "internalType": "uint8",
          "name": "_changeRate",
          "type": "uint8"
        }
      ],
      "name": "whitelistToken",
      "outputs": [],
      "stateMutability": "nonpayable",
      "type": "function"
    },
    {
      "inputs": [
        {
          "internalType": "bool",
          "name": "_newLockValue",
          "type": "bool"
        }
      ],
      "name": "setLock",
      "outputs": [],
      "stateMutability": "nonpayable",
      "type": "function"
    },
    {
      "inputs": [
        {
          "internalType": "address",
          "name": "_tknDeposit",
          "type": "address"
        },
        {
          "internalType": "uint256",
          "name": "_amount",
          "type": "uint256"
        }
      ],
      "name": "isAllowedDeposit",
      "outputs": [
        {
          "internalType": "bool",
          "name": "",
          "type": "bool"
        }
      ],
      "stateMutability": "view",
      "type": "function"
    },
    {
      "inputs": [
        {
          "internalType": "address",
          "name": "_tknDeposit",
          "type": "address"
        },
        {
          "internalType": "uint256",
          "name": "_amount",
          "type": "uint256"
        }
      ],
      "name": "isAllowedWithdraw",
      "outputs": [
        {
          "internalType": "bool",
          "name": "",
          "type": "bool"
        }
      ],
      "stateMutability": "view",
      "type": "function"
    },
    {
      "inputs": [],
      "name": "isAllowedPlaceOrder",
      "outputs": [
        {
          "internalType": "bool",
          "name": "",
          "type": "bool"
        }
      ],
      "stateMutability": "view",
      "type": "function"
    }
  ],
  "bytecode": "0x608060405234801561001057600080fd5b50336000908152602081905260409020805460ff191660011790556108c58061003a6000396000f3fe608060405234801561001057600080fd5b50600436106100b45760003560e01c8063619d519411610071578063619d5194146101c857806370480275146101e7578063a4e2d6341461020d578063c74af6a514610215578063d9e3eaa01461021d578063e125455914610259576100b4565b80631785f53c146100b957806324d7806c146100e15780633af32abf1461011b578063408962d71461014157806348499ff51461016d57806360b6cf931461019c575b600080fd5b6100df600480360360208110156100cf57600080fd5b50356001600160a01b031661027f565b005b610107600480360360208110156100f757600080fd5b50356001600160a01b031661031b565b604080519115158252519081900360200190f35b6101076004803603602081101561013157600080fd5b50356001600160a01b0316610339565b6101076004803603604081101561015757600080fd5b506001600160a01b03813516906020013561035c565b6100df6004803603604081101561018357600080fd5b5080356001600160a01b0316906020013560ff166103c2565b610107600480360360408110156101b257600080fd5b506001600160a01b0381351690602001356104a4565b6100df600480360360208110156101de57600080fd5b50351515610503565b6100df600480360360208110156101fd57600080fd5b50356001600160a01b031661059d565b61010761063c565b610107610645565b6102436004803603602081101561023357600080fd5b50356001600160a01b03166106a6565b6040805160ff9092168252519081900360200190f35b6100df6004803603602081101561026f57600080fd5b50356001600160a01b03166106c4565b3360009081526020819052604090205460ff1615156001146102d25760405162461bcd60e51b815260040180806020018281038252603481526020018061085c6034913960400191505060405180910390fd5b6001600160a01b038116600081815260208190526040808220805460ff19169055517f6a35edfb19dff31b968882a3f9eeef54e0ca71bb9af2db6e085f409715d3c5479190a250565b6001600160a01b031660009081526020819052604090205460ff1690565b6001600160a01b0316600090815260016020526040902054610100900460ff1690565b60025460009060ff16156103b1576040805162461bcd60e51b815260206004820152601760248201527611d85b185e1a5cce88119d5b99081a5cc81b1bd8dad959604a1b604482015290519081900360640190fd5b6103bb8383610761565b5092915050565b3360009081526020819052604090205460ff1615156001146104155760405162461bcd60e51b815260040180806020018281038252603481526020018061085c6034913960400191505060405180910390fd5b60408051808201825260ff808416808352600160208085018281526001600160a01b03891660008181529383529287902095518654915115156101000261ff00199190961660ff199092169190911716939093179093558351908152925191927fac0f2ecc83cf8e558ff37d73aa2c5512b98284793ee01338bde3c5413c4a4f3c929081900390910190a25050565b60025460009060ff16156104f9576040805162461bcd60e51b815260206004820152601760248201527611d85b185e1a5cce88119d5b99081a5cc81b1bd8dad959604a1b604482015290519081900360640190fd5b6103bb83836107b2565b3360009081526020819052604090205460ff1615156001146105565760405162461bcd60e51b815260040180806020018281038252603481526020018061085c6034913960400191505060405180910390fd5b6002805482151560ff19909116811790915560408051918252517fe62bdb61323f62d0f836f645b27bab637d5c91cac0de59ffc61ccd02c6ac80559181900360200190a150565b3360009081526020819052604090205460ff1615156001146105f05760405162461bcd60e51b815260040180806020018281038252603481526020018061085c6034913960400191505060405180910390fd5b6001600160a01b038116600081815260208190526040808220805460ff19166001179055517fd7f0afc2242fe9a5f45af6dea542902933e36c643299a53b1057b13cf8bcad809190a250565b60025460ff1681565b60025460009060ff161561069a576040805162461bcd60e51b815260206004820152601760248201527611d85b185e1a5cce88119d5b99081a5cc81b1bd8dad959604a1b604482015290519081900360640190fd5b6106a26107fd565b5090565b6001600160a01b031660009081526001602052604090205460ff1690565b3360009081526020819052604090205460ff1615156001146107175760405162461bcd60e51b815260040180806020018281038252603481526020018061085c6034913960400191505060405180910390fd5b6001600160a01b038116600081815260016020526040808220805461ff0019169055517fb2425ed5c48af46b6ca1a64069d798ec183c079c7ffbd3150715248c929a33599190a250565b600061076c83610339565b15156001146107ac5760405162461bcd60e51b815260040180806020018281038252602d81526020018061082f602d913960400191505060405180910390fd5b92915050565b60006107bd83610339565b15156001146107ac5760405162461bcd60e51b815260040180806020018281038252602c815260200180610803602c913960400191505060405180910390fd5b60019056fe47616c617869733a20546f6b656e20746f206465706f736974206973206e6f742077686974656c697374656447616c617869733a20546f6b656e20746f207769746864726177206973206e6f742077686974656c697374656447616c617869733a204163636573732064656e6965643a206e6f7420616e2061646d696e206f662074686520636f6e7472616374a264697066735822122046a0bafc848395ec2c714ea6015cabc1700331ae3d27f2da526fd829c93cdccb64736f6c63430006050033",
  "immutableReferences": {},
  "source": "pragma solidity ^0.6.0;\n\nimport './GX_RuleInterface.sol';\nimport '../Governance/GX_GovernanceAdmin.sol';\nimport './GX_TokenManager.sol';\n\n/// @author Solidity Services\n/// @title Galaxis: Rules for locking the fund\n/// @notice Lock or unlock the fund\ncontract GX_Lock is GX_GovernanceAdmin, GX_TokenManager {\n\n    /// @notice lock of the fund\n    bool public isLocked;\n\n    /// EVENTS: user facing events\n    /// @notice event for locking or unlocking the token\n    event GX_LockChanged(bool isLocked);\n\n    /// CONSTRUCTOR\n    constructor() public {\n    }\n\n    /// TRANSACTIONS\n\n    /// @notice locking or unlocking the fund\n    /// @dev ...\n    /// @param _newLockValue new lock value\n    function setLock(bool _newLockValue) public onlyAdmin {\n        isLocked = _newLockValue;\n        emit GX_LockChanged(_newLockValue);\n    }\n\n    /// @notice is it allowed to invest\n    /// @dev ...\n    function isAllowedDeposit(address _tknDeposit, uint _amount) public override virtual view returns (bool) {\n        require((isLocked == false), \"Galaxis: Fund is locked\");\n        super.isAllowedDeposit(_tknDeposit, _amount);\n    }\n\n    /// @notice is it allowed to withdraw\n    /// @dev ...\n    function isAllowedWithdraw(address _tknDeposit, uint _amount) public override virtual view returns (bool) {\n        require((isLocked == false), \"Galaxis: Fund is locked\");\n        super.isAllowedWithdraw(_tknDeposit, _amount);\n    }\n\n    /// @notice is it allowed to trade\n    /// @dev ...\n    function isAllowedPlaceOrder() public override virtual view returns (bool) {\n        require((isLocked == false), \"Galaxis: Fund is locked\");\n        super.isAllowedPlaceOrder();\n    }\n    /// VIEWS\n\n}",
  "sourcePath": "/home/dsz/git/galaxistest/galaxis/contracts/FundRules/GX_Lock.sol",
  "compiler": {
    "name": "solc",
    "version": "0.6.5+commit.f956cc89.Emscripten.clang"
  },
  "schemaVersion": "3.2.2-next.0",
  "updatedAt": "2020-08-13T15:10:44.445Z",
  "devdoc": {
    "author": "Solidity Services",
    "methods": {
      "addAdmin(address)": {
        "details": "...",
        "params": {
          "_newAdmin": "new admin of the contract"
        }
      },
      "blacklistToken(address)": {
        "details": "...",
        "params": {
          "_tokenAddress": "tokenaddress to blacklist"
        }
      },
      "getChangeRate(address)": {
        "details": "...",
        "params": {
          "_tokenAddress": "the address to be checked"
        }
      },
      "isAdmin(address)": {
        "details": "...",
        "params": {
          "_addressToCheck": "the address to be checked"
        }
      },
      "isAllowedDeposit(address,uint256)": {
        "details": "..."
      },
      "isAllowedPlaceOrder()": {
        "details": "..."
      },
      "isAllowedWithdraw(address,uint256)": {
        "details": "..."
      },
      "isWhitelisted(address)": {
        "details": "...",
        "params": {
          "_tokenAddress": "the address to be checked"
        }
      },
      "removeAdmin(address)": {
        "details": "...",
        "params": {
          "_adminToDelete": "removing the admin from the contract"
        }
      },
      "setLock(bool)": {
        "details": "...",
        "params": {
          "_newLockValue": "new lock value"
        }
      },
      "whitelistToken(address,uint8)": {
        "details": "...",
        "params": {
          "_changeRate": "token change rate",
          "_tokenAddress": "token to whitelist"
        }
      }
    },
    "title": "Galaxis: Rules for locking the fund"
  },
  "userdoc": {
    "methods": {
      "addAdmin(address)": {
        "notice": "TRANSACTIONSadding a new admin to the contract"
      },
      "blacklistToken(address)": {
        "notice": "blacklisting a token"
      },
      "constructor": "CONSTRUCTOR",
      "getChangeRate(address)": {
        "notice": "getting change rate for a token"
      },
      "isAdmin(address)": {
        "notice": "VIEWSchecking if the address is admin"
      },
      "isAllowedDeposit(address,uint256)": {
        "notice": "is it allowed to invest"
      },
      "isAllowedPlaceOrder()": {
        "notice": "is it allowed to trade"
      },
      "isAllowedWithdraw(address,uint256)": {
        "notice": "is it allowed to withdraw"
      },
      "isWhitelisted(address)": {
        "notice": "VIEWSchecking if the token is whitelisted"
      },
      "removeAdmin(address)": {
        "notice": "removing an admin from the contract"
      },
      "setLock(bool)": {
        "notice": "TRANSACTIONSlocking or unlocking the fund"
      },
      "whitelistToken(address,uint8)": {
        "notice": "CONSTRUCTOR TRANSACTIONSwhitelisting a new token"
      }
    },
    "notice": "Lock or unlock the fund"
  }
}