{
  "contractName": "GX_SimpleCloseEndRules",
  "abi": [
    {
      "anonymous": false,
      "inputs": [
        {
          "indexed": true,
          "internalType": "address",
          "name": "adminAddress",
          "type": "address"
        }
      ],
      "name": "GX_AdminAdded",
      "type": "event"
    },
    {
      "anonymous": false,
      "inputs": [
        {
          "indexed": true,
          "internalType": "address",
          "name": "adminAddress",
          "type": "address"
        }
      ],
      "name": "GX_AdminRemoved",
      "type": "event"
    },
    {
      "anonymous": false,
      "inputs": [
        {
          "indexed": true,
          "internalType": "uint256",
          "name": "withdrawStart",
          "type": "uint256"
        },
        {
          "indexed": false,
          "internalType": "uint256",
          "name": "withdrawEnd",
          "type": "uint256"
        }
      ],
      "name": "GX_FundClosed",
      "type": "event"
    },
    {
      "anonymous": false,
      "inputs": [
        {
          "indexed": true,
          "internalType": "uint256",
          "name": "investStart",
          "type": "uint256"
        },
        {
          "indexed": true,
          "internalType": "uint256",
          "name": "investEnd",
          "type": "uint256"
        },
        {
          "indexed": false,
          "internalType": "uint256",
          "name": "investMin",
          "type": "uint256"
        },
        {
          "indexed": false,
          "internalType": "uint256",
          "name": "investMax",
          "type": "uint256"
        },
        {
          "indexed": true,
          "internalType": "uint256",
          "name": "withdrawStart",
          "type": "uint256"
        },
        {
          "indexed": false,
          "internalType": "uint256",
          "name": "withdrawEnd",
          "type": "uint256"
        },
        {
          "indexed": false,
          "internalType": "uint256",
          "name": "traderMarge",
          "type": "uint256"
        }
      ],
      "name": "GX_FundRulesChanged",
      "type": "event"
    },
    {
      "anonymous": false,
      "inputs": [
        {
          "indexed": false,
          "internalType": "bool",
          "name": "isLocked",
          "type": "bool"
        }
      ],
      "name": "GX_LockChanged",
      "type": "event"
    },
    {
      "anonymous": false,
      "inputs": [
        {
          "indexed": true,
          "internalType": "address",
          "name": "tokenAddress",
          "type": "address"
        }
      ],
      "name": "GX_TokenBlacklisted",
      "type": "event"
    },
    {
      "anonymous": false,
      "inputs": [
        {
          "indexed": true,
          "internalType": "address",
          "name": "tokenAddress",
          "type": "address"
        },
        {
          "indexed": false,
          "internalType": "uint8",
          "name": "_changeRate",
          "type": "uint8"
        }
      ],
      "name": "GX_TokenWhitelisted",
      "type": "event"
    },
    {
      "inputs": [
        {
          "internalType": "address",
          "name": "_newAdmin",
          "type": "address"
        }
      ],
      "name": "addAdmin",
      "outputs": [],
      "stateMutability": "nonpayable",
      "type": "function"
    },
    {
      "inputs": [
        {
          "internalType": "address",
          "name": "_tokenAddress",
          "type": "address"
        }
      ],
      "name": "blacklistToken",
      "outputs": [],
      "stateMutability": "nonpayable",
      "type": "function"
    },
    {
      "inputs": [
        {
          "internalType": "address",
          "name": "_tokenAddress",
          "type": "address"
        }
      ],
      "name": "getChangeRate",
      "outputs": [
        {
          "internalType": "uint8",
          "name": "",
          "type": "uint8"
        }
      ],
      "stateMutability": "view",
      "type": "function"
    },
    {
      "inputs": [],
      "name": "investEnd",
      "outputs": [
        {
          "internalType": "uint256",
          "name": "",
          "type": "uint256"
        }
      ],
      "stateMutability": "view",
      "type": "function"
    },
    {
      "inputs": [],
      "name": "investMax",
      "outputs": [
        {
          "internalType": "uint256",
          "name": "",
          "type": "uint256"
        }
      ],
      "stateMutability": "view",
      "type": "function"
    },
    {
      "inputs": [],
      "name": "investMin",
      "outputs": [
        {
          "internalType": "uint256",
          "name": "",
          "type": "uint256"
        }
      ],
      "stateMutability": "view",
      "type": "function"
    },
    {
      "inputs": [],
      "name": "investStart",
      "outputs": [
        {
          "internalType": "uint256",
          "name": "",
          "type": "uint256"
        }
      ],
      "stateMutability": "view",
      "type": "function"
    },
    {
      "inputs": [
        {
          "internalType": "address",
          "name": "_addressToCheck",
          "type": "address"
        }
      ],
      "name": "isAdmin",
      "outputs": [
        {
          "internalType": "bool",
          "name": "",
          "type": "bool"
        }
      ],
      "stateMutability": "view",
      "type": "function"
    },
    {
      "inputs": [],
      "name": "isLocked",
      "outputs": [
        {
          "internalType": "bool",
          "name": "",
          "type": "bool"
        }
      ],
      "stateMutability": "view",
      "type": "function"
    },
    {
      "inputs": [
        {
          "internalType": "address",
          "name": "_tokenAddress",
          "type": "address"
        }
      ],
      "name": "isWhitelisted",
      "outputs": [
        {
          "internalType": "bool",
          "name": "",
          "type": "bool"
        }
      ],
      "stateMutability": "view",
      "type": "function"
    },
    {
      "inputs": [
        {
          "internalType": "address",
          "name": "_adminToDelete",
          "type": "address"
        }
      ],
      "name": "removeAdmin",
      "outputs": [],
      "stateMutability": "nonpayable",
      "type": "function"
    },
    {
      "inputs": [
        {
          "internalType": "bool",
          "name": "_newLockValue",
          "type": "bool"
        }
      ],
      "name": "setLock",
      "outputs": [],
      "stateMutability": "nonpayable",
      "type": "function"
    },
    {
      "inputs": [],
      "name": "traderMarge",
      "outputs": [
        {
          "internalType": "uint256",
          "name": "",
          "type": "uint256"
        }
      ],
      "stateMutability": "view",
      "type": "function"
    },
    {
      "inputs": [
        {
          "internalType": "address",
          "name": "_tokenAddress",
          "type": "address"
        },
        {
          "internalType": "uint8",
          "name": "_changeRate",
          "type": "uint8"
        }
      ],
      "name": "whitelistToken",
      "outputs": [],
      "stateMutability": "nonpayable",
      "type": "function"
    },
    {
      "inputs": [],
      "name": "withdrawEnd",
      "outputs": [
        {
          "internalType": "uint256",
          "name": "",
          "type": "uint256"
        }
      ],
      "stateMutability": "view",
      "type": "function"
    },
    {
      "inputs": [],
      "name": "withdrawStart",
      "outputs": [
        {
          "internalType": "uint256",
          "name": "",
          "type": "uint256"
        }
      ],
      "stateMutability": "view",
      "type": "function"
    },
    {
      "inputs": [
        {
          "internalType": "uint256",
          "name": "_investStart",
          "type": "uint256"
        },
        {
          "internalType": "uint256",
          "name": "_investEnd",
          "type": "uint256"
        },
        {
          "internalType": "uint256",
          "name": "_investMin",
          "type": "uint256"
        },
        {
          "internalType": "uint256",
          "name": "_investMax",
          "type": "uint256"
        },
        {
          "internalType": "uint256",
          "name": "_withdrawStart",
          "type": "uint256"
        },
        {
          "internalType": "uint256",
          "name": "_withdrawEnd",
          "type": "uint256"
        },
        {
          "internalType": "uint256",
          "name": "_traderMarge",
          "type": "uint256"
        }
      ],
      "name": "changeRules",
      "outputs": [],
      "stateMutability": "nonpayable",
      "type": "function"
    },
    {
      "inputs": [
        {
          "internalType": "uint256[]",
          "name": "_rules",
          "type": "uint256[]"
        }
      ],
      "name": "changeRulesArray",
      "outputs": [],
      "stateMutability": "nonpayable",
      "type": "function"
    },
    {
      "inputs": [
        {
          "internalType": "uint256",
          "name": "_withdrawEnd",
          "type": "uint256"
        }
      ],
      "name": "closeFund",
      "outputs": [],
      "stateMutability": "nonpayable",
      "type": "function"
    },
    {
      "inputs": [
        {
          "internalType": "address",
          "name": "_tknDeposit",
          "type": "address"
        },
        {
          "internalType": "uint256",
          "name": "_amount",
          "type": "uint256"
        }
      ],
      "name": "isAllowedDeposit",
      "outputs": [
        {
          "internalType": "bool",
          "name": "",
          "type": "bool"
        }
      ],
      "stateMutability": "view",
      "type": "function"
    },
    {
      "inputs": [
        {
          "internalType": "address",
          "name": "_tknDeposit",
          "type": "address"
        },
        {
          "internalType": "uint256",
          "name": "_amount",
          "type": "uint256"
        }
      ],
      "name": "isAllowedWithdraw",
      "outputs": [
        {
          "internalType": "bool",
          "name": "",
          "type": "bool"
        }
      ],
      "stateMutability": "view",
      "type": "function"
    },
    {
      "inputs": [],
      "name": "isAllowedPlaceOrder",
      "outputs": [
        {
          "internalType": "bool",
          "name": "",
          "type": "bool"
        }
      ],
      "stateMutability": "view",
      "type": "function"
    }
  ],
  "bytecode": "0x60806040908152336000908152602081905220805460ff191660011790556110d08061002c6000396000f3fe608060405234801561001057600080fd5b50600436106101425760003560e01c806360b6cf93116100b8578063a4e2d6341161007c578063a4e2d6341461033b578063c74af6a514610343578063c86cdce21461034b578063d6edbc0f146103ee578063d9e3eaa0146103f6578063e12545591461043257610142565b806360b6cf93146102ba578063619d5194146102e657806370480275146103055780637143ddab1461032b578063a367d99a1461033357610142565b8063353619091161010a578063353619091461020c5780633af32abf14610214578063408962d71461023a578063456905c81461026657806348499ff51461026e578063609a49701461029d57610142565b80630f5d8b1a146101475780631785f53c1461018a57806318996fd3146101b057806324d7806c146101ca5780632b63c4a914610204575b600080fd5b610188600480360360e081101561015d57600080fd5b5080359060208101359060408101359060608101359060808101359060a08101359060c00135610458565b005b610188600480360360208110156101a057600080fd5b50356001600160a01b0316610525565b6101b86105c1565b60408051918252519081900360200190f35b6101f0600480360360208110156101e057600080fd5b50356001600160a01b03166105c7565b604080519115158252519081900360200190f35b6101b86105e5565b6101b86105eb565b6101f06004803603602081101561022a57600080fd5b50356001600160a01b03166105f1565b6101f06004803603604081101561025057600080fd5b506001600160a01b038135169060200135610614565b6101b8610765565b6101886004803603604081101561028457600080fd5b5080356001600160a01b0316906020013560ff1661076b565b610188600480360360208110156102b357600080fd5b503561084d565b6101f0600480360360408110156102d057600080fd5b506001600160a01b0381351690602001356108e1565b610188600480360360208110156102fc57600080fd5b50351515610a3a565b6101886004803603602081101561031b57600080fd5b50356001600160a01b0316610ad4565b6101b8610b73565b6101b8610b79565b6101f0610b7f565b6101f0610b88565b6101886004803603602081101561036157600080fd5b81019060208101813564010000000081111561037c57600080fd5b82018360208201111561038e57600080fd5b803590602001918460208302840111640100000000831117156103b057600080fd5b919080806020026020016040519081016040528093929190818152602001838360200280828437600092019190915250929550610b9a945050505050565b6101b8610d8b565b61041c6004803603602081101561040c57600080fd5b50356001600160a01b0316610d91565b6040805160ff9092168252519081900360200190f35b6101886004803603602081101561044857600080fd5b50356001600160a01b0316610daf565b3360009081526020819052604090205460ff1615156001146104ab5760405162461bcd60e51b81526004018080602001828103825260348152602001806110676034913960400191505060405180910390fd5b60038790556004869055600585905560068490556007839055600882905560098190556040805186815260208101869052808201849052606081018390529051849188918a917f29c0b838679b891ac361179b94271be3e8411db2fddcf405584aac6ced8f0d5d919081900360800190a450505050505050565b3360009081526020819052604090205460ff1615156001146105785760405162461bcd60e51b81526004018080602001828103825260348152602001806110676034913960400191505060405180910390fd5b6001600160a01b038116600081815260208190526040808220805460ff19169055517f6a35edfb19dff31b968882a3f9eeef54e0ca71bb9af2db6e085f409715d3c5479190a250565b60055481565b6001600160a01b031660009081526020819052604090205460ff1690565b60045481565b60075481565b6001600160a01b0316600090815260016020526040902054610100900460ff1690565b6000436007541115610665576040805162461bcd60e51b8152602060048201526015602482015274576974686472617720697320746f6f206561726c7960581b604482015290519081900360640190fd5b4360085410156106b3576040805162461bcd60e51b8152602060048201526014602482015273576974686472617720697320746f6f206c61746560601b604482015290519081900360640190fd5b816005541115610702576040805162461bcd60e51b815260206004820152601560248201527415da5d1a191c985dc81a5cc81d1bdbc81cdb585b1b605a1b604482015290519081900360640190fd5b81600654101561074f576040805162461bcd60e51b8152602060048201526013602482015272576974686472617720697320746f6f2062696760681b604482015290519081900360640190fd5b6107598383610e4c565b50600190505b92915050565b60095481565b3360009081526020819052604090205460ff1615156001146107be5760405162461bcd60e51b81526004018080602001828103825260348152602001806110676034913960400191505060405180910390fd5b60408051808201825260ff808416808352600160208085018281526001600160a01b03891660008181529383529287902095518654915115156101000261ff00199190961660ff199092169190911716939093179093558351908152925191927fac0f2ecc83cf8e558ff37d73aa2c5512b98284793ee01338bde3c5413c4a4f3c929081900390910190a25050565b3360009081526020819052604090205460ff1615156001146108a05760405162461bcd60e51b81526004018080602001828103825260348152602001806110676034913960400191505060405180910390fd5b43600781905560088290556040805183815290517f97a660e3b48b89986dcce60fd510e56fd0fdda96a4ef9809e379a1e7f38e6d229181900360200190a250565b600043600354111561093a576040805162461bcd60e51b815260206004820152601760248201527f496e766573746d656e7420697320746f6f206561726c79000000000000000000604482015290519081900360640190fd5b43600454101561098a576040805162461bcd60e51b8152602060048201526016602482015275496e766573746d656e7420697320746f6f206c61746560501b604482015290519081900360640190fd5b8160055411156109e1576040805162461bcd60e51b815260206004820152601760248201527f496e766573746d656e7420697320746f6f20736d616c6c000000000000000000604482015290519081900360640190fd5b816006541015610a30576040805162461bcd60e51b8152602060048201526015602482015274496e766573746d656e7420697320746f6f2062696760581b604482015290519081900360640190fd5b6107598383610eb2565b3360009081526020819052604090205460ff161515600114610a8d5760405162461bcd60e51b81526004018080602001828103825260348152602001806110676034913960400191505060405180910390fd5b6002805482151560ff19909116811790915560408051918252517fe62bdb61323f62d0f836f645b27bab637d5c91cac0de59ffc61ccd02c6ac80559181900360200190a150565b3360009081526020819052604090205460ff161515600114610b275760405162461bcd60e51b81526004018080602001828103825260348152602001806110676034913960400191505060405180910390fd5b6001600160a01b038116600081815260208190526040808220805460ff19166001179055517fd7f0afc2242fe9a5f45af6dea542902933e36c643299a53b1057b13cf8bcad809190a250565b60065481565b60035481565b60025460ff1681565b6000610b92610f11565b506000905090565b3360009081526020819052604090205460ff161515600114610bed5760405162461bcd60e51b81526004018080602001828103825260348152602001806110676034913960400191505060405180910390fd5b80600081518110610bfa57fe5b602002602001015160038190555080600181518110610c1557fe5b602002602001015160048190555080600281518110610c3057fe5b602002602001015160058190555080600381518110610c4b57fe5b602002602001015160068190555080600481518110610c6657fe5b602002602001015160078190555080600581518110610c8157fe5b602002602001015160088190555080600681518110610c9c57fe5b602002602001015160098190555080600481518110610cb757fe5b602002602001015181600181518110610ccc57fe5b602002602001015182600081518110610ce157fe5b60200260200101517f29c0b838679b891ac361179b94271be3e8411db2fddcf405584aac6ced8f0d5d84600281518110610d1757fe5b602002602001015185600381518110610d2c57fe5b602002602001015186600581518110610d4157fe5b602002602001015187600681518110610d5657fe5b60200260200101516040518085815260200184815260200183815260200182815260200194505050505060405180910390a450565b60085481565b6001600160a01b031660009081526001602052604090205460ff1690565b3360009081526020819052604090205460ff161515600114610e025760405162461bcd60e51b81526004018080602001828103825260348152602001806110676034913960400191505060405180910390fd5b6001600160a01b038116600081815260016020526040808220805461ff0019169055517fb2425ed5c48af46b6ca1a64069d798ec183c079c7ffbd3150715248c929a33599190a250565b60025460009060ff1615610ea1576040805162461bcd60e51b815260206004820152601760248201527611d85b185e1a5cce88119d5b99081a5cc81b1bd8dad959604a1b604482015290519081900360640190fd5b610eab8383610f72565b5092915050565b60025460009060ff1615610f07576040805162461bcd60e51b815260206004820152601760248201527611d85b185e1a5cce88119d5b99081a5cc81b1bd8dad959604a1b604482015290519081900360640190fd5b610eab8383610fbd565b60025460009060ff1615610f66576040805162461bcd60e51b815260206004820152601760248201527611d85b185e1a5cce88119d5b99081a5cc81b1bd8dad959604a1b604482015290519081900360640190fd5b610f6e611008565b5090565b6000610f7d836105f1565b151560011461075f5760405162461bcd60e51b815260040180806020018281038252602d81526020018061103a602d913960400191505060405180910390fd5b6000610fc8836105f1565b151560011461075f5760405162461bcd60e51b815260040180806020018281038252602c81526020018061100e602c913960400191505060405180910390fd5b60019056fe47616c617869733a20546f6b656e20746f206465706f736974206973206e6f742077686974656c697374656447616c617869733a20546f6b656e20746f207769746864726177206973206e6f742077686974656c697374656447616c617869733a204163636573732064656e6965643a206e6f7420616e2061646d696e206f662074686520636f6e7472616374a2646970667358221220402f3e9610b0b98f39eb1d2f14313593b50f5428bb7dc0860cf970ecfc9e53bc64736f6c63430006050033",
  "immutableReferences": {},
  "source": "pragma solidity ^0.6.0;\n\nimport './GX_Lock.sol';\n\n/// @author Solidity Services\n/// @title Galaxis: Rules of the fund\n/// @notice Set of simple rules for a fund\ncontract GX_SimpleCloseEndRules is GX_Lock {\n\n    /// STATE VARIABLES\n\n    /// @notice block when the investment can start\n    uint public investStart;\n    /// @notice block when the investment will end\n    uint public investEnd;\n    /// @notice minimum investment\n    uint public investMin;\n    /// @notice maximum investment\n    uint public investMax;\n    /// @notice block when the withdraw can start\n    uint public withdrawStart;\n    /// @notice block when the withdraw will end\n    uint public withdrawEnd;\n    /// @notice marge of the trader\n    uint public traderMarge;\n\n    /// EVENTS\n\n    /// EVENTS: user facing events\n\n    /// @notice event for closing the fund\n    event GX_FundClosed(\n        uint indexed withdrawStart,\n        uint withdrawEnd\n    );\n\n    /// @notice event for changing the fund rules\n    event GX_FundRulesChanged(\n        uint indexed investStart,\n        uint indexed investEnd,\n        uint investMin,\n        uint investMax,\n        uint indexed withdrawStart,\n        uint withdrawEnd,\n        uint traderMarge\n    );\n\n    /// CONSTRUCTORS\n\n    /// MODIFIERS\n\n    /// TRANSACTIONS\n\n    /// @notice changing the rules\n    /// @dev ...\n    /// @param _investStart new investment start\n    /// @param _investEnd new investment end\n    /// @param _investMin new investment minimum\n    /// @param _investMax new investment maximum\n    /// @param _withdrawStart new withdraw start\n    /// @param _withdrawEnd new withdraw end\n    function changeRules(\n        uint _investStart,\n        uint _investEnd,\n        uint _investMin,\n        uint _investMax,\n        uint _withdrawStart,\n        uint _withdrawEnd,\n        uint _traderMarge\n    ) public onlyAdmin {\n        investStart = _investStart;\n        investEnd = _investEnd;\n        investMin = _investMin;\n        investMax = _investMax;\n        withdrawStart = _withdrawStart;\n        withdrawEnd = _withdrawEnd;\n        traderMarge = _traderMarge;\n\n        emit GX_FundRulesChanged(\n        _investStart,\n        _investEnd,\n        _investMin,\n        _investMax,\n        _withdrawStart,\n        _withdrawEnd,\n        _traderMarge\n        );\n    }\n\n    /// @notice changing the rules\n    /// @dev ...\n    /// @param _rules rules to set\n    function changeRulesArray(\n        uint[] memory _rules\n    ) public onlyAdmin {\n        investStart = _rules[0];\n        investEnd = _rules[1];\n        investMin = _rules[2];\n        investMax = _rules[3];\n        withdrawStart = _rules[4];\n        withdrawEnd = _rules[5];\n        traderMarge = _rules[6];\n\n        emit GX_FundRulesChanged(\n        _rules[0],\n        _rules[1],\n        _rules[2],\n        _rules[3],\n        _rules[4],\n        _rules[5],\n        _rules[6]\n        );\n    }\n\n\n    /// @notice closing the fund: withdraw can start\n    /// @dev ...\n    /// @param _withdrawEnd new withdraw end\n    function closeFund(uint _withdrawEnd) public onlyAdmin {\n        withdrawStart = block.number;\n        withdrawEnd = _withdrawEnd;\n\n        emit GX_FundClosed(\n            withdrawStart,\n            withdrawEnd\n        );\n    }\n\n    /// VIEWS\n\n    /// @notice is it allowed to invest\n    /// @dev ...\n    function isAllowedDeposit(address _tknDeposit, uint _amount) public override view returns (bool) {\n        // access rules ?\n\n        // lifecycle rules\n        require(investStart <= block.number, \"Investment is too early\");\n        require(investEnd >= block.number, \"Investment is too late\");\n\n        // additional rules: amount of investment\n        require(investMin <= _amount, \"Investment is too small\");\n        require(investMax >= _amount, \"Investment is too big\");\n\n        // super call: check if token is whitelisted\n        super.isAllowedDeposit(_tknDeposit, _amount);\n\n        return true;\n    }\n\n    /// @notice is it allowed to withdraw\n    /// @dev ...\n    function isAllowedWithdraw(address _tknDeposit, uint _amount) public override view returns (bool) {\n\n        // lifecycle rules\n        require(withdrawStart <= block.number, \"Withdraw is too early\");\n        require(withdrawEnd >= block.number, \"Withdraw is too late\");\n\n        // additional rules: amount of withdraw\n        require(investMin <= _amount, \"Withdraw is too small\");\n        require(investMax >= _amount, \"Withdraw is too big\");\n\n        super.isAllowedWithdraw(_tknDeposit, _amount);\n\n        return true;\n    }\n\n    /// @notice is it allowed to trade\n    /// @dev ...\n    function isAllowedPlaceOrder() public override view returns (bool) {\n        super.isAllowedPlaceOrder();\n        return false;\n    }\n\n    /// UTILS\n\n\n}",
  "sourcePath": "/home/dsz/git/galaxistest/galaxis/contracts/FundRules/GX_SimpleCloseEndRules.sol",
  "compiler": {
    "name": "solc",
    "version": "0.6.5+commit.f956cc89.Emscripten.clang"
  },
  "schemaVersion": "3.2.2-next.0",
  "updatedAt": "2020-08-13T15:10:44.446Z",
  "devdoc": {
    "author": "Solidity Services",
    "methods": {
      "addAdmin(address)": {
        "details": "...",
        "params": {
          "_newAdmin": "new admin of the contract"
        }
      },
      "blacklistToken(address)": {
        "details": "...",
        "params": {
          "_tokenAddress": "tokenaddress to blacklist"
        }
      },
      "changeRules(uint256,uint256,uint256,uint256,uint256,uint256,uint256)": {
        "details": "...",
        "params": {
          "_investEnd": "new investment end",
          "_investMax": "new investment maximum",
          "_investMin": "new investment minimum",
          "_investStart": "new investment start",
          "_withdrawEnd": "new withdraw end",
          "_withdrawStart": "new withdraw start"
        }
      },
      "changeRulesArray(uint256[])": {
        "details": "...",
        "params": {
          "_rules": "rules to set"
        }
      },
      "closeFund(uint256)": {
        "details": "...",
        "params": {
          "_withdrawEnd": "new withdraw end"
        }
      },
      "getChangeRate(address)": {
        "details": "...",
        "params": {
          "_tokenAddress": "the address to be checked"
        }
      },
      "isAdmin(address)": {
        "details": "...",
        "params": {
          "_addressToCheck": "the address to be checked"
        }
      },
      "isAllowedDeposit(address,uint256)": {
        "details": "..."
      },
      "isAllowedPlaceOrder()": {
        "details": "..."
      },
      "isAllowedWithdraw(address,uint256)": {
        "details": "..."
      },
      "isWhitelisted(address)": {
        "details": "...",
        "params": {
          "_tokenAddress": "the address to be checked"
        }
      },
      "removeAdmin(address)": {
        "details": "...",
        "params": {
          "_adminToDelete": "removing the admin from the contract"
        }
      },
      "setLock(bool)": {
        "details": "...",
        "params": {
          "_newLockValue": "new lock value"
        }
      },
      "whitelistToken(address,uint8)": {
        "details": "...",
        "params": {
          "_changeRate": "token change rate",
          "_tokenAddress": "token to whitelist"
        }
      }
    },
    "title": "Galaxis: Rules of the fund"
  },
  "userdoc": {
    "methods": {
      "addAdmin(address)": {
        "notice": "TRANSACTIONSadding a new admin to the contract"
      },
      "blacklistToken(address)": {
        "notice": "blacklisting a token"
      },
      "changeRules(uint256,uint256,uint256,uint256,uint256,uint256,uint256)": {
        "notice": "CONSTRUCTORS MODIFIERS TRANSACTIONSchanging the rules"
      },
      "changeRulesArray(uint256[])": {
        "notice": "changing the rules"
      },
      "closeFund(uint256)": {
        "notice": "closing the fund: withdraw can start"
      },
      "getChangeRate(address)": {
        "notice": "getting change rate for a token"
      },
      "isAdmin(address)": {
        "notice": "VIEWSchecking if the address is admin"
      },
      "isAllowedDeposit(address,uint256)": {
        "notice": "VIEWSis it allowed to invest"
      },
      "isAllowedPlaceOrder()": {
        "notice": "is it allowed to trade"
      },
      "isAllowedWithdraw(address,uint256)": {
        "notice": "is it allowed to withdraw"
      },
      "isWhitelisted(address)": {
        "notice": "VIEWSchecking if the token is whitelisted"
      },
      "removeAdmin(address)": {
        "notice": "removing an admin from the contract"
      },
      "setLock(bool)": {
        "notice": "TRANSACTIONSlocking or unlocking the fund"
      },
      "whitelistToken(address,uint8)": {
        "notice": "CONSTRUCTOR TRANSACTIONSwhitelisting a new token"
      }
    },
    "notice": "Set of simple rules for a fund"
  }
}