{
  "contractName": "GX_SimpleProfitOracle",
  "abi": [
    {
      "anonymous": false,
      "inputs": [
        {
          "indexed": true,
          "internalType": "address",
          "name": "adminAddress",
          "type": "address"
        }
      ],
      "name": "GX_AdminAdded",
      "type": "event"
    },
    {
      "anonymous": false,
      "inputs": [
        {
          "indexed": true,
          "internalType": "address",
          "name": "adminAddress",
          "type": "address"
        }
      ],
      "name": "GX_AdminRemoved",
      "type": "event"
    },
    {
      "anonymous": false,
      "inputs": [
        {
          "indexed": true,
          "internalType": "uint256",
          "name": "profitRate",
          "type": "uint256"
        }
      ],
      "name": "GX_ProfitChanged",
      "type": "event"
    },
    {
      "inputs": [
        {
          "internalType": "address",
          "name": "_newAdmin",
          "type": "address"
        }
      ],
      "name": "addAdmin",
      "outputs": [],
      "stateMutability": "nonpayable",
      "type": "function"
    },
    {
      "inputs": [
        {
          "internalType": "address",
          "name": "_addressToCheck",
          "type": "address"
        }
      ],
      "name": "isAdmin",
      "outputs": [
        {
          "internalType": "bool",
          "name": "",
          "type": "bool"
        }
      ],
      "stateMutability": "view",
      "type": "function"
    },
    {
      "inputs": [],
      "name": "profit",
      "outputs": [
        {
          "internalType": "uint256",
          "name": "",
          "type": "uint256"
        }
      ],
      "stateMutability": "view",
      "type": "function"
    },
    {
      "inputs": [
        {
          "internalType": "address",
          "name": "_adminToDelete",
          "type": "address"
        }
      ],
      "name": "removeAdmin",
      "outputs": [],
      "stateMutability": "nonpayable",
      "type": "function"
    },
    {
      "inputs": [
        {
          "internalType": "uint256",
          "name": "_newProfit",
          "type": "uint256"
        }
      ],
      "name": "setProfit",
      "outputs": [],
      "stateMutability": "nonpayable",
      "type": "function"
    }
  ],
  "bytecode": "0x60806040908152336000908152602081905220805460ff1916600117905561036a8061002c6000396000f3fe608060405234801561001057600080fd5b50600436106100575760003560e01c80631785f53c1461005c57806324d7806c1461008457806366d16cc3146100be57806370480275146100d857806380a7f381146100fe575b600080fd5b6100826004803603602081101561007257600080fd5b50356001600160a01b031661011b565b005b6100aa6004803603602081101561009a57600080fd5b50356001600160a01b03166101b7565b604080519115158252519081900360200190f35b6100c66101d5565b60408051918252519081900360200190f35b610082600480360360208110156100ee57600080fd5b50356001600160a01b03166101db565b6100826004803603602081101561011457600080fd5b503561027a565b3360009081526020819052604090205460ff16151560011461016e5760405162461bcd60e51b81526004018080602001828103825260348152602001806103016034913960400191505060405180910390fd5b6001600160a01b038116600081815260208190526040808220805460ff19169055517f6a35edfb19dff31b968882a3f9eeef54e0ca71bb9af2db6e085f409715d3c5479190a250565b6001600160a01b031660009081526020819052604090205460ff1690565b60015481565b3360009081526020819052604090205460ff16151560011461022e5760405162461bcd60e51b81526004018080602001828103825260348152602001806103016034913960400191505060405180910390fd5b6001600160a01b038116600081815260208190526040808220805460ff19166001179055517fd7f0afc2242fe9a5f45af6dea542902933e36c643299a53b1057b13cf8bcad809190a250565b3360009081526020819052604090205460ff1615156001146102cd5760405162461bcd60e51b81526004018080602001828103825260348152602001806103016034913960400191505060405180910390fd5b600181905560405181907f75e44864b543246c45abaf58340377d451e1df346b7f6676445ab8c899efd81890600090a25056fe47616c617869733a204163636573732064656e6965643a206e6f7420616e2061646d696e206f662074686520636f6e7472616374a264697066735822122023345fe3e0bf7be6f8f4fe033137d846acdd2f6c5e1c8bafdb2eaee53463010064736f6c63430006050033",
  "immutableReferences": {},
  "source": "\npragma solidity ^0.6.0;\n\nimport '../Governance/GX_GovernanceAdmin.sol';\n\n/// @author Solidity Services\n/// @title Galaxis: Simple profit oracle \n/// @notice Simple Oracle for identifying how much profit was made\ncontract GX_SimpleProfitOracle is GX_GovernanceAdmin {\n\n    /// @notice profit\n    uint public profit;\n\n    /// EVENTS: user facing events\n    /// @notice event for changing the profit rate\n    event GX_ProfitChanged(uint indexed profitRate);\n\n    /// CONSTRUCTOR\n\n    /// TRANSACTIONS\n\n    /// @notice whitelisting a new token\n    /// @dev ...\n    /// @param _newProfit new profit\n    function setProfit(uint _newProfit) public onlyAdmin {\n        profit = _newProfit;\n        emit GX_ProfitChanged(_newProfit);\n    }\n\n}",
  "sourcePath": "/home/dsz/git/galaxistest/galaxis/contracts/Oracle/GX_SimpleProfitOracle.sol",
  "compiler": {
    "name": "solc",
    "version": "0.6.5+commit.f956cc89.Emscripten.clang"
  },
  "schemaVersion": "3.2.2-next.0",
  "updatedAt": "2020-08-13T15:10:44.454Z",
  "devdoc": {
    "author": "Solidity Services",
    "methods": {
      "addAdmin(address)": {
        "details": "...",
        "params": {
          "_newAdmin": "new admin of the contract"
        }
      },
      "isAdmin(address)": {
        "details": "...",
        "params": {
          "_addressToCheck": "the address to be checked"
        }
      },
      "removeAdmin(address)": {
        "details": "...",
        "params": {
          "_adminToDelete": "removing the admin from the contract"
        }
      },
      "setProfit(uint256)": {
        "details": "...",
        "params": {
          "_newProfit": "new profit"
        }
      }
    },
    "title": "Galaxis: Simple profit oracle "
  },
  "userdoc": {
    "methods": {
      "addAdmin(address)": {
        "notice": "TRANSACTIONSadding a new admin to the contract"
      },
      "isAdmin(address)": {
        "notice": "VIEWSchecking if the address is admin"
      },
      "removeAdmin(address)": {
        "notice": "removing an admin from the contract"
      },
      "setProfit(uint256)": {
        "notice": "CONSTRUCTOR TRANSACTIONSwhitelisting a new token"
      }
    },
    "notice": "Simple Oracle for identifying how much profit was made"
  }
}