{
  "contractName": "GX_DEXRegistry",
  "abi": [
    {
      "inputs": [],
      "stateMutability": "nonpayable",
      "type": "constructor"
    },
    {
      "anonymous": false,
      "inputs": [
        {
          "indexed": true,
          "internalType": "address",
          "name": "adminAddress",
          "type": "address"
        }
      ],
      "name": "GX_AdminAdded",
      "type": "event"
    },
    {
      "anonymous": false,
      "inputs": [
        {
          "indexed": true,
          "internalType": "address",
          "name": "adminAddress",
          "type": "address"
        }
      ],
      "name": "GX_AdminRemoved",
      "type": "event"
    },
    {
      "anonymous": false,
      "inputs": [
        {
          "indexed": true,
          "internalType": "uint8",
          "name": "num",
          "type": "uint8"
        },
        {
          "indexed": false,
          "internalType": "enum GX_DEXRegistry.DEXType",
          "name": "dexType",
          "type": "uint8"
        },
        {
          "indexed": true,
          "internalType": "address",
          "name": "dexAddress",
          "type": "address"
        }
      ],
      "name": "GX_DEXAdded",
      "type": "event"
    },
    {
      "anonymous": false,
      "inputs": [
        {
          "indexed": true,
          "internalType": "uint8",
          "name": "num",
          "type": "uint8"
        }
      ],
      "name": "GX_DEXRemoved",
      "type": "event"
    },
    {
      "inputs": [
        {
          "internalType": "address",
          "name": "_newAdmin",
          "type": "address"
        }
      ],
      "name": "addAdmin",
      "outputs": [],
      "stateMutability": "nonpayable",
      "type": "function"
    },
    {
      "inputs": [
        {
          "internalType": "address",
          "name": "_addressToCheck",
          "type": "address"
        }
      ],
      "name": "isAdmin",
      "outputs": [
        {
          "internalType": "bool",
          "name": "",
          "type": "bool"
        }
      ],
      "stateMutability": "view",
      "type": "function"
    },
    {
      "inputs": [
        {
          "internalType": "address",
          "name": "_adminToDelete",
          "type": "address"
        }
      ],
      "name": "removeAdmin",
      "outputs": [],
      "stateMutability": "nonpayable",
      "type": "function"
    },
    {
      "inputs": [
        {
          "internalType": "uint8",
          "name": "_num",
          "type": "uint8"
        },
        {
          "internalType": "enum GX_DEXRegistry.DEXType",
          "name": "_dexType",
          "type": "uint8"
        },
        {
          "internalType": "address",
          "name": "_dexAddress",
          "type": "address"
        }
      ],
      "name": "addDEX",
      "outputs": [],
      "stateMutability": "nonpayable",
      "type": "function"
    },
    {
      "inputs": [
        {
          "internalType": "uint8",
          "name": "_num",
          "type": "uint8"
        }
      ],
      "name": "removeDEX",
      "outputs": [],
      "stateMutability": "nonpayable",
      "type": "function"
    },
    {
      "inputs": [
        {
          "internalType": "uint8",
          "name": "_nrToCheck",
          "type": "uint8"
        }
      ],
      "name": "getDEXInfo",
      "outputs": [
        {
          "internalType": "enum GX_DEXRegistry.DEXType",
          "name": "",
          "type": "uint8"
        },
        {
          "internalType": "address",
          "name": "",
          "type": "address"
        }
      ],
      "stateMutability": "view",
      "type": "function"
    }
  ],
  "bytecode": "0x608060405234801561001057600080fd5b50336000908152602081905260409020805460ff191660011790556105528061003a6000396000f3fe608060405234801561001057600080fd5b50600436106100625760003560e01c80631785f53c14610067578063185471521461008f57806324d7806c146100af57806370480275146100e95780639b5f292e1461010f5780639f19b1cb14610162575b600080fd5b61008d6004803603602081101561007d57600080fd5b50356001600160a01b031661019c565b005b61008d600480360360208110156100a557600080fd5b503560ff16610238565b6100d5600480360360208110156100c557600080fd5b50356001600160a01b03166102d4565b604080519115158252519081900360200190f35b61008d600480360360208110156100ff57600080fd5b50356001600160a01b03166102f2565b61012f6004803603602081101561012557600080fd5b503560ff16610391565b6040518083600281111561013f57fe5b60ff1681526001600160a01b039092166020830152506040805191829003019150f35b61008d6004803603606081101561017857600080fd5b50803560ff90811691602081013590911690604001356001600160a01b03166103bb565b3360009081526020819052604090205460ff1615156001146101ef5760405162461bcd60e51b81526004018080602001828103825260348152602001806104e96034913960400191505060405180910390fd5b6001600160a01b038116600081815260208190526040808220805460ff19169055517f6a35edfb19dff31b968882a3f9eeef54e0ca71bb9af2db6e085f409715d3c5479190a250565b3360009081526020819052604090205460ff16151560011461028b5760405162461bcd60e51b81526004018080602001828103825260348152602001806104e96034913960400191505060405180910390fd5b60ff811660008181526001602052604080822080546001600160a81b0319169055517fabb8cac8af599331750e1284d535d9920cec7b858a03251e27f5208591a9870e9190a250565b6001600160a01b031660009081526020819052604090205460ff1690565b3360009081526020819052604090205460ff1615156001146103455760405162461bcd60e51b81526004018080602001828103825260348152602001806104e96034913960400191505060405180910390fd5b6001600160a01b038116600081815260208190526040808220805460ff19166001179055517fd7f0afc2242fe9a5f45af6dea542902933e36c643299a53b1057b13cf8bcad809190a250565b60ff908116600090815260016020526040902054908116916101009091046001600160a01b031690565b3360009081526020819052604090205460ff16151560011461040e5760405162461bcd60e51b81526004018080602001828103825260348152602001806104e96034913960400191505060405180910390fd5b604051806040016040528083600281111561042557fe5b81526001600160a01b03831660209182015260ff85166000908152600191829052604090208251815491929091839160ff199091169083600281111561046757fe5b0217905550602091909101518154610100600160a81b0319166101006001600160a01b0392831602179091556040519082169060ff8516907fb2adc6c11d1b970bf9414ad19866ff1fd17e3d64461e5e63265e6994264f7249908590808260028111156104d057fe5b60ff16815260200191505060405180910390a350505056fe47616c617869733a204163636573732064656e6965643a206e6f7420616e2061646d696e206f662074686520636f6e7472616374a264697066735822122011bda4c21c49222804122e3b727b85025da03a21586dd0ebb358113ff7e7890764736f6c63430006050033",
  "immutableReferences": {},
  "source": "pragma solidity ^0.6.0;\n\nimport '../Governance/GX_GovernanceAdmin.sol';\n\n/// @author Solidity Services\n/// @title Galaxis: Registered DEX-s\n/// @notice Simple helper functionalities for registered DEX-s\ncontract GX_DEXRegistry is GX_GovernanceAdmin {\n\n    /// ENUMS\n    /// @notice supported dex types\n    enum DEXType {Kyber, ZeroX, Uniswap}\n\n    /// STRUCTS\n    struct DEXInfos {\n        DEXType dexType;\n        address dexAddress;\n    }\n\n    // addresses of the decentralized exchanges or exchange adapters\n    mapping(uint8 => DEXInfos) dexs;\n\n\n    /// Exchanges\n    // 0: Kyber\n    // 1: Uniswap\n    // 2: 0x\n    ///\n\n    /// EVENTS: user facing events\n    /// @notice event for adding a DEX\n    event GX_DEXAdded(uint8 indexed num, DEXType dexType, address indexed dexAddress);\n    /// @notice event for removing a DEX\n    event GX_DEXRemoved(uint8 indexed num);\n\n    /// CONSTRUCTOR\n    \n    /// @notice functionality for known parites\n    /// @dev ...\n    constructor() public {\n    }\n\n    /// TRANSACTIONS\n\n\n    /// @notice adding exchange to the known exchanges\n    /// @dev ...\n    /// @param _num name and number of the exchange\n    /// @param _dexType typer of the dex\n    /// @param _dexAddress address of the dex or dex adapter\n    function addDEX(uint8 _num, DEXType _dexType, address _dexAddress) public onlyAdmin {\n        dexs[_num] = DEXInfos(_dexType,_dexAddress);\n        emit GX_DEXAdded(_num, _dexType, _dexAddress);\n    }\n\n    /// @notice removing exchange or exchange adapter from the known exchanges\n    /// @dev ...\n    /// @param _num name and number of the exchange\n    function removeDEX(uint8 _num) public onlyAdmin {\n        delete dexs[_num];\n        emit GX_DEXRemoved(_num);\n    }\n\n    /// VIEWS\n\n    /// @notice checking the address of the exchange\n    /// @dev ...\n    /// @param _nrToCheck nr to check\n    function getDEXInfo(uint8 _nrToCheck) public view returns (DEXType, address) {\n        return (dexs[_nrToCheck].dexType, dexs[_nrToCheck].dexAddress);\n    }\n}",
  "sourcePath": "/home/dsz/git/galaxistest/galaxis/contracts/Composition/GX_DEXRegistry.sol",
  "compiler": {
    "name": "solc",
    "version": "0.6.5+commit.f956cc89.Emscripten.clang"
  },
  "schemaVersion": "3.2.2-next.0",
  "updatedAt": "2020-08-13T15:10:44.427Z",
  "devdoc": {
    "author": "Solidity Services",
    "methods": {
      "addAdmin(address)": {
        "details": "...",
        "params": {
          "_newAdmin": "new admin of the contract"
        }
      },
      "addDEX(uint8,uint8,address)": {
        "details": "...",
        "params": {
          "_dexAddress": "address of the dex or dex adapter",
          "_dexType": "typer of the dex",
          "_num": "name and number of the exchange"
        }
      },
      "constructor": {
        "details": "..."
      },
      "getDEXInfo(uint8)": {
        "details": "...",
        "params": {
          "_nrToCheck": "nr to check"
        }
      },
      "isAdmin(address)": {
        "details": "...",
        "params": {
          "_addressToCheck": "the address to be checked"
        }
      },
      "removeAdmin(address)": {
        "details": "...",
        "params": {
          "_adminToDelete": "removing the admin from the contract"
        }
      },
      "removeDEX(uint8)": {
        "details": "...",
        "params": {
          "_num": "name and number of the exchange"
        }
      }
    },
    "title": "Galaxis: Registered DEX-s"
  },
  "userdoc": {
    "methods": {
      "addAdmin(address)": {
        "notice": "TRANSACTIONSadding a new admin to the contract"
      },
      "addDEX(uint8,uint8,address)": {
        "notice": "TRANSACTIONSadding exchange to the known exchanges"
      },
      "constructor": "CONSTRUCTORfunctionality for known parites",
      "getDEXInfo(uint8)": {
        "notice": "VIEWSchecking the address of the exchange"
      },
      "isAdmin(address)": {
        "notice": "VIEWSchecking if the address is admin"
      },
      "removeAdmin(address)": {
        "notice": "removing an admin from the contract"
      },
      "removeDEX(uint8)": {
        "notice": "removing exchange or exchange adapter from the known exchanges"
      }
    },
    "notice": "Simple helper functionalities for registered DEX-s"
  }
}