{
  "contractName": "GX_GovernanceInvestor",
  "abi": [
    {
      "inputs": [],
      "stateMutability": "nonpayable",
      "type": "constructor"
    },
    {
      "anonymous": false,
      "inputs": [
        {
          "indexed": true,
          "internalType": "address",
          "name": "adminAddress",
          "type": "address"
        }
      ],
      "name": "GX_AdminAdded",
      "type": "event"
    },
    {
      "anonymous": false,
      "inputs": [
        {
          "indexed": true,
          "internalType": "address",
          "name": "adminAddress",
          "type": "address"
        }
      ],
      "name": "GX_AdminRemoved",
      "type": "event"
    },
    {
      "anonymous": false,
      "inputs": [
        {
          "indexed": true,
          "internalType": "address",
          "name": "investorAddress",
          "type": "address"
        }
      ],
      "name": "GX_InvestorAdded",
      "type": "event"
    },
    {
      "anonymous": false,
      "inputs": [
        {
          "indexed": true,
          "internalType": "address",
          "name": "investorAddress",
          "type": "address"
        }
      ],
      "name": "GX_InvestorRemoved",
      "type": "event"
    },
    {
      "inputs": [
        {
          "internalType": "address",
          "name": "_newAdmin",
          "type": "address"
        }
      ],
      "name": "addAdmin",
      "outputs": [],
      "stateMutability": "nonpayable",
      "type": "function"
    },
    {
      "inputs": [
        {
          "internalType": "address",
          "name": "_addressToCheck",
          "type": "address"
        }
      ],
      "name": "isAdmin",
      "outputs": [
        {
          "internalType": "bool",
          "name": "",
          "type": "bool"
        }
      ],
      "stateMutability": "view",
      "type": "function"
    },
    {
      "inputs": [
        {
          "internalType": "address",
          "name": "_adminToDelete",
          "type": "address"
        }
      ],
      "name": "removeAdmin",
      "outputs": [],
      "stateMutability": "nonpayable",
      "type": "function"
    },
    {
      "inputs": [
        {
          "internalType": "address",
          "name": "_newInvestor",
          "type": "address"
        }
      ],
      "name": "addInvestor",
      "outputs": [],
      "stateMutability": "nonpayable",
      "type": "function"
    },
    {
      "inputs": [
        {
          "internalType": "address",
          "name": "_investorToDelete",
          "type": "address"
        }
      ],
      "name": "removeInvestor",
      "outputs": [],
      "stateMutability": "nonpayable",
      "type": "function"
    },
    {
      "inputs": [
        {
          "internalType": "address",
          "name": "_addressToCheck",
          "type": "address"
        }
      ],
      "name": "isInvestor",
      "outputs": [
        {
          "internalType": "bool",
          "name": "",
          "type": "bool"
        }
      ],
      "stateMutability": "view",
      "type": "function"
    }
  ],
  "bytecode": "0x608060405234801561001057600080fd5b50336000908152602081905260409020805460ff191660011790556104808061003a6000396000f3fe608060405234801561001057600080fd5b50600436106100625760003560e01c80631785f53c1461006757806324d7806c1461008f57806342714978146100c957806370480275146100ef578063cee2a9cf14610115578063e641bde11461013b575b600080fd5b61008d6004803603602081101561007d57600080fd5b50356001600160a01b0316610161565b005b6100b5600480360360208110156100a557600080fd5b50356001600160a01b03166101fd565b604080519115158252519081900360200190f35b61008d600480360360208110156100df57600080fd5b50356001600160a01b031661021b565b61008d6004803603602081101561010557600080fd5b50356001600160a01b03166102b7565b6100b56004803603602081101561012b57600080fd5b50356001600160a01b0316610356565b61008d6004803603602081101561015157600080fd5b50356001600160a01b0316610374565b3360009081526020819052604090205460ff1615156001146101b45760405162461bcd60e51b81526004018080602001828103825260348152602001806104176034913960400191505060405180910390fd5b6001600160a01b038116600081815260208190526040808220805460ff19169055517f6a35edfb19dff31b968882a3f9eeef54e0ca71bb9af2db6e085f409715d3c5479190a250565b6001600160a01b031660009081526020819052604090205460ff1690565b3360009081526020819052604090205460ff16151560011461026e5760405162461bcd60e51b81526004018080602001828103825260348152602001806104176034913960400191505060405180910390fd5b6001600160a01b038116600081815260016020526040808220805460ff19169055517fcd738a4cd4be2dbc4fb823ce1fe9e8f5ed0f59e52585d010b921f2a0d8aa91f59190a250565b3360009081526020819052604090205460ff16151560011461030a5760405162461bcd60e51b81526004018080602001828103825260348152602001806104176034913960400191505060405180910390fd5b6001600160a01b038116600081815260208190526040808220805460ff19166001179055517fd7f0afc2242fe9a5f45af6dea542902933e36c643299a53b1057b13cf8bcad809190a250565b6001600160a01b031660009081526001602052604090205460ff1690565b3360009081526020819052604090205460ff1615156001146103c75760405162461bcd60e51b81526004018080602001828103825260348152602001806104176034913960400191505060405180910390fd5b6001600160a01b0381166000818152600160208190526040808320805460ff1916909217909155517f7f5d333d4d2a107179a1da732b237e5efb7adea85c231017ee785779e98411669190a25056fe47616c617869733a204163636573732064656e6965643a206e6f7420616e2061646d696e206f662074686520636f6e7472616374a2646970667358221220ab9fa5fd47c91091b67217811d610e8311ec21e5e6d834d04c30392082cedb4764736f6c63430006050033",
  "immutableReferences": {},
  "source": "pragma solidity ^0.6.0;\n\nimport './GX_GovernanceAdmin.sol';\n\n/// @author Solidity Services\n/// @title Galaxis: Governance implementation\n/// @notice Simple Governance investor ancestor class\ncontract GX_GovernanceInvestor is GX_GovernanceAdmin {\n\n    /// @notice investors\n    mapping (address => bool) investors;\n\n    /// EVENTS: user facing events\n    /// @notice event for adding an investor\n    event GX_InvestorAdded(address indexed investorAddress);\n    /// @notice event for removing an investor\n    event GX_InvestorRemoved(address indexed investorAddress);\n\n\n    /// CONSTRUCTOR\n    \n    /// @notice creating a simple governance contract for investors\n    /// @dev ...\n    constructor() public {\n    }\n\n    /// MODIFIERS\n    /// @notice only Investor\n    modifier onlyInvestor() {\n        require(investors[msg.sender] == true, \"Galaxis: Access denied: not an investor of the contract\");\n        _;\n    }\n\n    /// TRANSACTIONS\n\n    /// @notice adding a new investor to the contract\n    /// @dev ...\n    /// @param _newInvestor new investor of the contract\n    function addInvestor(address _newInvestor) public onlyAdmin {\n        investors[_newInvestor] = true;\n        emit GX_InvestorAdded(_newInvestor);\n    }\n\n    /// @notice removing an investor from the contract\n    /// @dev ...\n    /// @param _investorToDelete removing the investor from the contract\n    function removeInvestor(address _investorToDelete) public onlyAdmin {\n        investors[_investorToDelete] = false;\n        emit GX_InvestorRemoved(_investorToDelete);\n    }\n\n    /// VIEWS\n\n    /// @notice checking if the address is an investor\n    /// @dev ...\n    /// @param _addressToCheck the address to be checked\n    function isInvestor(address _addressToCheck) public view returns (bool) {\n        return investors[_addressToCheck];\n    }\n\n}",
  "sourcePath": "/home/dsz/git/galaxistest/galaxis/contracts/Governance/GX_GovernanceInvestor.sol",
  "compiler": {
    "name": "solc",
    "version": "0.6.5+commit.f956cc89.Emscripten.clang"
  },
  "schemaVersion": "3.2.2-next.0",
  "updatedAt": "2020-08-13T15:10:44.451Z",
  "devdoc": {
    "author": "Solidity Services",
    "methods": {
      "addAdmin(address)": {
        "details": "...",
        "params": {
          "_newAdmin": "new admin of the contract"
        }
      },
      "addInvestor(address)": {
        "details": "...",
        "params": {
          "_newInvestor": "new investor of the contract"
        }
      },
      "constructor": {
        "details": "..."
      },
      "isAdmin(address)": {
        "details": "...",
        "params": {
          "_addressToCheck": "the address to be checked"
        }
      },
      "isInvestor(address)": {
        "details": "...",
        "params": {
          "_addressToCheck": "the address to be checked"
        }
      },
      "removeAdmin(address)": {
        "details": "...",
        "params": {
          "_adminToDelete": "removing the admin from the contract"
        }
      },
      "removeInvestor(address)": {
        "details": "...",
        "params": {
          "_investorToDelete": "removing the investor from the contract"
        }
      }
    },
    "title": "Galaxis: Governance implementation"
  },
  "userdoc": {
    "methods": {
      "addAdmin(address)": {
        "notice": "TRANSACTIONSadding a new admin to the contract"
      },
      "addInvestor(address)": {
        "notice": "TRANSACTIONSadding a new investor to the contract"
      },
      "constructor": "CONSTRUCTORcreating a simple governance contract for investors",
      "isAdmin(address)": {
        "notice": "VIEWSchecking if the address is admin"
      },
      "isInvestor(address)": {
        "notice": "VIEWSchecking if the address is an investor"
      },
      "removeAdmin(address)": {
        "notice": "removing an admin from the contract"
      },
      "removeInvestor(address)": {
        "notice": "removing an investor from the contract"
      }
    },
    "notice": "Simple Governance investor ancestor class"
  }
}