{
  "contractName": "GX_KyberAdapter",
  "abi": [
    {
      "inputs": [
        {
          "internalType": "address",
          "name": "tokenToSell",
          "type": "address"
        },
        {
          "internalType": "uint256",
          "name": "amountToSell",
          "type": "uint256"
        },
        {
          "internalType": "address",
          "name": "tokenToBuy",
          "type": "address"
        },
        {
          "internalType": "uint256",
          "name": "rate",
          "type": "uint256"
        },
        {
          "internalType": "address",
          "name": "dexAddress",
          "type": "address"
        }
      ],
      "name": "makeOrderKyber",
      "outputs": [],
      "stateMutability": "payable",
      "type": "function"
    },
    {
      "inputs": [
        {
          "internalType": "address",
          "name": "tokenToSell",
          "type": "address"
        },
        {
          "internalType": "uint256",
          "name": "amountToSell",
          "type": "uint256"
        },
        {
          "internalType": "address",
          "name": "tokenToBuy",
          "type": "address"
        },
        {
          "internalType": "address",
          "name": "dexAddress",
          "type": "address"
        }
      ],
      "name": "takeOrderKyber",
      "outputs": [],
      "stateMutability": "payable",
      "type": "function"
    },
    {
      "inputs": [
        {
          "internalType": "address",
          "name": "tokenToSell",
          "type": "address"
        },
        {
          "internalType": "uint256",
          "name": "amountToSell",
          "type": "uint256"
        },
        {
          "internalType": "address",
          "name": "tokenToBuy",
          "type": "address"
        }
      ],
      "name": "getRate",
      "outputs": [
        {
          "internalType": "uint256",
          "name": "",
          "type": "uint256"
        }
      ],
      "stateMutability": "view",
      "type": "function"
    }
  ],
  "bytecode": "0x608060405234801561001057600080fd5b50610510806100206000396000f3fe6080604052600436106100345760003560e01c8063e036104b14610039578063e8dcd6201461008e578063f965448d146100cc575b600080fd5b34801561004557600080fd5b5061007c6004803603606081101561005c57600080fd5b506001600160a01b03813581169160208101359160409091013516610110565b60408051918252519081900360200190f35b6100ca600480360360808110156100a457600080fd5b506001600160a01b03813581169160208101359160408201358116916060013516610119565b005b6100ca600480360360a08110156100e257600080fd5b506001600160a01b0381358116916020810135916040820135811691606081013591608090910135166102fa565b60009392505050565b6001600160a01b0384166101ad5760408051633d15022b60e11b81526001600160a01b03848116600483015260006024830152915191831691637a2a0456918691604480830192602092919082900301818588803b15801561017a57600080fd5b505af115801561018e573d6000803e3d6000fd5b50505050506040513d60208110156101a557600080fd5b506102f49050565b6001600160a01b03821661024e57806001600160a01b0316633bba21dc858560006040518463ffffffff1660e01b815260040180846001600160a01b03166001600160a01b031681526020018381526020018281526020019350505050602060405180830381600087803b15801561022457600080fd5b505af1158015610238573d6000803e3d6000fd5b505050506040513d60208110156101a557600080fd5b6040805163cb3c28c760e01b81526001600160a01b03868116600483015260248201869052848116604483015233606483015260006084830181905260a4830181905260c4830181905292519084169263cb3c28c79260e480820193602093909283900390910190829087803b1580156102c757600080fd5b505af11580156102db573d6000803e3d6000fd5b505050506040513d60208110156102f157600080fd5b50505b50505050565b6001600160a01b03851661039b57806001600160a01b0316637a2a04568585856040518463ffffffff1660e01b815260040180836001600160a01b03166001600160a01b03168152602001828152602001925050506020604051808303818588803b15801561036857600080fd5b505af115801561037c573d6000803e3d6000fd5b50505050506040513d602081101561039357600080fd5b506104d39050565b6001600160a01b03831661042d5760408051630eee887760e21b81526001600160a01b0387811660048301526024820187905260448201859052915191831691633bba21dc916064808201926020929091908290030181600087803b15801561040357600080fd5b505af1158015610417573d6000803e3d6000fd5b505050506040513d602081101561039357600080fd5b6040805163cb3c28c760e01b81526001600160a01b03878116600483015260248201879052858116604483015233606483015260006084830181905260a4830186905260c4830181905292519084169263cb3c28c79260e480820193602093909283900390910190829087803b1580156104a657600080fd5b505af11580156104ba573d6000803e3d6000fd5b505050506040513d60208110156104d057600080fd5b50505b505050505056fea2646970667358221220daca45cbbe421cbe796d72f05be5d833660a90f84f8da51888023c00e3030fa064736f6c63430006050033",
  "immutableReferences": {},
  "source": "pragma solidity ^0.6.0;\n\nimport \"./GX_DEXAdapterBase.sol\";\nimport \"../DexInterfaces/KyberInterface.sol\";\n\n/// @author Solidity Services\n/// @title Galaxis: Kyber adapter\n/// @notice Handles communication with the Kyber DEX\ncontract GX_KyberAdapter is GX_DEXAdapterBase {\n\n    function makeOrderKyber(address tokenToSell, uint amountToSell, address tokenToBuy, uint rate, address dexAddress) public  payable {\n        if(tokenToSell == address(0)) {\n            /// @dev makes a trade from Ether to token. Sends token to msg sender\n            /// @param token Destination token\n            /// @param minConversionRate The minimal conversion rate. If actual rate is lower, trade is canceled.\n            /// @return amount of actual dest tokens\n            KyberInterface(dexAddress).swapEtherToToken.value(amountToSell)(IERC20(tokenToBuy), rate);\n        } else if(tokenToBuy == address(0)) {\n            /// @dev makes a trade from token to Ether, sends Ether to msg sender\n            /// @param token Src token\n            /// @param srcAmount amount of src tokens\n            /// @param minConversionRate The minimal conversion rate. If actual rate is lower, trade is canceled.\n            /// @return amount of actual dest tokens\n            KyberInterface(dexAddress).swapTokenToEther(IERC20(tokenToSell), amountToSell, rate);\n        } else {\n            /// @notice use token address ETH_TOKEN_ADDRESS for ether\n            /// @dev makes a trade between src and dest token and send dest token to destAddress\n            /// @param src Src token\n            /// @param srcAmount amount of src tokens\n            /// @param dest   Destination token\n            /// @param destAddress Address to send tokens to\n            /// @param maxDestAmount A limit on the amount of dest tokens\n            /// @param minConversionRate The minimal conversion rate. If actual rate is lower, trade is canceled.\n            /// @param walletId is the wallet ID to send part of the fees\n            /// @return amount of actual dest tokens\n            KyberInterface(dexAddress).trade(IERC20(tokenToSell), amountToSell, IERC20(tokenToBuy), msg.sender, 0, rate, address(0));\n        }\n    }\n\n    function takeOrderKyber(address tokenToSell, uint amountToSell, address tokenToBuy, address dexAddress) public payable {\n        if(tokenToSell == address(0)) {\n            /// @dev makes a trade from Ether to token. Sends token to msg sender\n            /// @param token Destination token\n            /// @param minConversionRate The minimal conversion rate. If actual rate is lower, trade is canceled.\n            /// @return amount of actual dest tokens\n            KyberInterface(dexAddress).swapEtherToToken.value(amountToSell)(IERC20(tokenToBuy), 0);\n        } else if(tokenToBuy == address(0)) {\n            /// @dev makes a trade from token to Ether, sends Ether to msg sender\n            /// @param token Src token\n            /// @param srcAmount amount of src tokens\n            /// @param minConversionRate The minimal conversion rate. If actual rate is lower, trade is canceled.\n            /// @return amount of actual dest tokens\n            KyberInterface(dexAddress).swapTokenToEther(IERC20(tokenToSell), amountToSell,  0);\n        } else {\n            /// @notice use token address ETH_TOKEN_ADDRESS for ether\n            /// @dev makes a trade between src and dest token and send dest token to destAddress\n            /// @param src Src token\n            /// @param srcAmount amount of src tokens\n            /// @param dest   Destination token\n            /// @param destAddress Address to send tokens to\n            /// @param maxDestAmount A limit on the amount of dest tokens\n            /// @param minConversionRate The minimal conversion rate. If actual rate is lower, trade is canceled.\n            /// @param walletId is the wallet ID to send part of the fees\n            /// @return amount of actual dest tokens\n            KyberInterface(dexAddress).trade(IERC20(tokenToSell), amountToSell, IERC20(tokenToBuy), msg.sender, 0, 0, address(0));\n        }\n    }\n\n\n    function getRate(address tokenToSell, uint amountToSell, address tokenToBuy) public view returns (uint) {\n/*        address tokenToSellConverted = tokenToSell;\n        address tokenToBuyConverted = tokenToBuy;\n        if(tokenToSell == ETH_ADDRESS) tokenToSellConverted = 0xEeeeeEeeeEeEeeEeEeEeeEEEeeeeEeeeeeeeEEeE;\n        if(tokenToBuy == ETH_ADDRESS) tokenToBuyConverted = 0xEeeeeEeeeEeEeeEeEeEeeEEEeeeeEeeeeeeeEEeE;\n        (uint expectedRate, ) = KyberInterface(dexAddress).getExpectedRate(IERC20(tokenToSellConverted), IERC20(tokenToBuyConverted), amountToSell);\n        return expectedRate; */\n        return 0;\n    }\n\n\n}\n",
  "sourcePath": "/home/dsz/git/galaxistest/galaxis/contracts/DexAdapters/GX_KyberAdapter.sol",
  "compiler": {
    "name": "solc",
    "version": "0.6.5+commit.f956cc89.Emscripten.clang"
  },
  "schemaVersion": "3.2.2-next.0",
  "updatedAt": "2020-08-13T15:10:44.432Z",
  "devdoc": {
    "author": "Solidity Services",
    "methods": {},
    "title": "Galaxis: Kyber adapter"
  },
  "userdoc": {
    "methods": {},
    "notice": "Handles communication with the Kyber DEX"
  }
}