{
  "contractName": "GX_SharesReference",
  "abi": [
    {
      "inputs": [],
      "stateMutability": "nonpayable",
      "type": "constructor"
    },
    {
      "anonymous": false,
      "inputs": [
        {
          "indexed": true,
          "internalType": "address",
          "name": "adminAddress",
          "type": "address"
        }
      ],
      "name": "GX_AdminAdded",
      "type": "event"
    },
    {
      "anonymous": false,
      "inputs": [
        {
          "indexed": true,
          "internalType": "address",
          "name": "adminAddress",
          "type": "address"
        }
      ],
      "name": "GX_AdminRemoved",
      "type": "event"
    },
    {
      "anonymous": false,
      "inputs": [
        {
          "indexed": true,
          "internalType": "address",
          "name": "sharesAddress",
          "type": "address"
        }
      ],
      "name": "GX_SharesSet",
      "type": "event"
    },
    {
      "inputs": [],
      "name": "SharesReference",
      "outputs": [
        {
          "internalType": "address",
          "name": "",
          "type": "address"
        }
      ],
      "stateMutability": "view",
      "type": "function"
    },
    {
      "inputs": [
        {
          "internalType": "address",
          "name": "_newAdmin",
          "type": "address"
        }
      ],
      "name": "addAdmin",
      "outputs": [],
      "stateMutability": "nonpayable",
      "type": "function"
    },
    {
      "inputs": [
        {
          "internalType": "address",
          "name": "_addressToCheck",
          "type": "address"
        }
      ],
      "name": "isAdmin",
      "outputs": [
        {
          "internalType": "bool",
          "name": "",
          "type": "bool"
        }
      ],
      "stateMutability": "view",
      "type": "function"
    },
    {
      "inputs": [
        {
          "internalType": "address",
          "name": "_adminToDelete",
          "type": "address"
        }
      ],
      "name": "removeAdmin",
      "outputs": [],
      "stateMutability": "nonpayable",
      "type": "function"
    },
    {
      "inputs": [
        {
          "internalType": "address",
          "name": "_SharesAddress",
          "type": "address"
        }
      ],
      "name": "setShares",
      "outputs": [],
      "stateMutability": "nonpayable",
      "type": "function"
    }
  ],
  "bytecode": "0x608060405234801561001057600080fd5b50336000908152602081905260409020805460ff191660011790556104138061003a6000396000f3fe608060405234801561001057600080fd5b50600436106100575760003560e01c80631785f53c1461005c57806324d7806c146100845780635212d4d2146100be578063570a023d146100e25780637048027514610108575b600080fd5b6100826004803603602081101561007257600080fd5b50356001600160a01b031661012e565b005b6100aa6004803603602081101561009a57600080fd5b50356001600160a01b03166101ca565b604080519115158252519081900360200190f35b6100c66101e8565b604080516001600160a01b039092168252519081900360200190f35b610082600480360360208110156100f857600080fd5b50356001600160a01b03166101f7565b6100826004803603602081101561011e57600080fd5b50356001600160a01b03166102dc565b3360009081526020819052604090205460ff1615156001146101815760405162461bcd60e51b81526004018080602001828103825260348152602001806103aa6034913960400191505060405180910390fd5b6001600160a01b038116600081815260208190526040808220805460ff19169055517f6a35edfb19dff31b968882a3f9eeef54e0ca71bb9af2db6e085f409715d3c5479190a250565b6001600160a01b031660009081526020819052604090205460ff1690565b6001546001600160a01b031681565b3360009081526020819052604090205460ff16151560011461024a5760405162461bcd60e51b81526004018080602001828103825260348152602001806103aa6034913960400191505060405180910390fd5b6001546001600160a01b0316156102925760405162461bcd60e51b815260040180806020018281038252602e81526020018061037c602e913960400191505060405180910390fd5b600180546001600160a01b0319166001600160a01b0383169081179091556040517f0b93a95d542a8b160e57395efb1d1fc97d35d02e8490fdcd59a458631f7f137c90600090a250565b3360009081526020819052604090205460ff16151560011461032f5760405162461bcd60e51b81526004018080602001828103825260348152602001806103aa6034913960400191505060405180910390fd5b6001600160a01b038116600081815260208190526040808220805460ff19166001179055517fd7f0afc2242fe9a5f45af6dea542902933e36c643299a53b1057b13cf8bcad809190a25056fe47616c617869733a20536861726573207265666572656e63652063616e20626520736574206f6e6c79206f6e636547616c617869733a204163636573732064656e6965643a206e6f7420616e2061646d696e206f662074686520636f6e7472616374a2646970667358221220438f5578c44f7ec5a7180413983ecdfdf5f14411328ef805c53f7d47c6b3ce3d64736f6c63430006050033",
  "immutableReferences": {},
  "source": "pragma solidity ^0.6.0;\n\nimport '../Governance/GX_GovernanceAdmin.sol';\n\n/// @author Solidity Services\n/// @title Galaxis: Registering shares as an external token\n/// @notice Registering shares as an external token\ncontract GX_SharesReference is GX_GovernanceAdmin {\n\n    /// @notice reference of the shares contract\n    address public SharesReference;\n\n    /// EVENTS: user facing events\n    /// @notice event for setting the shares reference\n    event GX_SharesSet(address indexed sharesAddress);\n\n    /// CONSTRUCTOR\n    \n    /// @notice functionality for known parites\n    /// @dev ...\n    constructor() public {\n    }\n\n    /// TRANSACTIONS\n\n    /// @notice setting the shares reference\n    /// @dev ...\n    /// @param _SharesAddress new reference\n    function setShares(address _SharesAddress) public onlyAdmin {\n        require(SharesReference == address(0),\"Galaxis: Shares reference can be set only once\");\n        SharesReference = _SharesAddress;\n        emit GX_SharesSet(_SharesAddress);\n    }\n}",
  "sourcePath": "/home/dsz/git/galaxistest/galaxis/contracts/Composition/GX_SharesReference.sol",
  "compiler": {
    "name": "solc",
    "version": "0.6.5+commit.f956cc89.Emscripten.clang"
  },
  "schemaVersion": "3.2.2-next.0",
  "updatedAt": "2020-08-13T15:10:44.428Z",
  "devdoc": {
    "author": "Solidity Services",
    "methods": {
      "addAdmin(address)": {
        "details": "...",
        "params": {
          "_newAdmin": "new admin of the contract"
        }
      },
      "constructor": {
        "details": "..."
      },
      "isAdmin(address)": {
        "details": "...",
        "params": {
          "_addressToCheck": "the address to be checked"
        }
      },
      "removeAdmin(address)": {
        "details": "...",
        "params": {
          "_adminToDelete": "removing the admin from the contract"
        }
      },
      "setShares(address)": {
        "details": "...",
        "params": {
          "_SharesAddress": "new reference"
        }
      }
    },
    "title": "Galaxis: Registering shares as an external token"
  },
  "userdoc": {
    "methods": {
      "addAdmin(address)": {
        "notice": "TRANSACTIONSadding a new admin to the contract"
      },
      "constructor": "CONSTRUCTORfunctionality for known parites",
      "isAdmin(address)": {
        "notice": "VIEWSchecking if the address is admin"
      },
      "removeAdmin(address)": {
        "notice": "removing an admin from the contract"
      },
      "setShares(address)": {
        "notice": "TRANSACTIONSsetting the shares reference"
      }
    },
    "notice": "Registering shares as an external token"
  }
}