{
  "contractName": "GX_TokenWhitelist",
  "abi": [
    {
      "anonymous": false,
      "inputs": [
        {
          "indexed": true,
          "internalType": "address",
          "name": "adminAddress",
          "type": "address"
        }
      ],
      "name": "GX_AdminAdded",
      "type": "event"
    },
    {
      "anonymous": false,
      "inputs": [
        {
          "indexed": true,
          "internalType": "address",
          "name": "adminAddress",
          "type": "address"
        }
      ],
      "name": "GX_AdminRemoved",
      "type": "event"
    },
    {
      "anonymous": false,
      "inputs": [
        {
          "indexed": true,
          "internalType": "address",
          "name": "tokenAddress",
          "type": "address"
        }
      ],
      "name": "GX_TokenBlacklisted",
      "type": "event"
    },
    {
      "anonymous": false,
      "inputs": [
        {
          "indexed": true,
          "internalType": "address",
          "name": "tokenAddress",
          "type": "address"
        }
      ],
      "name": "GX_TokenWhitelisted",
      "type": "event"
    },
    {
      "inputs": [
        {
          "internalType": "address",
          "name": "_newAdmin",
          "type": "address"
        }
      ],
      "name": "addAdmin",
      "outputs": [],
      "stateMutability": "nonpayable",
      "type": "function"
    },
    {
      "inputs": [
        {
          "internalType": "address",
          "name": "_addressToCheck",
          "type": "address"
        }
      ],
      "name": "isAdmin",
      "outputs": [
        {
          "internalType": "bool",
          "name": "",
          "type": "bool"
        }
      ],
      "stateMutability": "view",
      "type": "function"
    },
    {
      "inputs": [
        {
          "internalType": "address",
          "name": "_adminToDelete",
          "type": "address"
        }
      ],
      "name": "removeAdmin",
      "outputs": [],
      "stateMutability": "nonpayable",
      "type": "function"
    },
    {
      "inputs": [
        {
          "internalType": "address",
          "name": "_tokenAddress",
          "type": "address"
        }
      ],
      "name": "whitelistToken",
      "outputs": [],
      "stateMutability": "nonpayable",
      "type": "function"
    },
    {
      "inputs": [
        {
          "internalType": "address",
          "name": "_tokenAddress",
          "type": "address"
        }
      ],
      "name": "blacklistToken",
      "outputs": [],
      "stateMutability": "nonpayable",
      "type": "function"
    },
    {
      "inputs": [
        {
          "internalType": "address",
          "name": "_tokenAddress",
          "type": "address"
        }
      ],
      "name": "isWhitelisted",
      "outputs": [
        {
          "internalType": "bool",
          "name": "",
          "type": "bool"
        }
      ],
      "stateMutability": "view",
      "type": "function"
    },
    {
      "inputs": [
        {
          "internalType": "address",
          "name": "_tknDeposit",
          "type": "address"
        },
        {
          "internalType": "uint256",
          "name": "_amount",
          "type": "uint256"
        }
      ],
      "name": "isAllowedDeposit",
      "outputs": [
        {
          "internalType": "bool",
          "name": "",
          "type": "bool"
        }
      ],
      "stateMutability": "view",
      "type": "function"
    },
    {
      "inputs": [
        {
          "internalType": "address",
          "name": "_tknDeposit",
          "type": "address"
        },
        {
          "internalType": "uint256",
          "name": "_amount",
          "type": "uint256"
        }
      ],
      "name": "isAllowedWithdraw",
      "outputs": [
        {
          "internalType": "bool",
          "name": "",
          "type": "bool"
        }
      ],
      "stateMutability": "view",
      "type": "function"
    },
    {
      "inputs": [],
      "name": "isAllowedPlaceOrder",
      "outputs": [
        {
          "internalType": "bool",
          "name": "",
          "type": "bool"
        }
      ],
      "stateMutability": "view",
      "type": "function"
    }
  ],
  "bytecode": "0x60806040908152336000908152602081905220805460ff1916600117905561062d8061002c6000396000f3fe608060405234801561001057600080fd5b50600436106100935760003560e01c806360b6cf931161006657806360b6cf931461014c5780636247f6f214610178578063704802751461019e578063c74af6a5146101c4578063e1254559146101cc57610093565b80631785f53c1461009857806324d7806c146100c05780633af32abf146100fa578063408962d714610120575b600080fd5b6100be600480360360208110156100ae57600080fd5b50356001600160a01b03166101f2565b005b6100e6600480360360208110156100d657600080fd5b50356001600160a01b031661028e565b604080519115158252519081900360200190f35b6100e66004803603602081101561011057600080fd5b50356001600160a01b03166102ac565b6100e66004803603604081101561013657600080fd5b506001600160a01b0381351690602001356102ca565b6100e66004803603604081101561016257600080fd5b506001600160a01b03813516906020013561032c565b6100be6004803603602081101561018e57600080fd5b50356001600160a01b0316610388565b6100be600480360360208110156101b457600080fd5b50356001600160a01b031661042a565b6100e66104c9565b6100be600480360360208110156101e257600080fd5b50356001600160a01b03166104ce565b3360009081526020819052604090205460ff1615156001146102455760405162461bcd60e51b81526004018080602001828103825260348152602001806105c46034913960400191505060405180910390fd5b6001600160a01b038116600081815260208190526040808220805460ff19169055517f6a35edfb19dff31b968882a3f9eeef54e0ca71bb9af2db6e085f409715d3c5479190a250565b6001600160a01b031660009081526020819052604090205460ff1690565b6001600160a01b031660009081526001602052604090205460ff1690565b6001600160a01b038216600090815260016020819052604082205460ff161515146103265760405162461bcd60e51b815260040180806020018281038252602d815260200180610597602d913960400191505060405180910390fd5b92915050565b6001600160a01b038216600090815260016020819052604082205460ff161515146103265760405162461bcd60e51b815260040180806020018281038252602c81526020018061056b602c913960400191505060405180910390fd5b3360009081526020819052604090205460ff1615156001146103db5760405162461bcd60e51b81526004018080602001828103825260348152602001806105c46034913960400191505060405180910390fd5b6001600160a01b0381166000818152600160208190526040808320805460ff1916909217909155517f3fd67084b67aa79aee1ccfab5801c1bc7ad1ae813860a0bfe7ac48cabe3316b69190a250565b3360009081526020819052604090205460ff16151560011461047d5760405162461bcd60e51b81526004018080602001828103825260348152602001806105c46034913960400191505060405180910390fd5b6001600160a01b038116600081815260208190526040808220805460ff19166001179055517fd7f0afc2242fe9a5f45af6dea542902933e36c643299a53b1057b13cf8bcad809190a250565b600190565b3360009081526020819052604090205460ff1615156001146105215760405162461bcd60e51b81526004018080602001828103825260348152602001806105c46034913960400191505060405180910390fd5b6001600160a01b038116600081815260016020526040808220805460ff19169055517fb2425ed5c48af46b6ca1a64069d798ec183c079c7ffbd3150715248c929a33599190a25056fe47616c617869733a20546f6b656e20746f206465706f736974206973206e6f742077686974656c697374656447616c617869733a20546f6b656e20746f207769746864726177206973206e6f742077686974656c697374656447616c617869733a204163636573732064656e6965643a206e6f7420616e2061646d696e206f662074686520636f6e7472616374a2646970667358221220bf965c6263bd6c940e781cec03160d1bada251eea453dcc5695d54868959ad5564736f6c63430006050033",
  "immutableReferences": {},
  "source": "pragma solidity ^0.6.0;\n\nimport './GX_RuleInterface.sol';\nimport '../Governance/GX_GovernanceAdmin.sol';\n\n/// @author Solidity Services\n/// @title Galaxis: Rules for whitlisting a token in the fund\n/// @notice Set whitelist for the fund\ncontract GX_TokenWhitelist is GX_RuleInterface, GX_GovernanceAdmin {\n\n    /// @notice whitelisted tokens\n    mapping (address => bool) tokenWL;\n\n    /// EVENTS: user facing events\n    /// @notice event for whitelisting a token\n    event GX_TokenWhitelisted(address indexed tokenAddress);\n    /// @notice event for blacklisting a token\n    event GX_TokenBlacklisted(address indexed tokenAddress);\n\n    /// CONSTRUCTOR\n\n    /// TRANSACTIONS\n\n    /// @notice whitelisting a new token\n    /// @dev ...\n    /// @param _tokenAddress token to whitelist\n    function whitelistToken(address _tokenAddress) public onlyAdmin {\n        tokenWL[_tokenAddress] = true;\n        emit GX_TokenWhitelisted(_tokenAddress);\n    }\n\n    /// @notice blacklisting a token\n    /// @dev ...\n    /// @param _tokenAddress tokenaddress to blacklist\n    function blacklistToken(address _tokenAddress) public onlyAdmin {\n        tokenWL[_tokenAddress] = false;\n        emit GX_TokenBlacklisted(_tokenAddress);\n    }\n\n    /// VIEWS\n\n    /// @notice checking if the token is whitelisted\n    /// @dev ...\n    /// @param _tokenAddress the address to be checked\n    function isWhitelisted(address _tokenAddress) public view returns (bool) {\n        return tokenWL[_tokenAddress];\n    }\n\n    /// @notice is it allowed to invest\n    /// @dev ...\n    function isAllowedDeposit(address _tknDeposit, uint _amount) public override virtual view returns (bool) {\n        require(tokenWL[_tknDeposit] == true, \"Galaxis: Token to deposit is not whitelisted\");\n    }\n\n    /// @notice is it allowed to withdraw\n    /// @dev ...\n    function isAllowedWithdraw(address _tknDeposit, uint _amount) public override virtual view returns (bool) {\n        require(tokenWL[_tknDeposit] == true, \"Galaxis: Token to withdraw is not whitelisted\");\n    }\n\n    /// @notice is it allowed to trade\n    /// @dev ...\n    function isAllowedPlaceOrder() public override virtual view returns (bool) {\n        return true;\n    }\n\n\n}",
  "sourcePath": "/home/dsz/git/galaxistest/galaxis/contracts/FundRules/GX_TokenWhitelist.sol",
  "compiler": {
    "name": "solc",
    "version": "0.6.5+commit.f956cc89.Emscripten.clang"
  },
  "schemaVersion": "3.2.2-next.0",
  "updatedAt": "2020-08-13T15:10:44.450Z",
  "devdoc": {
    "author": "Solidity Services",
    "methods": {
      "addAdmin(address)": {
        "details": "...",
        "params": {
          "_newAdmin": "new admin of the contract"
        }
      },
      "blacklistToken(address)": {
        "details": "...",
        "params": {
          "_tokenAddress": "tokenaddress to blacklist"
        }
      },
      "isAdmin(address)": {
        "details": "...",
        "params": {
          "_addressToCheck": "the address to be checked"
        }
      },
      "isAllowedDeposit(address,uint256)": {
        "details": "..."
      },
      "isAllowedPlaceOrder()": {
        "details": "..."
      },
      "isAllowedWithdraw(address,uint256)": {
        "details": "..."
      },
      "isWhitelisted(address)": {
        "details": "...",
        "params": {
          "_tokenAddress": "the address to be checked"
        }
      },
      "removeAdmin(address)": {
        "details": "...",
        "params": {
          "_adminToDelete": "removing the admin from the contract"
        }
      },
      "whitelistToken(address)": {
        "details": "...",
        "params": {
          "_tokenAddress": "token to whitelist"
        }
      }
    },
    "title": "Galaxis: Rules for whitlisting a token in the fund"
  },
  "userdoc": {
    "methods": {
      "addAdmin(address)": {
        "notice": "TRANSACTIONSadding a new admin to the contract"
      },
      "blacklistToken(address)": {
        "notice": "blacklisting a token"
      },
      "isAdmin(address)": {
        "notice": "VIEWSchecking if the address is admin"
      },
      "isAllowedDeposit(address,uint256)": {
        "notice": "is it allowed to invest"
      },
      "isAllowedPlaceOrder()": {
        "notice": "is it allowed to trade"
      },
      "isAllowedWithdraw(address,uint256)": {
        "notice": "is it allowed to withdraw"
      },
      "isWhitelisted(address)": {
        "notice": "VIEWSchecking if the token is whitelisted"
      },
      "removeAdmin(address)": {
        "notice": "removing an admin from the contract"
      },
      "whitelistToken(address)": {
        "notice": "CONSTRUCTOR TRANSACTIONSwhitelisting a new token"
      }
    },
    "notice": "Set whitelist for the fund"
  }
}