{
  "contractName": "GX_TokenManager",
  "abi": [
    {
      "anonymous": false,
      "inputs": [
        {
          "indexed": true,
          "internalType": "address",
          "name": "adminAddress",
          "type": "address"
        }
      ],
      "name": "GX_AdminAdded",
      "type": "event"
    },
    {
      "anonymous": false,
      "inputs": [
        {
          "indexed": true,
          "internalType": "address",
          "name": "adminAddress",
          "type": "address"
        }
      ],
      "name": "GX_AdminRemoved",
      "type": "event"
    },
    {
      "anonymous": false,
      "inputs": [
        {
          "indexed": true,
          "internalType": "address",
          "name": "tokenAddress",
          "type": "address"
        }
      ],
      "name": "GX_TokenBlacklisted",
      "type": "event"
    },
    {
      "anonymous": false,
      "inputs": [
        {
          "indexed": true,
          "internalType": "address",
          "name": "tokenAddress",
          "type": "address"
        },
        {
          "indexed": false,
          "internalType": "uint8",
          "name": "_changeRate",
          "type": "uint8"
        }
      ],
      "name": "GX_TokenWhitelisted",
      "type": "event"
    },
    {
      "inputs": [
        {
          "internalType": "address",
          "name": "_newAdmin",
          "type": "address"
        }
      ],
      "name": "addAdmin",
      "outputs": [],
      "stateMutability": "nonpayable",
      "type": "function"
    },
    {
      "inputs": [
        {
          "internalType": "address",
          "name": "_addressToCheck",
          "type": "address"
        }
      ],
      "name": "isAdmin",
      "outputs": [
        {
          "internalType": "bool",
          "name": "",
          "type": "bool"
        }
      ],
      "stateMutability": "view",
      "type": "function"
    },
    {
      "inputs": [
        {
          "internalType": "address",
          "name": "_adminToDelete",
          "type": "address"
        }
      ],
      "name": "removeAdmin",
      "outputs": [],
      "stateMutability": "nonpayable",
      "type": "function"
    },
    {
      "inputs": [
        {
          "internalType": "address",
          "name": "_tokenAddress",
          "type": "address"
        },
        {
          "internalType": "uint8",
          "name": "_changeRate",
          "type": "uint8"
        }
      ],
      "name": "whitelistToken",
      "outputs": [],
      "stateMutability": "nonpayable",
      "type": "function"
    },
    {
      "inputs": [
        {
          "internalType": "address",
          "name": "_tokenAddress",
          "type": "address"
        }
      ],
      "name": "blacklistToken",
      "outputs": [],
      "stateMutability": "nonpayable",
      "type": "function"
    },
    {
      "inputs": [
        {
          "internalType": "address",
          "name": "_tokenAddress",
          "type": "address"
        }
      ],
      "name": "isWhitelisted",
      "outputs": [
        {
          "internalType": "bool",
          "name": "",
          "type": "bool"
        }
      ],
      "stateMutability": "view",
      "type": "function"
    },
    {
      "inputs": [
        {
          "internalType": "address",
          "name": "_tokenAddress",
          "type": "address"
        }
      ],
      "name": "getChangeRate",
      "outputs": [
        {
          "internalType": "uint8",
          "name": "",
          "type": "uint8"
        }
      ],
      "stateMutability": "view",
      "type": "function"
    },
    {
      "inputs": [
        {
          "internalType": "address",
          "name": "_tknDeposit",
          "type": "address"
        },
        {
          "internalType": "uint256",
          "name": "_amount",
          "type": "uint256"
        }
      ],
      "name": "isAllowedDeposit",
      "outputs": [
        {
          "internalType": "bool",
          "name": "",
          "type": "bool"
        }
      ],
      "stateMutability": "view",
      "type": "function"
    },
    {
      "inputs": [
        {
          "internalType": "address",
          "name": "_tknDeposit",
          "type": "address"
        },
        {
          "internalType": "uint256",
          "name": "_amount",
          "type": "uint256"
        }
      ],
      "name": "isAllowedWithdraw",
      "outputs": [
        {
          "internalType": "bool",
          "name": "",
          "type": "bool"
        }
      ],
      "stateMutability": "view",
      "type": "function"
    },
    {
      "inputs": [],
      "name": "isAllowedPlaceOrder",
      "outputs": [
        {
          "internalType": "bool",
          "name": "",
          "type": "bool"
        }
      ],
      "stateMutability": "view",
      "type": "function"
    }
  ],
  "bytecode": "0x60806040908152336000908152602081905220805460ff191660011790556106bf8061002c6000396000f3fe608060405234801561001057600080fd5b506004361061009e5760003560e01c806360b6cf931161006657806360b6cf931461018657806370480275146101b2578063c74af6a5146101d8578063d9e3eaa0146101e0578063e12545591461021c5761009e565b80631785f53c146100a357806324d7806c146100cb5780633af32abf14610105578063408962d71461012b57806348499ff514610157575b600080fd5b6100c9600480360360208110156100b957600080fd5b50356001600160a01b0316610242565b005b6100f1600480360360208110156100e157600080fd5b50356001600160a01b03166102de565b604080519115158252519081900360200190f35b6100f16004803603602081101561011b57600080fd5b50356001600160a01b03166102fc565b6100f16004803603604081101561014157600080fd5b506001600160a01b03813516906020013561031f565b6100c96004803603604081101561016d57600080fd5b5080356001600160a01b0316906020013560ff16610370565b6100f16004803603604081101561019c57600080fd5b506001600160a01b038135169060200135610452565b6100c9600480360360208110156101c857600080fd5b50356001600160a01b031661049d565b6100f161053c565b610206600480360360208110156101f657600080fd5b50356001600160a01b0316610541565b6040805160ff9092168252519081900360200190f35b6100c96004803603602081101561023257600080fd5b50356001600160a01b031661055f565b3360009081526020819052604090205460ff1615156001146102955760405162461bcd60e51b81526004018080602001828103825260348152602001806106566034913960400191505060405180910390fd5b6001600160a01b038116600081815260208190526040808220805460ff19169055517f6a35edfb19dff31b968882a3f9eeef54e0ca71bb9af2db6e085f409715d3c5479190a250565b6001600160a01b031660009081526020819052604090205460ff1690565b6001600160a01b0316600090815260016020526040902054610100900460ff1690565b600061032a836102fc565b151560011461036a5760405162461bcd60e51b815260040180806020018281038252602d815260200180610629602d913960400191505060405180910390fd5b92915050565b3360009081526020819052604090205460ff1615156001146103c35760405162461bcd60e51b81526004018080602001828103825260348152602001806106566034913960400191505060405180910390fd5b60408051808201825260ff808416808352600160208085018281526001600160a01b03891660008181529383529287902095518654915115156101000261ff00199190961660ff199092169190911716939093179093558351908152925191927fac0f2ecc83cf8e558ff37d73aa2c5512b98284793ee01338bde3c5413c4a4f3c929081900390910190a25050565b600061045d836102fc565b151560011461036a5760405162461bcd60e51b815260040180806020018281038252602c8152602001806105fd602c913960400191505060405180910390fd5b3360009081526020819052604090205460ff1615156001146104f05760405162461bcd60e51b81526004018080602001828103825260348152602001806106566034913960400191505060405180910390fd5b6001600160a01b038116600081815260208190526040808220805460ff19166001179055517fd7f0afc2242fe9a5f45af6dea542902933e36c643299a53b1057b13cf8bcad809190a250565b600190565b6001600160a01b031660009081526001602052604090205460ff1690565b3360009081526020819052604090205460ff1615156001146105b25760405162461bcd60e51b81526004018080602001828103825260348152602001806106566034913960400191505060405180910390fd5b6001600160a01b038116600081815260016020526040808220805461ff0019169055517fb2425ed5c48af46b6ca1a64069d798ec183c079c7ffbd3150715248c929a33599190a25056fe47616c617869733a20546f6b656e20746f206465706f736974206973206e6f742077686974656c697374656447616c617869733a20546f6b656e20746f207769746864726177206973206e6f742077686974656c697374656447616c617869733a204163636573732064656e6965643a206e6f7420616e2061646d696e206f662074686520636f6e7472616374a2646970667358221220e61a59b0e66cdab93a9d7f23b2f3ecab6fe46721f69abe9a1b15f5665d7eda2964736f6c63430006050033",
  "immutableReferences": {},
  "source": "pragma solidity ^0.6.0;\n\nimport './GX_RuleInterface.sol';\nimport '../Governance/GX_GovernanceAdmin.sol';\n\n/// @author Solidity Services\n/// @title Galaxis: Rules for whitlisting a token in the fund\n/// @notice Set whitelist for the fund\ncontract GX_TokenManager is GX_RuleInterface, GX_GovernanceAdmin {\n\n    /// INTERNALS\n    struct TokenInfo {\n        uint8 changeRate;\n        bool whitelist;\n    }\n\n    /// STATE VARIABLES\n    /// @notice whitelisted tokens\n    mapping (address => TokenInfo) tokens;\n\n    /// EVENTS: user facing events\n    /// @notice event for whitelisting a token\n    event GX_TokenWhitelisted(address indexed tokenAddress, uint8 _changeRate);\n    /// @notice event for blacklisting a token\n    event GX_TokenBlacklisted(address indexed tokenAddress);\n\n    /// CONSTRUCTOR\n\n    /// TRANSACTIONS\n\n    /// @notice whitelisting a new token\n    /// @dev ...\n    /// @param _tokenAddress token to whitelist\n    /// @param _changeRate token change rate\n    function whitelistToken(address _tokenAddress, uint8 _changeRate) public onlyAdmin {\n        tokens[_tokenAddress] = TokenInfo(_changeRate, true);\n        emit GX_TokenWhitelisted(_tokenAddress,_changeRate);\n    }\n\n    /// @notice blacklisting a token\n    /// @dev ...\n    /// @param _tokenAddress tokenaddress to blacklist\n    function blacklistToken(address _tokenAddress) public onlyAdmin {\n        tokens[_tokenAddress].whitelist = false;\n        emit GX_TokenBlacklisted(_tokenAddress);\n    }\n\n    /// VIEWS\n\n    /// @notice checking if the token is whitelisted\n    /// @dev ...\n    /// @param _tokenAddress the address to be checked\n    function isWhitelisted(address _tokenAddress) public view returns (bool) {\n        return tokens[_tokenAddress].whitelist;\n    }\n\n    /// @notice getting change rate for a token\n    /// @dev ...\n    /// @param _tokenAddress the address to be checked\n    function getChangeRate(address _tokenAddress) public view returns (uint8) {\n        return tokens[_tokenAddress].changeRate;\n    }\n\n    /// @notice is it allowed to invest\n    /// @dev ...\n    function isAllowedDeposit(address _tknDeposit, uint _amount) public override virtual view returns (bool) {\n        require(isWhitelisted(_tknDeposit) == true, \"Galaxis: Token to deposit is not whitelisted\");\n    }\n\n    /// @notice is it allowed to withdraw\n    /// @dev ...\n    function isAllowedWithdraw(address _tknDeposit, uint _amount) public override virtual view returns (bool) {\n        require(isWhitelisted(_tknDeposit) == true, \"Galaxis: Token to withdraw is not whitelisted\");\n    }\n\n    /// @notice is it allowed to trade\n    /// @dev ...\n    function isAllowedPlaceOrder() public override virtual view returns (bool) {\n        return true;\n    }\n\n\n}\n",
  "sourcePath": "/home/dsz/git/galaxistest/galaxis/contracts/FundRules/GX_TokenManager.sol",
  "compiler": {
    "name": "solc",
    "version": "0.6.5+commit.f956cc89.Emscripten.clang"
  },
  "schemaVersion": "3.2.2-next.0",
  "updatedAt": "2020-08-13T15:10:44.449Z",
  "devdoc": {
    "author": "Solidity Services",
    "methods": {
      "addAdmin(address)": {
        "details": "...",
        "params": {
          "_newAdmin": "new admin of the contract"
        }
      },
      "blacklistToken(address)": {
        "details": "...",
        "params": {
          "_tokenAddress": "tokenaddress to blacklist"
        }
      },
      "getChangeRate(address)": {
        "details": "...",
        "params": {
          "_tokenAddress": "the address to be checked"
        }
      },
      "isAdmin(address)": {
        "details": "...",
        "params": {
          "_addressToCheck": "the address to be checked"
        }
      },
      "isAllowedDeposit(address,uint256)": {
        "details": "..."
      },
      "isAllowedPlaceOrder()": {
        "details": "..."
      },
      "isAllowedWithdraw(address,uint256)": {
        "details": "..."
      },
      "isWhitelisted(address)": {
        "details": "...",
        "params": {
          "_tokenAddress": "the address to be checked"
        }
      },
      "removeAdmin(address)": {
        "details": "...",
        "params": {
          "_adminToDelete": "removing the admin from the contract"
        }
      },
      "whitelistToken(address,uint8)": {
        "details": "...",
        "params": {
          "_changeRate": "token change rate",
          "_tokenAddress": "token to whitelist"
        }
      }
    },
    "title": "Galaxis: Rules for whitlisting a token in the fund"
  },
  "userdoc": {
    "methods": {
      "addAdmin(address)": {
        "notice": "TRANSACTIONSadding a new admin to the contract"
      },
      "blacklistToken(address)": {
        "notice": "blacklisting a token"
      },
      "getChangeRate(address)": {
        "notice": "getting change rate for a token"
      },
      "isAdmin(address)": {
        "notice": "VIEWSchecking if the address is admin"
      },
      "isAllowedDeposit(address,uint256)": {
        "notice": "is it allowed to invest"
      },
      "isAllowedPlaceOrder()": {
        "notice": "is it allowed to trade"
      },
      "isAllowedWithdraw(address,uint256)": {
        "notice": "is it allowed to withdraw"
      },
      "isWhitelisted(address)": {
        "notice": "VIEWSchecking if the token is whitelisted"
      },
      "removeAdmin(address)": {
        "notice": "removing an admin from the contract"
      },
      "whitelistToken(address,uint8)": {
        "notice": "CONSTRUCTOR TRANSACTIONSwhitelisting a new token"
      }
    },
    "notice": "Set whitelist for the fund"
  }
}