{
  "contractName": "GX_Treasury",
  "abi": [
    {
      "inputs": [],
      "stateMutability": "nonpayable",
      "type": "constructor"
    },
    {
      "inputs": [],
      "name": "getBalanceEthTreasury",
      "outputs": [
        {
          "internalType": "uint256",
          "name": "",
          "type": "uint256"
        }
      ],
      "stateMutability": "view",
      "type": "function"
    },
    {
      "inputs": [
        {
          "internalType": "address",
          "name": "_tknAddress",
          "type": "address"
        }
      ],
      "name": "getBalanceTokenTreasury",
      "outputs": [
        {
          "internalType": "uint256",
          "name": "",
          "type": "uint256"
        }
      ],
      "stateMutability": "view",
      "type": "function"
    }
  ],
  "bytecode": "0x608060405234801561001057600080fd5b50610127806100206000396000f3fe6080604052348015600f57600080fd5b506004361060325760003560e01c806306651294146037578063aee2f8e014606c575b600080fd5b605a60048036036020811015604b57600080fd5b50356001600160a01b03166072565b60408051918252519081900360200190f35b605a60ed565b604080516370a0823160e01b8152306004820152905160009183916001600160a01b038316916370a08231916024808301926020929190829003018186803b15801560bc57600080fd5b505afa15801560cf573d6000803e3d6000fd5b505050506040513d602081101560e457600080fd5b50519392505050565b479056fea26469706673582212200bcbb9cc1a279122114230d53955c6475bd56a51ede27b4ab126eb7684beff6264736f6c63430006050033",
  "immutableReferences": {},
  "source": "pragma solidity ^0.6.0;\n\nimport \"@openzeppelin/contracts/token/ERC20/IERC20.sol\";\n\n/// @author Solidity Services\n/// @title Galaxis: Multitoken treasury\n/// @notice Handles token funds\ncontract GX_Treasury {\n\n    /// STATE VARIABLES\n\n    /// EVENTS\n\n    /// CONSTRUCTORS\n\n    /// @notice creating a treasury\n    /// @dev ...\n    constructor() public {\n    }\n\n    /// MODIFIERS\n\n    /// TRANSACTIONS\n\n    /// @notice Fund manager can transfer ether to the treasury\n    function transferTokenTreasury(address _tknAddress, address _to, uint _amount) internal {\n        IERC20 token = IERC20(_tknAddress);\n        token.transfer(_to,_amount);\n    }\n\n    /// @notice Fund manager can approve transfer\n    function approveTokenTreasury(address _tknAddress, address _spender, uint _amount) internal {\n        IERC20 token = IERC20(_tknAddress);\n        token.approve(_spender,_amount);\n    }\n\n    /// VIEWS\n\n    /// @notice getting balance of the treasury\n    /// @dev ...\n    function getBalanceEthTreasury() public view returns (uint) {\n        return address(this).balance;\n    }\n\n    /// @notice getting token balance of the treasury contract\n    /// @dev ...\n    function getBalanceTokenTreasury(address _tknAddress) public view returns (uint) {\n        IERC20 token = IERC20(_tknAddress);\n        return token.balanceOf(address(this));\n    }\n\n}",
  "sourcePath": "/home/dsz/git/galaxistest/galaxis/contracts/Treasury/GX_Treasury.sol",
  "compiler": {
    "name": "solc",
    "version": "0.6.5+commit.f956cc89.Emscripten.clang"
  },
  "schemaVersion": "3.2.2-next.0",
  "updatedAt": "2020-08-13T15:10:44.458Z",
  "devdoc": {
    "author": "Solidity Services",
    "methods": {
      "constructor": {
        "details": "..."
      },
      "getBalanceEthTreasury()": {
        "details": "..."
      },
      "getBalanceTokenTreasury(address)": {
        "details": "..."
      }
    },
    "title": "Galaxis: Multitoken treasury"
  },
  "userdoc": {
    "methods": {
      "constructor": "STATE VARIABLES EVENTS CONSTRUCTORScreating a treasury",
      "getBalanceEthTreasury()": {
        "notice": "VIEWSgetting balance of the treasury"
      },
      "getBalanceTokenTreasury(address)": {
        "notice": "getting token balance of the treasury contract"
      }
    },
    "notice": "Handles token funds"
  }
}