{
  "contractName": "GX_TrustedParties",
  "abi": [
    {
      "inputs": [],
      "stateMutability": "nonpayable",
      "type": "constructor"
    },
    {
      "anonymous": false,
      "inputs": [
        {
          "indexed": true,
          "internalType": "address",
          "name": "adminAddress",
          "type": "address"
        }
      ],
      "name": "GX_AdminAdded",
      "type": "event"
    },
    {
      "anonymous": false,
      "inputs": [
        {
          "indexed": true,
          "internalType": "address",
          "name": "adminAddress",
          "type": "address"
        }
      ],
      "name": "GX_AdminRemoved",
      "type": "event"
    },
    {
      "anonymous": false,
      "inputs": [
        {
          "indexed": true,
          "internalType": "address",
          "name": "partyAddress",
          "type": "address"
        }
      ],
      "name": "GX_PartyAdded",
      "type": "event"
    },
    {
      "anonymous": false,
      "inputs": [
        {
          "indexed": true,
          "internalType": "address",
          "name": "partyAddress",
          "type": "address"
        }
      ],
      "name": "GX_PartyRemoved",
      "type": "event"
    },
    {
      "inputs": [
        {
          "internalType": "address",
          "name": "_newAdmin",
          "type": "address"
        }
      ],
      "name": "addAdmin",
      "outputs": [],
      "stateMutability": "nonpayable",
      "type": "function"
    },
    {
      "inputs": [
        {
          "internalType": "address",
          "name": "_addressToCheck",
          "type": "address"
        }
      ],
      "name": "isAdmin",
      "outputs": [
        {
          "internalType": "bool",
          "name": "",
          "type": "bool"
        }
      ],
      "stateMutability": "view",
      "type": "function"
    },
    {
      "inputs": [
        {
          "internalType": "address",
          "name": "_adminToDelete",
          "type": "address"
        }
      ],
      "name": "removeAdmin",
      "outputs": [],
      "stateMutability": "nonpayable",
      "type": "function"
    },
    {
      "inputs": [
        {
          "internalType": "address",
          "name": "_newParty",
          "type": "address"
        }
      ],
      "name": "addParty",
      "outputs": [],
      "stateMutability": "nonpayable",
      "type": "function"
    },
    {
      "inputs": [
        {
          "internalType": "address",
          "name": "_partyToDelete",
          "type": "address"
        }
      ],
      "name": "removeParty",
      "outputs": [],
      "stateMutability": "nonpayable",
      "type": "function"
    },
    {
      "inputs": [
        {
          "internalType": "address",
          "name": "_addressToCheck",
          "type": "address"
        }
      ],
      "name": "isParty",
      "outputs": [
        {
          "internalType": "bool",
          "name": "",
          "type": "bool"
        }
      ],
      "stateMutability": "view",
      "type": "function"
    }
  ],
  "bytecode": "0x608060405234801561001057600080fd5b50336000908152602081905260409020805460ff191660011790556104808061003a6000396000f3fe608060405234801561001057600080fd5b50600436106100625760003560e01c80631785f53c1461006757806324d7806c1461008f578063373c3e76146100c957806370480275146100ef578063c1a4224314610115578063fc78b2e81461013b575b600080fd5b61008d6004803603602081101561007d57600080fd5b50356001600160a01b0316610161565b005b6100b5600480360360208110156100a557600080fd5b50356001600160a01b03166101fd565b604080519115158252519081900360200190f35b61008d600480360360208110156100df57600080fd5b50356001600160a01b031661021b565b61008d6004803603602081101561010557600080fd5b50356001600160a01b03166102bd565b61008d6004803603602081101561012b57600080fd5b50356001600160a01b031661035c565b6100b56004803603602081101561015157600080fd5b50356001600160a01b03166103f8565b3360009081526020819052604090205460ff1615156001146101b45760405162461bcd60e51b81526004018080602001828103825260348152602001806104176034913960400191505060405180910390fd5b6001600160a01b038116600081815260208190526040808220805460ff19169055517f6a35edfb19dff31b968882a3f9eeef54e0ca71bb9af2db6e085f409715d3c5479190a250565b6001600160a01b031660009081526020819052604090205460ff1690565b3360009081526020819052604090205460ff16151560011461026e5760405162461bcd60e51b81526004018080602001828103825260348152602001806104176034913960400191505060405180910390fd5b6001600160a01b0381166000818152600160208190526040808320805460ff1916909217909155517fa939b18300f53158576c00561d9810d163a1fd7971e0beb2deb3da9d6d6c5ae19190a250565b3360009081526020819052604090205460ff1615156001146103105760405162461bcd60e51b81526004018080602001828103825260348152602001806104176034913960400191505060405180910390fd5b6001600160a01b038116600081815260208190526040808220805460ff19166001179055517fd7f0afc2242fe9a5f45af6dea542902933e36c643299a53b1057b13cf8bcad809190a250565b3360009081526020819052604090205460ff1615156001146103af5760405162461bcd60e51b81526004018080602001828103825260348152602001806104176034913960400191505060405180910390fd5b6001600160a01b038116600081815260016020526040808220805460ff19169055517fdbe139b9dcaabbb09bc4b530bfb2f8d390bd0ac7cd6e9c87a80468cc8ca709df9190a250565b6001600160a01b031660009081526001602052604090205460ff169056fe47616c617869733a204163636573732064656e6965643a206e6f7420616e2061646d696e206f662074686520636f6e7472616374a2646970667358221220a5421052812c35cb8d767338d0a169062da7c5f03cbc88e2be83e1074671caa764736f6c63430006050033",
  "immutableReferences": {},
  "source": "pragma solidity ^0.6.0;\n\nimport '../Governance/GX_GovernanceAdmin.sol';\n\n/// @author Solidity Services\n/// @title Galaxis: Registered parties\n/// @notice Simple helper functionalities for registered parties\ncontract GX_TrustedParties is GX_GovernanceAdmin {\n\n    /// @notice parties\n    mapping (address => bool) parties;\n\n    /// EVENTS: user facing events\n    /// @notice event for adding a party\n    event GX_PartyAdded(address indexed partyAddress);\n    /// @notice event for removing a party\n    event GX_PartyRemoved(address indexed partyAddress);\n\n\n    /// CONSTRUCTOR\n    \n    /// @notice functionality for known parites\n    /// @dev ...\n    constructor() public {\n    }\n\n    /// TRANSACTIONS\n\n    /// @notice adding a new party\n    /// @dev ...\n    /// @param _newParty new party of the contract\n    function addParty(address _newParty) public onlyAdmin {\n        parties[_newParty] = true;\n        emit GX_PartyAdded(_newParty);\n    }\n\n    /// @notice removing a party from the contract\n    /// @dev ...\n    /// @param _partyToDelete removing the party from the contract\n    function removeParty(address _partyToDelete) public onlyAdmin {\n        parties[_partyToDelete] = false;\n        emit GX_PartyRemoved(_partyToDelete);\n    }\n\n    /// VIEWS\n\n    /// @notice checking if the address is a trusted party\n    /// @dev ...\n    /// @param _addressToCheck the address to be checked\n    function isParty(address _addressToCheck) public view returns (bool) {\n        return parties[_addressToCheck];\n    }\n}",
  "sourcePath": "/home/dsz/git/galaxistest/galaxis/contracts/Composition/GX_TrustedParties.sol",
  "compiler": {
    "name": "solc",
    "version": "0.6.5+commit.f956cc89.Emscripten.clang"
  },
  "schemaVersion": "3.2.2-next.0",
  "updatedAt": "2020-08-13T15:10:44.429Z",
  "devdoc": {
    "author": "Solidity Services",
    "methods": {
      "addAdmin(address)": {
        "details": "...",
        "params": {
          "_newAdmin": "new admin of the contract"
        }
      },
      "addParty(address)": {
        "details": "...",
        "params": {
          "_newParty": "new party of the contract"
        }
      },
      "constructor": {
        "details": "..."
      },
      "isAdmin(address)": {
        "details": "...",
        "params": {
          "_addressToCheck": "the address to be checked"
        }
      },
      "isParty(address)": {
        "details": "...",
        "params": {
          "_addressToCheck": "the address to be checked"
        }
      },
      "removeAdmin(address)": {
        "details": "...",
        "params": {
          "_adminToDelete": "removing the admin from the contract"
        }
      },
      "removeParty(address)": {
        "details": "...",
        "params": {
          "_partyToDelete": "removing the party from the contract"
        }
      }
    },
    "title": "Galaxis: Registered parties"
  },
  "userdoc": {
    "methods": {
      "addAdmin(address)": {
        "notice": "TRANSACTIONSadding a new admin to the contract"
      },
      "addParty(address)": {
        "notice": "TRANSACTIONSadding a new party"
      },
      "constructor": "CONSTRUCTORfunctionality for known parites",
      "isAdmin(address)": {
        "notice": "VIEWSchecking if the address is admin"
      },
      "isParty(address)": {
        "notice": "VIEWSchecking if the address is a trusted party"
      },
      "removeAdmin(address)": {
        "notice": "removing an admin from the contract"
      },
      "removeParty(address)": {
        "notice": "removing a party from the contract"
      }
    },
    "notice": "Simple helper functionalities for registered parties"
  }
}