{
  "contractName": "GX_UniswapAdapter",
  "abi": [
    {
      "inputs": [],
      "stateMutability": "nonpayable",
      "type": "constructor"
    },
    {
      "inputs": [],
      "name": "uniswapRouter",
      "outputs": [
        {
          "internalType": "contract IUniswapV2Router02",
          "name": "",
          "type": "address"
        }
      ],
      "stateMutability": "view",
      "type": "function"
    },
    {
      "inputs": [
        {
          "internalType": "uint256",
          "name": "daiAmount",
          "type": "uint256"
        }
      ],
      "name": "convertEthToDai",
      "outputs": [],
      "stateMutability": "payable",
      "type": "function"
    }
  ],
  "bytecode": "0x6080604052600180546001600160a01b031916734f96fe3b7a6cf9725f59d353f723c1bdb64ca6aa17905534801561003657600080fd5b50600080546001600160a01b031916737a250d5630b4cf539739df2c5dacb4c659f2488d1790556103828061006c6000396000f3fe6080604052600436106100295760003560e01c8063735de9f71461002e578063ff22723a1461005f575b600080fd5b34801561003a57600080fd5b5061004361007e565b604080516001600160a01b039092168252519081900360200190f35b61007c6004803603602081101561007557600080fd5b503561008d565b005b6000546001600160a01b031681565b600054600f4201906001600160a01b031663fb3bdb4134846100ad610264565b30866040518663ffffffff1660e01b81526004018085815260200180602001846001600160a01b03166001600160a01b03168152602001838152602001828103825285818151815260200191508051906020019060200280838360005b8381101561012257818101518382015260200161010a565b50505050905001955050505050506000604051808303818588803b15801561014957600080fd5b505af115801561015d573d6000803e3d6000fd5b50505050506040513d6000823e601f3d908101601f19168201604052602081101561018757600080fd5b81019080805160405193929190846401000000008211156101a757600080fd5b9083019060208201858111156101bc57600080fd5b82518660208202830111640100000000821117156101d957600080fd5b82525081516020918201928201910280838360005b838110156102065781810151838201526020016101ee565b50505050919091016040819052339550479450925060009150829050818185875af1925050503d8060008114610258576040519150601f19603f3d011682016040523d82523d6000602084013e61025d565b606091505b5050505050565b6040805160028082526060808301845292839291906020830190803683375050600054604080516315ab88c960e31b815290519394506001600160a01b039091169263ad5c464892506004808301926020929190829003018186803b1580156102cc57600080fd5b505afa1580156102e0573d6000803e3d6000fd5b505050506040513d60208110156102f657600080fd5b50518151829060009061030557fe5b6001600160a01b039283166020918202929092010152600180548351921691839190811061032f57fe5b6001600160a01b039092166020928302919091019091015290509056fea264697066735822122092874b35ffd4f4c1dd649bf83a8cf8016d715254b04abf8e13736043327aa34d64736f6c63430006050033",
  "immutableReferences": {},
  "source": "pragma solidity ^0.6.0;\n\nimport \"@openzeppelin/contracts/token/ERC20/IERC20.sol\";\nimport \"@uniswap/v2-periphery/contracts/interfaces/IUniswapV2Router02.sol\";\n\n/// @author Solidity Services\n/// @title Galaxis: Uniswap adapter\n/// @notice Handles communication with Uniswap\ncontract GX_UniswapAdapter {\n\n    address internal constant UNISWAP_ROUTER_ADDRESS = 0x7a250d5630B4cF539739dF2C5dAcb4c659F2488D ;\n\n    IUniswapV2Router02 public uniswapRouter;\n    address private multiDaiKovan = 0x4F96Fe3b7A6Cf9725f59d353F723c1bDb64CA6Aa;\n\n    constructor() public {\n        uniswapRouter = IUniswapV2Router02(UNISWAP_ROUTER_ADDRESS);\n    }\n\n    function convertEthToDai(uint daiAmount) public payable {\n        uint deadline = now + 15; // using 'now' for convenience, for mainnet pass deadline from frontend!\n        uniswapRouter.swapETHForExactTokens.value(msg.value)(daiAmount, getPathForETHtoDAI(), address(this), deadline);\n        \n        // refund leftover ETH to user\n        msg.sender.call.value(address(this).balance)(\"\");\n    }\n    \n    function getEstimatedETHforDAI(uint daiAmount) internal view returns (uint[] memory) {\n        return uniswapRouter.getAmountsIn(daiAmount, getPathForETHtoDAI());\n    }\n\n    function getPathForETHtoDAI() private view returns (address[] memory) {\n        address[] memory path = new address[](2);\n        path[0] = uniswapRouter.WETH();\n        path[1] = multiDaiKovan;\n        \n        return path;\n    }\n\n    function getPath(address _tknOffer, address _tknGet) private view returns (address[] memory) {\n        address[] memory path = new address[](2);\n        path[0] = _tknOffer;\n        path[1] = _tknGet;\n        \n        return path;\n    }\n\n    function swapTokensUniswap (address _tknOffer, address _tknGet, uint _amount, address _toAddress, address _dexManagerAddress) internal {\n        uint deadline = now + 15; // using 'now' for convenience, for mainnet pass deadline from frontend!\n\n        // making swap by uniswap\n        uniswapRouter.swapExactTokensForTokens(\n            _amount,\n            0,\n            getPath(_tknOffer, _tknGet),\n            _toAddress,\n            deadline\n        );\n\n        // sending remaining tokens back: hack for inheritance\n        IERC20 tknOffer = IERC20(_tknOffer);\n        uint remaining = tknOffer.allowance(_toAddress, _dexManagerAddress);\n        if (remaining > 0) {\n            tknOffer.transferFrom(_dexManagerAddress, _toAddress, remaining);\n        }\n\n    }\n\n\n}",
  "sourcePath": "/home/dsz/git/galaxistest/galaxis/contracts/DexAdapters/GX_UniswapAdapter.sol",
  "compiler": {
    "name": "solc",
    "version": "0.6.5+commit.f956cc89.Emscripten.clang"
  },
  "schemaVersion": "3.2.2-next.0",
  "updatedAt": "2020-08-13T15:10:44.434Z",
  "devdoc": {
    "author": "Solidity Services",
    "methods": {},
    "title": "Galaxis: Uniswap adapter"
  },
  "userdoc": {
    "methods": {},
    "notice": "Handles communication with Uniswap"
  }
}