{
  "contractName": "PriceOracle",
  "abi": [
    {
      "anonymous": false,
      "inputs": [
        {
          "indexed": false,
          "internalType": "address",
          "name": "callerAddress",
          "type": "address"
        },
        {
          "indexed": false,
          "internalType": "uint256",
          "name": "id",
          "type": "uint256"
        }
      ],
      "name": "GetLatestEthPriceEvent",
      "type": "event"
    },
    {
      "anonymous": false,
      "inputs": [
        {
          "indexed": true,
          "internalType": "address",
          "name": "previousOwner",
          "type": "address"
        },
        {
          "indexed": true,
          "internalType": "address",
          "name": "newOwner",
          "type": "address"
        }
      ],
      "name": "OwnershipTransferred",
      "type": "event"
    },
    {
      "anonymous": false,
      "inputs": [
        {
          "indexed": false,
          "internalType": "uint256",
          "name": "ethPrice",
          "type": "uint256"
        },
        {
          "indexed": false,
          "internalType": "address",
          "name": "callerAddress",
          "type": "address"
        }
      ],
      "name": "SetLatestEthPriceEvent",
      "type": "event"
    },
    {
      "inputs": [],
      "name": "owner",
      "outputs": [
        {
          "internalType": "address",
          "name": "",
          "type": "address"
        }
      ],
      "stateMutability": "view",
      "type": "function"
    },
    {
      "inputs": [],
      "name": "renounceOwnership",
      "outputs": [],
      "stateMutability": "nonpayable",
      "type": "function"
    },
    {
      "inputs": [
        {
          "internalType": "address",
          "name": "newOwner",
          "type": "address"
        }
      ],
      "name": "transferOwnership",
      "outputs": [],
      "stateMutability": "nonpayable",
      "type": "function"
    },
    {
      "inputs": [],
      "name": "getLatestEthPrice",
      "outputs": [
        {
          "internalType": "uint256",
          "name": "",
          "type": "uint256"
        }
      ],
      "stateMutability": "nonpayable",
      "type": "function"
    },
    {
      "inputs": [
        {
          "internalType": "uint256",
          "name": "_ethPrice",
          "type": "uint256"
        },
        {
          "internalType": "address",
          "name": "_callerAddress",
          "type": "address"
        },
        {
          "internalType": "uint256",
          "name": "_id",
          "type": "uint256"
        }
      ],
      "name": "setLatestEthPrice",
      "outputs": [],
      "stateMutability": "nonpayable",
      "type": "function"
    }
  ],
  "bytecode": "0x6080604052600060018190556103e86002556100226001600160e01b0361007116565b600080546001600160a01b0319166001600160a01b0383169081178255604051929350917f8be0079c531659141344cd1fd0a4f28419497f9722a3daafe3b4186f6b6457e0908290a350610075565b3390565b61057a806100846000396000f3fe608060405234801561001057600080fd5b50600436106100575760003560e01c806330c0b9ec1461005c578063715018a6146100765780638da5cb5b14610080578063cf642f1f146100a4578063f2fde38b146100d6575b600080fd5b6100646100fc565b60408051918252519081900360200190f35b61007e6101ac565b005b610088610260565b604080516001600160a01b039092168252519081900360200190f35b61007e600480360360608110156100ba57600080fd5b508035906001600160a01b03602082013516906040013561026f565b61007e600480360360208110156100ec57600080fd5b50356001600160a01b03166103e9565b6001805481019081905560025460408051426020808301919091523360601b82840152605480830195909552825180830390950185526074909101909152825192019190912060009182918161014e57fe5b06600081815260036020908152604091829020805460ff19166001179055815133815290810183905281519293507f3d50a0c24e97813f35595d2f1f37dbf421d5e97f37abd4e222853e9b9c82c8d5929081900390910190a1905090565b6101b46104f3565b6000546001600160a01b03908116911614610216576040805162461bcd60e51b815260206004820181905260248201527f4f776e61626c653a2063616c6c6572206973206e6f7420746865206f776e6572604482015290519081900360640190fd5b600080546040516001600160a01b03909116907f8be0079c531659141344cd1fd0a4f28419497f9722a3daafe3b4186f6b6457e0908390a3600080546001600160a01b0319169055565b6000546001600160a01b031690565b6102776104f3565b6000546001600160a01b039081169116146102d9576040805162461bcd60e51b815260206004820181905260248201527f4f776e61626c653a2063616c6c6572206973206e6f7420746865206f776e6572604482015290519081900360640190fd5b60008181526003602052604090205460ff166103265760405162461bcd60e51b815260040180806020018281038252602781526020018061051e6027913960400191505060405180910390fd5b600081815260036020526040808220805460ff191690558051632d75cee960e21b81526004810186905260248101849052905184926001600160a01b0384169263b5d73ba4926044808301939282900301818387803b15801561038857600080fd5b505af115801561039c573d6000803e3d6000fd5b5050604080518781526001600160a01b038716602082015281517f91b860381268a473101de3379abbb70abf7ea6c9d1735cf58b9816479ff3b7279450908190039091019150a150505050565b6103f16104f3565b6000546001600160a01b03908116911614610453576040805162461bcd60e51b815260206004820181905260248201527f4f776e61626c653a2063616c6c6572206973206e6f7420746865206f776e6572604482015290519081900360640190fd5b6001600160a01b0381166104985760405162461bcd60e51b81526004018080602001828103825260268152602001806104f86026913960400191505060405180910390fd5b600080546040516001600160a01b03808516939216917f8be0079c531659141344cd1fd0a4f28419497f9722a3daafe3b4186f6b6457e091a3600080546001600160a01b0319166001600160a01b0392909216919091179055565b339056fe4f776e61626c653a206e6577206f776e657220697320746865207a65726f2061646472657373546869732072657175657374206973206e6f7420696e206d792070656e64696e67206c6973742ea2646970667358221220445740892ec030d045608c8de181eed6fb70da030e1eb0269ef87f787c3b6aad64736f6c63430006050033",
  "immutableReferences": {},
  "source": "pragma solidity ^0.6.0;\n\nimport \"@openzeppelin/contracts/access/Ownable.sol\";\nimport \"./CallerContractInterface.sol\";\n\n/// @author Solidity Services\n/// @title Galaxis: PriceOracle\n/// @notice PriceOracle\n\ncontract PriceOracle is Ownable {\n  uint private randNonce = 0;\n  uint private modulus = 1000;\n  mapping(uint256=>bool) pendingRequests;\n  event GetLatestEthPriceEvent(address callerAddress, uint id);\n  event SetLatestEthPriceEvent(uint256 ethPrice, address callerAddress);\n  function getLatestEthPrice() public returns (uint256) {\n    randNonce++;\n    uint id = uint(keccak256(abi.encodePacked(now, msg.sender, randNonce))) % modulus;\n    pendingRequests[id] = true;\n    emit GetLatestEthPriceEvent(msg.sender, id);\n    return id;\n  }\n  function setLatestEthPrice(uint256 _ethPrice, address _callerAddress, uint256 _id) public onlyOwner {\n    require(pendingRequests[_id], \"This request is not in my pending list.\");\n    delete pendingRequests[_id];\n    CallerContracInterface callerContractInstance;\n    callerContractInstance = CallerContracInterface(_callerAddress);\n    callerContractInstance.callback(_ethPrice, _id);\n    emit SetLatestEthPriceEvent(_ethPrice, _callerAddress);\n  }\n}\n",
  "sourcePath": "/home/dsz/git/galaxistest/galaxis/contracts/Oracle/Oracle.sol",
  "compiler": {
    "name": "solc",
    "version": "0.6.5+commit.f956cc89.Emscripten.clang"
  },
  "schemaVersion": "3.2.2-next.0",
  "updatedAt": "2020-08-13T15:10:44.454Z",
  "devdoc": {
    "author": "Solidity Services",
    "methods": {
      "owner()": {
        "details": "Returns the address of the current owner."
      },
      "renounceOwnership()": {
        "details": "Leaves the contract without owner. It will not be possible to call `onlyOwner` functions anymore. Can only be called by the current owner.     * NOTE: Renouncing ownership will leave the contract without an owner, thereby removing any functionality that is only available to the owner."
      },
      "transferOwnership(address)": {
        "details": "Transfers ownership of the contract to a new account (`newOwner`). Can only be called by the current owner."
      }
    },
    "title": "Galaxis: PriceOracle"
  },
  "userdoc": {
    "methods": {},
    "notice": "PriceOracle"
  }
}